:020000040800F2
:10300000682A002009310008FD5700089D4F00087C
:10301000F9570008D33C0008658300080000000051
:10302000000000000000000000000000D56D000856
:103030002D43000800000000715A0008C9750008FF
:10304000233100082331000823310008896B000870
:103050002331000823310008A1490008754A0008FF
:10306000B54B000823310008233100082331000844
:1030700023310008233100082331000823310008E0
:1030800023310008233100082331000823310008D0
:10309000157D000823310008353D0008894C0008E3
:1030A00023310008AD7800082331000823310008DF
:1030B00023310008D9760008CD77000823310008B5
:1030C0002331000823310008233100082331000890
:1030D0002331000823310008233100082331000880
:1030E0002331000871600008397B00082331000893
:1030F00023310008DFF80CD000F0D8FB004800476F
:10310000759B0008682A002006488047064800474B
:10311000FEE7FEE7FEE7FEE7FEE7FEE7FEE7FEE787
:10312000FEE7FEE781760008F5300008421E12F83F
:10313000013F002BFBD111F8013B02F8013B002BB2
:10314000F9D17047421C10F8011B0029FBD1801AED
:103150007047F0B480EA0102D40F4200B2EB410F95
:1031600002D20246084611464A0042D0C30DDDB2E3
:10317000C1F3C752AD1A202D35DAC1F3160141F45F
:10318000000204B15242C5F1200602FA06F12A41BA
:103190001044B3EBD05F23D0C4B1012DA0EBC350DA
:1031A00009DCF0BC4FF0004202EAC352DBB200F58A
:1031B000000000F031BA400000F1807000EBC35015
:1031C000A0F1807040EAD170490009E0490841EA65
:1031D000C071A0EBC35000F50000400800EBC350E5
:1031E000F0BC00F010BA6142012202EB4101001B69
:1031F000F6E7F0BC704781F00041AAE780F000409C
:10320000A7E780EA010210B502F00043400022D097
:103210004A001FD0010E01EB1261C0F35600C2F349
:10322000560240F4000042F40002A0FB0220000419
:103230007F39140400D0401C50EA124001D44000F1
:10324000491EC2B20C0604EBD010401C4008802A74
:1032500002D003E0002010BD20F00100002900DAB8
:103260000020184310BD30B480EA010202F000458E
:1032700030F0004221F0004013D090B1C30DD40DC6
:10328000C2F31601C0F31600E41A41F4000140F441
:1032900000027D34914201D3641C00E04900002CFF
:1032A00002DA30BC002070474FF400000023914246
:1032B00001D3891A034340084FEA4101F7D151B1C4
:1032C000914202D14FF0004105E002D24FF00101DE
:1032D00001E06FF0010103EBC450284430BC00F062
:1032E00092B92DE9FE4F81EA030404F0004421F075
:1032F000004100944FF0000B23F0004350EA01041A
:103300005ED052EA03045BD0C3F30A54C1F30A55FA
:103310002C44A4F2F3340194A0FB0254C1F3130132
:1033200041F48011C3F3130343F4801301FB0244FF
:1033300000FB034E840A970A44EA815447EA835704
:10334000A4FB076802958D0A05FB07854FEA932CBD
:1033500004FB0C542705029D4FEA065847EA16372E
:10336000B5EB08056EEB070C870E920E47EA811746
:1033700042EA8312A7FB0201B6EB0B0164EB0004E7
:103380002B0D43EA0C335E1844EB1C50DA465146D1
:10339000E7FB0201C5F313044FEA0B3343EA14536E
:1033A0004FEA0432019C43EA0603A4F10C040294A0
:1033B000009CCDE900B400F06CF903B0BDE8F08FDB
:1033C00000200146F9E72DE9F04D81EA030404F0FD
:1033D000004B21F0004514464FF0000A23F0004155
:1033E00050EA050220D054EA01021DD0C5F30A5765
:1033F0000246C5F31303C1F31300C1F30A5640F4A8
:10340000801543F48013A7EB0608101BD64608F27C
:10341000FD3873EB050002D308F1010801E09218B2
:103420005B41B8F1000F03DA00200146BDE8F08DE2
:1034300000204FF48011064684460EE0171B73EB04
:10344000050705D3121B63EB050306434CEA010C89
:1034500049084FEA300092185B4150EA0107EDD16C
:1034600052EA030012D082EA040083EA050108430D
:1034700005D0101BAB4106D20122002306E000223A
:103480004FF0004302E06FF0010253101AEB060008
:103490004CEB085110EB0A0041EB0B01BDE8F04D7D
:1034A00000F0E8B896230022114600F0B5B820F0ED
:1034B0000040C10DC0F3160040F400007F2901DA7E
:1034C00000207047962903DCC1F19601C84070477F
:1034D00096398840704700F0004230F000400AD032
:1034E000C10D01F56071C0F3160042EA0151C20836
:1034F00040071143704700200146704730B5041E55
:1035000071F1000404DB4FF00044404264EB010120
:10351000141E73F1000405DB1C464FF000435242B9
:1035200063EB0403994208BF904230BD01F00043B1
:1035300030B421F0004150EA010206D00A0DA2F594
:103540006072C1F31301002A02DC30BC0020704716
:10355000440F44EAC104C100E01830BC00EBC25083
:1035600000F051B8002801DBC0F10040002901DB68
:10357000C1F100418142704730B50B460146002041
:103580002022012409E021FA02F59D4205D303FA25
:1035900002F5491B04FA02F52844151EA2F10102A6
:1035A000F1DC30BD2DE9F05F0546002092469B46D8
:1035B00088460646814640241BE028464146474649
:1035C000224600F094F953465A46C01A914110D34E
:1035D00011461846224600F07BF92D1A67EB0108C8
:1035E0004F4622460120002100F072F917EB000936
:1035F0004E41201EA4F10104DFDC484631462A4634
:103600004346BDE8F09F0029A8BF7047401C490011
:1036100008BF20F00100704710B4B0FA80FC00FA37
:103620000CF050EA010404BF10BC704749B1CCF162
:10363000200421FA04F411FA0CF118BF01212143EE
:103640000843A3EB0C01CB1D4FEA00614FEA1020A9
:1036500042BF002010BC704700EBC350104400294B
:10366000A4BF10BC7047401C490008BF20F00100F7
:1036700010BC704710B5141E73F1000408DA401C2A
:1036800041F1000192185B411A4301D120F0010081
:1036900010BD2DE9F04D92469B4611B1B1FA81F271
:1036A00002E0B0FA80F22032904600F011F90446B0
:1036B0000F4640EA0A0041EA0B0153465A460843C6
:1036C00013D0114653EA010019D0C8F14002504608
:1036D00000F00DF905460E4650465946424600F0A8
:1036E000F7F8084305D0012004E020463946BDE83C
:1036F000F08D0020054346EAE0762C4337430A98D4
:103700006305E40AA0EB08000022FD0A44EA4754DE
:103710000A3002D500200146E9E701051019694188
:10372000DDE9084500196941BDE8F04DA2E72DE942
:10373000FE4F804681EA0300C00F0C46009021F046
:10374000004123F00045B8EB0200A94105D24046F4
:10375000214690461C460B46024623F0004010438B
:1037600047D0270DC7F30A00C3F30A510290401A4D
:10377000019040286BDAC3F3130040F4801B0098DB
:10378000924620B10023D2EB030A63EB0B0B0198A6
:103790005946C0F14002504600F09AF806460D46E0
:1037A00050465946019A00F0B2F810EB080061410A
:1037B000002487EA115284EAE7731A4340D0009A42
:1037C00062B3019A012A4FEA075215DC001B61EB34
:1037D00002014FF0004202EA0752CDE90042001C0C
:1037E00041F5801132462B46FFF753FF03B0BDE889
:1037F000F08F40462146F9E7001B61EB0201001CF7
:1038000041F5801300185B412018A2F5001747EB23
:10381000030140EAD570B6196D4111E06D084FEA19
:10382000360645EAC0754FEA0752001B61EB0201FC
:10383000001C41F5801149084FEA30000019514140
:1038400032462B4603B0BDE8F04FFFF713BF009898
:10385000012240000023D0EB020263EBE0730098EA
:1038600021464FEAE074B8EB000061EB0401E9E7A0
:1038700083F000435BE781F0004158E7C1F30A524F
:10388000C1F3130140F2FF3341F480119A4202DA8E
:1038900000200146704740F233439A42A2F233427D
:1038A00002DC524200F023B800F012B8064C074D7B
:1038B00006E0E06840F0010394E807009847103400
:1038C000AC42F6D3FFF71AFCE4BB000814BC0008B6
:1038D000202A04DB203A00FA02F1002070479140D0
:1038E000C2F1200320FA03F3194390407047202AC5
:1038F00004DB203A21FA02F00021704721FA02F39A
:10390000D040C2F120029140084319467047202A56
:1039100006DBCB17203A41FA02F043EAE07306E0F7
:1039200041FA02F3D040C2F1200291400843194607
:10393000704770B58C1810F8015B15F0070301D1C2
:1039400010F8013B2A1106D110F8012B03E010F802
:10395000016B01F8016B5B1EF9D12B0705D4002325
:10396000521E0DD401F8013BFAE710F8013BCB1AC7
:10397000921C03E013F8015B01F8015B521EF9D5BC
:10398000A142D8D3002070BD40F2C17CC2F2000C2D
:10399000604740F2213CC2F2000C604740F6111C27
:1039A000C2F2000C604740F6650CC2F2000C6047A2
:1039B00040F2514CC2F2000C604740F2496CC2F236
:1039C000000C604740F2B15CC2F2000C604740F26C
:1039D000E16CC2F2000C604740F2A56CC2F2000C30
:1039E000604740F2815CC2F2000C604740F2511C1B
:1039F000C2F2000C604740F2811CC2F2000C60472A
:103A000040F28D0CC2F2000C604740F2151CC2F26D
:103A1000000C604740F2611CC2F2000C604740F2AB
:103A2000711CC2F2000C604740F25D2CC2F2000C27
:103A3000604740F2A91CC2F2000C604740F23D2CE6
:103A4000C2F2000C6047002904D0816841F00401F3
:103A500081607047816821F0040181607047000037
:103A60002DE9FC47082001F0DBFF0028FAD068466A
:103A700001F043FA4FF4805000904FF0030A8DF8A4
:103A800004A000268DF80760DFF8A8906946484634
:103A900001F0DFF9684601F030FA4FF480770097C3
:103AA00001208DF804008DF806608DF805608DF812
:103AB00007606946484601F0CCF9DFF87C800723AF
:103AC00001221221404600F087F83946484601F0AD
:103AD00012FA1A4D2E600024404600F0E9F8022147
:103AE000404600F042F80028F9D0404600F03AF88D
:103AF000296808442860641C0A2CEDD328680A2130
:103B0000B0FBF1F02860684601F0F7F90097022059
:103B10008DF804008DF806608DF805A069464846CA
:103B200001F097F903220821484601F0CBF9BDE8DE
:103B3000FC8700000004024000240140741E0020A5
:103B4000002904D0816841F00101816070478168DB
:103B500021F0010181607047826822F0F0020A437F
:103B600082607047806D80B2704702460020126804
:103B70000A4200D00120704730B542680F4B1A400E
:103B80000C790B6842EA04221343436083680C4AB1
:103B90001340D1E9034222434D798C6844EA45043D
:103BA00022431A438260026B22F0F872097D491E9B
:103BB000C9B242EA0151016330BD0000FFFEFFFCC3
:103BC000FDF7FFC0002A03D042680A4342607047F5
:103BD00042688A434260704770B507251D290AD99B
:103BE000C66DA1F11E0404EB4404A540AE43A340FE
:103BF0001E43C66521E013290AD9C668A1F1140441
:103C000004EB4404A540AE43A3401E43C66014E049
:103C100009290AD90669A1F10A0404EB4404A54064
:103C2000AE43A3401E43066107E0466901EB410431
:103C3000A540AE43A3401E4346611F23072A09D275
:103C4000046C521E02EB820293409C4391400C4351
:103C5000046470BD0D2A09D2C46BD21F02EB82022C
:103C600093409C4391400C43C46370BD132A09D216
:103C7000846B0D3A02EB820293409C4391400C43CB
:103C8000846370BD192A09D2446B133A02EB820295
:103C900093409C4391400C43446370BD046B193ABC
:103CA00002EB820293409C4391400C43046370BD3D
:103CB000816841F08041816070470021016001719D
:103CC000417181604FF04072C26001610121017554
:103CD000704700BFFEE7C1B2000A40EA012070470A
:103CE00010B5044900200860032003F02BF90120DF
:103CF00010BD00006015002010B50C46402C0FD2FE
:103D0000084A002111602246C02104F02DFB214603
:103D1000012003F03BF9012003F05EF9012010BD02
:103D2000002010BD5C15002001490020086070478C
:103D3000007C004010B500244FF4800001F03EF8F4
:103D4000002834D04FF4800001F032F818480068A1
:103D500068B3002001F0D4FE1648006884B214480D
:103D60000068022803D9102C0ADD641008E04FF621
:103D7000FF7000EA4404B4F5F05F01DD4FF4005435
:103D80000B480068192800D9102400200849086051
:103D900000BF002002F044FF0128FAD1204602F0C3
:103DA000DFFE00BF012002F03BFF0128FAD110BD69
:103DB000C42100201428004010B5064B1968064A9B
:103DC0001140D0E9002480682243084302431A606E
:103DD00010BD0000007C0040FFEF03FF2DE9F84F0D
:103DE000002000904BF6BF7748F28008614E624D8C
:103DF00040F68F7ADFF8849148F60F7B604C2CE018
:103E0000088800F00F0089F8000078B304EB800107
:103E1000D1F8002C0092BDF8002012040AD5D1F888
:103E2000002C02EA0A02C1F8002C5649401E51F843
:103E300020008047BDF8000000060ED599F800006C
:103E400004EB8001D1F8002C02EA0B02C1F8002C2F
:103E50004D49401E51F820008047464844300068D4
:103E60004A4908800004CBD4BDE8F88FFFE73068EA
:103E70002880288800F030006880288800F44050AE
:103E800028803068384080F4005080F0200040EAFC
:103E9000080030600888C00620D4306800EA0B00B3
:103EA000306001F09FF8306838402988C90401D596
:103EB00080F480502988890401D580F400506988F5
:103EC000C90601D580F010006988890601D580F007
:103ED000200080B240EA08003060C5E730680090FA
:103EE000BDF80000000520D5306800EA0A00306007
:103EF00003F072F9306838402988C90401D580F48C
:103F000080502988890401D580F400506988C90649
:103F100001D580F010006988890601D580F0200065
:103F200080B240EA080030609EE7BDF8000000045F
:103F300093D5306800EA0A00306001F019FD30685E
:103F400038402988C90401D580F480502988890423
:103F500001D580F400506988C90601D580F01000B1
:103F60006988890601D580F0200080B240EA080007
:103F7000306079E7005C0040B6180020A6180020E9
:103F80000050004010190020F4180020EA1800200A
:103F9000810008480844D0F8001C490409D5D0F82D
:103FA000001C48F68F7211404CF280021143C0F899
:103FB000001C704700500040810008480844D0F8B9
:103FC000001C490609D5D0F8001C48F68F72114034
:103FD00048F2C0021143C0F8001C70470050004076
:103FE000810006480844D0F8001C48F68F62114052
:103FF00048F280021143C0F8001C70470050004096
:10400000054A002903D05168014351607047516847
:104010008143516070470000002004E02DE9F04723
:10402000DFF89880D8F8001001F1100528880E7A82
:10403000234F4FF03009002801D1042E04D0AC8862
:10404000A04215D8042614E01E480178012903D0A7
:104050000726102038802BE01B4A002112681B4BDA
:1040600092B2921C43F81210A7F8009001701FE062
:104070000226844200D90446A968A0B28847824635
:10408000002000F063FF0146A2B2504604F06CF934
:10409000A1B2002002F07AFF2888001B28806888DF
:1040A00020446880A7F8009009494FF440500880E8
:1040B000D8F800000672BDE8F0870000A8180020BC
:1040C000B8180020A2180020505C0040006000409A
:1040D000B61800202DE9F041214E346810342088B4
:1040E000A168002915D0A0B1A588854200D9054650
:1040F000A8B2884707462088401B20806088284453
:104100006080002000F002FF0146AAB2384601F0AC
:1041100055FC2088134F302538B1134928020880F8
:104120000021084602F032FF3D802088A1888842A5
:1041300004D3316803200872BDE8F08118B13168FA
:1041400005200872F8E73168062008720748002148
:104150000068074A80B2801C42F810103D80EBE7EF
:10416000A8180020B8180020B6180020505C0040A5
:10417000006000402DE9F843634E30684278002427
:10418000624D062A296801D08AB117E002785206EA
:1041900069D18078012804D0022804D0032804D0F3
:1041A00061E0CC695FE00C6A5DE04C6A5BE04388EB
:1041B00023B9C388022B01D1037923B1082A39D04E
:1041C0000A2A3CD04FE00278530601D1838833B1EC
:1041D00002F07F02012A04D0022A0CD043E04C4CAA
:1041E00041E08A6940790021904710BB3068807AAD
:1041F000F8B1474C37E0417901F00F0001F070024F
:104200000B06444907D501EB8001D1F8001CC1F32E
:104210000111090106E001EB8001D1F8001CC1F396
:10422000013109033C4B1B7883421CD90AB901B107
:10423000374C18E00078400615D1384C13E002786E
:1042400002F07F02012A0ED1827A62B1428852B90D
:10425000027942B9C288012A05D18A6940790021D0
:10426000904700B92E4C09274FF000083CB1306848
:10427000A0F8128084610020A047002006E0296891
:104280003068096940788847032816D031680A8A5F
:10429000A2F57F43FF3B0DD0022811D082B10878F0
:1042A00000062AD5C8880090009882420CD9009850
:1042B00008821AE00F72BDE8F88330680772FAE7E7
:1042C0004FF008000872F6E70FD22868154B90F8F7
:1042D0002C00824202D283F8008006E0B2FBF0F4A8
:1042E00000FB142008B901201870286890F82C00F1
:1042F0008882BDE8F843FFF791BE032008720A499F
:1043000000030880D7E70000A8180020AC180020A0
:10431000CD73000800500040981900205D7300081C
:10432000A5730008A2180020B618002070470000EE
:104330002DE9F84FDDF82890074688469B46002572
:1043400008F106007E1C44004FF47A7AB9F1000FA0
:1043500022D189A1894804F03DF9E0B2394601F043
:104360007FF987A1854804F035F9F1B2E0B201F098
:1043700077F98448834505D25A4683A17F4804F0E3
:1043800029F905E0BBFBFAF280A17C4804F022F990
:104390003946404601F07CF9B9F1010F40D17D4822
:1043A000D0F8D00050B35846FFF77CF883467948E0
:1043B000D0F8D800FFF776F801465846FEF753FFCD
:1043C000834675A16D4804F005F9E0B2394601F065
:1043D00047F972A1694804F0FDF8F1B2E0B201F0CA
:1043E0003FF96F4883450EDC5846FFF774F80246E4
:1043F0000B466CA1614804F0EDF80DE0584604F05E
:1044000065FF8346DDE75846FFF765F802460B4631
:1044100066A15A4804F0DEF83946404601F038F902
:10442000DFF890B1B9F1020F24D163A1534804F031
:10443000D1F8E0B2394601F013F958A14F4804F021
:10444000C9F8F1B2E0B201F00BF94E48DBF84C20AC
:10445000401E824204D84CA1484804F0BBF805E055
:10446000B2FBFAF249A1454804F0B4F83946404697
:1044700001F00EF9B9F1030F3DD14648D0F8DC0048
:10448000022810D24DA13D4804F0A4F8E0B239460C
:1044900001F01CF94AA1394804F09CF8F1B2E0B2ED
:1044A00001F014F90FE045A1344804F093F8E0B2AC
:1044B000394601F0D5F842A1304804F08BF8F1B24A
:1044C000E0B201F0CDF82F48DBF8B420824208D2E8
:1044D0002DA12A4804F07EF83946404601F0D8F86C
:1044E00009E0B2FBFAF229A1244804F073F8394636
:1044F000404601F0CDF808F1050000EB400017221E
:1045000002EB800205234FF0010AF90003EB800063
:104510000B46CDF800A001F01DF80B98012828D11A
:10452000001F00EB07193F0108EB0500401E00EBE0
:104530008000400000EB450404F10A0620463B469B
:1045400032463946CDF800A001F004F82246204654
:104550004B463946CDF800A000F0FCFF324630460D
:104560004B463946CDF800A000F0F4FF6D1C062D37
:10457000DAD3BDE8F88F0000EAE2E000401A00203C
:10458000F1E5EA0040420F00253669002535694B08
:10459000000000008C1E0020ECEAC70020F720007D
:1045A00000007A4425362E326600000025362E3073
:1045B00066000000981F0020ECEAD000F7E0F10050
:1045C000F1EC32002DE9FF4F8146DDE90E650F4623
:1045D00014469846CB460EE0A24608E00AF0FF01DA
:1045E0000BF0FF00002201F007F80AF1010AC245B2
:1045F000F4D90BF1010BBB45EED9A7EB09000290F2
:10460000A8EB040A0D990A2059B1BAFBF0F0019009
:10461000002002994FF0010C0CEB5102A0490B6AEB
:1046200053E0BAFBF0F0019000209D49029A521C21
:104630000B6A0AE0109961B10146DDF804C036F852
:104640001110614500D90191401C9042F2D3BB4644
:104650001FE0854201D3291AEFE7411BC1EB93010B
:10466000EBE71098C0B1A7EB0B0036F8100070B163
:10467000019900FB0AF0B0FBF1F0A8EB0003012068
:104680000090A7EB0B000246414600F063FFABF140
:10469000010BCB45E5D83FE0A7EB0B00A84201D8C2
:1046A000281A04E0411B7E48006AC1EB900036F8EE
:1046B0001000DCE7109961B10146DDF804B036F86E
:1046C0001110594500D90191401C8242F2D8BB46D5
:1046D00020E0854201D3291AEFE7411BC1EB93018A
:1046E000EBE71098E0B1A7EB0B0020F00100305A87
:1046F00070B1019900FB0AF0B0FBF1F0A8EB0003E8
:1047000001200090A7EB0B000246414600F022FF7B
:10471000ABF1010BCB45E4D81098022818D060E02B
:10472000A7EB0B01B5EB510F02D3A5EB510205E04E
:104730005B48C5EB5102006AC2EB900200204B08B7
:104740005749096AB3EB910FD2D236F81200CFE77E
:10475000534E0125BC3600953068E31E421CE11E15
:1047600000F0F8FE00953068A31E421CA11E00F068
:10477000F1FE00957068E31E421CE11E00F0EAFEA7
:1047800000957068A31E421CA11E00F0E3FE009578
:10479000B068E31E421CE11E00F0DCFE0095B0682C
:1047A000A31E421CA11E00F0D5FE0095F068E31E7A
:1047B000421CE11E00F0CEFE0095F068A31E421CD4
:1047C000A11E00F0C7FE00953069E31E421CE11EE9
:1047D00000F0C0FE00953069A31E421CA11E00F02F
:1047E000B9FE0125A31E4A4621464846009500F021
:1047F000B1FE08F102034A4641464846009500F0E2
:10480000A9FEA31E3A4621463846009500F0A2FEB6
:1048100008F102033A4641463846009500F09AFEF8
:1048200004EB5A05E9B201224846039500F0E4FE84
:10483000E9B20122384600F0DFFE029D002D2DD0A6
:10484000A80711D109EB0506F0B20122214600F0BC
:10485000D3FE03980122C1B2F0B200F0CDFEF0B257
:104860000122414600F0C8FE680714D1564696B1B1
:104870004FF0030B09EB0507B6FBFBF00BFB1060D9
:1048800030B9A8EB0600C1B2F8B2012200F0B4FEC4
:10489000761E002EF0D16D1E002DD1D1BDE8FF8F08
:1048A0008C1E002078B50B46154611490A6A9108FE
:1048B000104C94F8544091FBF4F1B2F5CA7F01D347
:1048C000441801E000EB4104A01C98420ED80126D8
:1048D000AB1EA21CA91E2046009600F03BFEEB1E5C
:1048E000A21CE91E2046009600F034FE78BD0000B0
:1048F0008C1E0020981F002001490120086070478D
:104900005C15002010B5084901200860032000F064
:104910000DFB064908600246BDE810404FF488715F
:10492000034801F04BB8000060150020E418002097
:104930002426002030B585B00121022001F07AFA4A
:1049400000258DF80C5001248DF80F40029402A927
:10495000124800F07EFA0121084601F095FA002184
:10496000012002F039FA00948DF804500C208DF8E3
:1049700005008DF80640684600F02AFA06208DF8FA
:1049800010000F208DF811008DF812008DF81340E3
:1049900004A800F035FF05B030BD0000000402405F
:1049A00010B5012000F00AFA00B3012000F000FA6F
:1049B0000F480078D0B90F48C07878B10E488069A8
:1049C00030B90E48008840F004000C49088005E02A
:1049D0000A48008840F00200084908800120084980
:1049E000087000200749486004F058FC10BD000022
:1049F000A0180020841F00208C1E00209218002088
:104A0000A1180020781F002070B586B00121022077
:104A100001F010FA00268DF8106001248DF8134083
:104A20000225039503A9124800F013FA0121084654
:104A300001F02AFA0121084602F0CEF901958DF81D
:104A400008600C208DF809008DF80A4001A800F0DC
:104A5000BFF907208DF814000F208DF815008DF890
:104A600016008DF8174005A800F0CAFE06B070BD0C
:104A70000004024070B5002400250026022000F04A
:104A80009DF900284FD028480078002848D12748B1
:104A9000007A40B12548407A28B90120234948725C
:104AA00006F060FD08E02248C07828B1214800885F
:104AB00040F001001F4908801D48C078E8B9002572
:104AC00012E005E01C48864201D9012407E0761C6B
:104AD00002211A4800F006FA08B9002CF2D000BFF3
:104AE000012C00D103E06D1C15488542E9D300BFBD
:104AF000012C02D1002404F0BBFB0D4840790128B1
:104B000006D106F05DFD0020094948710120887139
:104B100001200C49087000200449486004F0BEFBE5
:104B2000022000F045F970BDA0180020781F002079
:104B3000841F002092180020C0D40100000402400D
:104B4000400D0300A118002070B586B0012102209D
:104B500001F070F900268DF8106001248DF81340E3
:104B60000425039503A9124800F073F901210846B2
:104B700001F08AF90221012002F02EF901958DF849
:104B800008600C208DF809008DF80A4001A800F09B
:104B90001FF908208DF814000F208DF815008DF8EE
:104BA00016008DF8174005A800F02AFE06B070BD6B
:104BB0000004024010B5042000F000F900B31148D1
:104BC0000078D0B91048C07878B11048806930B901
:104BD0000F48008840F002000D49088005E00C48AD
:104BE000008840F004000A49088001200949087043
:104BF00000200949486004F051FB042000F0D8F877
:104C000010BD0000A0180020841F00208C1E002072
:104C100092180020A1180020781F002030B585B020
:104C20000121022001F006F900248DF80C408DF8D6
:104C30000F402025029502A9124800F00AF901212F
:104C4000084601F021F90521012002F0C5F8009580
:104C50008DF8044008208DF8050001248DF80640E9
:104C6000684600F0B5F817208DF810000F208DF879
:104C700011008DF812008DF8134004A800F0C0FD5B
:104C800005B030BD0004024010B5202000F096F8B9
:104C900090B3202000F08CF82148007860BB2148B8
:104CA000D0F8DC00022810D21F482049098830F8CB
:104CB0001100401C1C491D4A128821F812001C4892
:104CC0000068401C1A49086004E01A480068401C4B
:104CD000184908601348C06970B11748007A10B1CC
:104CE0001548407A40B11548C07828B10D48D0F831
:104CF000D00008B906F0EEFB4FF4007000F05EF84B
:104D000060B14FF4007000F053F80548007828B9FE
:104D100006F0E0FB034840680849C86010BD000089
:104D2000A01800208C1E0020D421002096180020FE
:104D3000C4240020CC250020781F0020841F0020E0
:104D400030B585B00121022001F074F800248DF8FF
:104D50000C408DF80F404FF40075029502A91348DE
:104D600000F077F80121084601F08EF809210120B2
:104D700002F032F800958DF8044008208DF8050007
:104D800001248DF80640684600F022F817208DF8BF
:104D900010000F208DF811008DF812008DF81340CF
:104DA00004A800F02DFD05B030BD00000004024055
:104DB00001490860704700001404014001460020CA
:104DC000024A12680A4200D00120704714040140D0
:104DD00030B51B4A83790168002B2AD013688B43B6
:104DE0001360111D0B680468A3430B600179114423
:104DF0000B68046823430B60114C08342168036876
:104E000099432160231D19680568A94319604179F8
:104E1000102905D011440A68006802430A6030BDB9
:104E20002168026811432160196800680143196014
:104E300030BD0079104402688A43026030BD000032
:104E4000000401400021016001710C224271817156
:104E500070472DE9F041002201274FF0030C07FABB
:104E600002F50B682B40AB4227D1066853000CFAC1
:104E700003F4A64391F8048008FA03F848EA060808
:104E8000C0F800800E79012E01D0022E0FD1866865
:104E9000A64391F8058008FA03F848EA0608C0F826
:104EA00008808688AE438D79954035438580C568F6
:104EB000A543CC799C402C43C460521C102ACED30D
:104EC000BDE8F08110B54B07DB0E9A40C90800EB36
:104ED0008100016A0F249C40A1430162016A1143D1
:104EE000016210BD02460020128A0A4200D0012051
:104EF000704741837047018370474FF6FF7101602F
:104F00000021017141718171C171704705490968C2
:104F100089B201EBC0000449001D31F8100080B2D5
:104F200070470000505C004000600040054909687F
:104F300089B201EBC0000449801D31F81000C0F3B4
:104F400009007047505C0040006000400449096857
:104F500089B201EBC000034931F8100080B27047FC
:104F6000505C00400060004010B50A48016D446D7F
:104F7000406E084400280BD00822074900F062F870
:104F8000054920460422BDE81040103100F05AB80F
:104F900010BD00000000F81FCA18002000BFFEE787
:104FA00002494CF6CC4008607047000000300040D9
:104FB00002494AF6AA20086070470000003000400D
:104FC0000149486070470000003000400149886096
:104FD0007047000000300040014908607047000041
:104FE0000030004010B5144C2068017A02290AD024
:104FF000042908D006290BD0082021680872BDE8D2
:10500000104000F037BDFFF709F82068007AF4E798
:105010004178052909D10178490606D1C07801F007
:1050200023FF06480068006A8047054800688068DA
:1050300080470820E1E70000A8180020B0180020F1
:10504000AC180020F0B500230A25302637270024AD
:1050500012E0B5EB107F04D906EB107C01F813C009
:1050600003E007EB107C01F813C0000101EB430CD7
:105070008CF801405B1CDBB29342EAD3F0BD000028
:105080002DE9F8470446DDF824A00D4690469946E0
:105090000026BAF1640F01D94FF0640A01274B468C
:1050A000424649462046009700F054FA4B46424695
:1050B00029464046009700F04DFA4B4622462946C5
:1050C0002046009700F046FA2B46424629462046E5
:1050D000009700F03FFA6B1EA8F10702691EE01D61
:1050E000009700F037FAAB1EA8F10702A91EE01DD9
:1050F000009700F02FFA4C48C07940B1A9EB0505A4
:10510000681E00FB0AF06421B0FBF1FA78E0E81CAD
:10511000C1B2601D0646C0B2012200F06DFA2B1D1F
:10512000621D291D201D009700F014FA6B1D621DE1
:10513000691D201D009700F00DFAAB1D621DA91D11
:10514000E01C009700F006FAEB1D621DE91DE01C53
:10515000009700F0FFF905F108031946621DA01C35
:10516000009700F0F7F905F1090304F10802194668
:105170009046A01C009700F0EDF905F10A031946CE
:105180004246A01C009700F0E5F905F10B03194613
:105190004246601D009700F0DDF905F10C03194649
:1051A000E21D601D009700F0D5F905F10D031946C9
:1051B000E21D601D009700F0CDF905F10E031946C0
:1051C000A21D601D009700F0C5F905F10F031946F7
:1051D000A21D601D009700F0BDF91035E9B2F0B2D4
:1051E000BDE8F847012200F007BAA9EB06014B1E03
:1051F000491EA8F10102601C009700F0ABF9761C73
:105200005645F2D36D1E00260AE0A9EB05014B1EA0
:10521000491EA8F10102601C009600F09BF96D1E6A
:105220005545F2D8BDE8F887841F0020F0B500216D
:10523000154B164C00EB80027F2810DD03F5F2764B
:1052400050183044A0F5805090F8407C1868451CF8
:105250001D602754491CC9B20529F1D30DE00A4E3F
:10526000361D5018304410F8A07C1868451C1D608D
:105270002754491CC9B20529F3D318680022411CE0
:1052800019602254F0BD000064150020551A00205A
:10529000F0B500222D4FDFF8B8C000EB80067F2864
:1052A00007DD2C4BB1181944A1F5805191F8401C31
:1052B00005E0274BB1181B1D194411F8A01C01F083
:1052C000010303EB430401F0020303EB430344EA4D
:1052D000430401F0040303EB430344EA830401F0B5
:1052E000080303EB430344EAC303090901F0010483
:1052F00004EB440501F0020404EB440445EA4405D0
:1053000001F0040404EB440445EA840401F00801BC
:1053100001EB410144EAC101DCF800403B553D1975
:105320006B7085F8801085F88110A41CCCF80040C3
:10533000521CD2B2052AB2D3DCF800100022481C5D
:105340007A54411CCCF800103A54F0BD551A002094
:105350006415002048170020F0B50021164B174CAB
:1053600000EB80027F2811DD03F5F2755018284408
:10537000A0F5805090F8400CC6431868471C1F6089
:105380002654491CC9B20529F0D30EE00A4F3F1D2F
:105390005018384410F8A00CC5431868461C1E600D
:1053A0002554491CC9B20529F2D31868FF22411CB3
:1053B00019602254F0BD000064150020551A002029
:1053C0000020054A00214FF480631154401C98428C
:1053D000FBDB00F093B90000551A00200020044ABE
:1053E00000214FF480631154401C9842FBDB70474E
:1053F000551A0020491EC901401E00EB400001EB78
:1054000040000149086070476415002070B54F4C9A
:1054100010202083082565830A2003F089FF258357
:105420000A2003F085FF642003F082FF002006F0CD
:10543000C7F80121202000F0FFF80121002000F032
:10544000FBF80121B02000F0F7F8414CA06910B141
:10545000012809D010E00121C82000F0EDF8012159
:10546000A02000F0E9F807E00121C02000F0E4F8F6
:105470000121A12000F0E0F80121002000F0DCF87B
:105480000121102000F0D8F80121402000F0D4F8CC
:105490000121812000F0D0F8207A052100EB800066
:1054A00001EB4000C0B2012100F0C6F8D4F8E800DA
:1054B00010B1012805D008E00121A62000F0BCF8B9
:1054C00003E00121A72000F0B7F80121A82000F097
:1054D000B3F801213F2000F0AFF80121A42000F033
:1054E000ABF80121D32000F0A7F80121002000F043
:1054F000A3F80121D52000F09FF80121F02000F051
:105500009BF80121D92000F097F80121222000F01A
:1055100093F80121DA2000F08FF80121122000F029
:105520008BF80121DB2000F087F80121202000F01A
:1055300083F801218D2000F07FF80121142000F074
:105540007BF8BDE87040012006F03AB80000024048
:105550008C1E00202DE9F04F04460D4693461E4652
:10556000802C33DCBBF1800F30DC402D2EDC402E54
:105570002CDC711BABEB04004FF0FF39002902DA81
:105580004942CA4601E04FF0010A002801DA4042D0
:1055900001E04FF001094F004FEA4008E9B2E0B2E4
:1055A000099A00F029F8B84512DDA7EB68060BE070
:1055B000002E02DB5544A6EB08064C443E44E9B2FB
:1055C000E0B2099A00F018F85C45F1D1BDE8F08F1F
:1055D000A8EB670B0CE0BBF1000F02DB4C44ABEB1C
:1055E000070B5544C344E9B2E0B2099A00F004F84D
:1055F000B542F0D1EAE7000070B5802819D84029FB
:1056000017D8CB0800EBC3140A4D285D21F007061C
:105610000123891B8B4022B1012A04D0022A05D024
:1056200006E0984304E00343D8B201E04340D8B217
:10563000285570BD551A002070B51025074C04225E
:10564000012905D06583228301F0B4FB258370BD59
:105650006583628301F0AEFB258370BD00000240CC
:1056600030B50024152810D808290ED8FFF7C2FE3F
:10567000064D285D08B1FFF7D9FD641CE4B2152C76
:10568000F7D3BDE8304003F0FDBD30BD401A002027
:1056900070B502460024152A14D8082912D81046DD
:1056A000FFF7A8FE084DC2F1150605E0285D08B118
:1056B000FFF7EEFD641CE4B2A642F7DCBDE87040E3
:1056C00003F0E0BD70BD0000401A002030B500249A
:1056D000152810D808290ED8FFF78CFE064D285D36
:1056E00008B1FFF739FE641CE4B2152CF7D3BDE80E
:1056F000304003F0C7BD30BD401A002070B5002512
:105700000E4E05F1B000C0B20121FFF795FF012157
:105710000020FFF791FF01211020FFF78DFF7F246C
:1057200004EBC5100221305CFFF786FF641E002CDD
:10573000F6DA6D1C082DE4DB70BD0000551A002060
:105740000548817A0548002902D00521016070478B
:10575000012101607047000008260020C0190020C8
:105760007CB54FF400712248FFF7BCFB0546684644
:10577000FFF7C3FB00208DF8040002208DF807001E
:1057800003208DF805004FF400700090694618481A
:10579000FFF75FFB002600E0761C42F210708642A5
:1057A000FAD34FF400711248FFF79CFB0446012026
:1057B0008DF8070069460E48FFF74BFB2CB9012D09
:1057C00003D102200B49C87110E024B91DB9002093
:1057D0000849C8710AE0012C05D1012D03D101202F
:1057E0000449C87102E004200249C8717CBD000070
:1057F00000000240841F002000BFFEE77047704792
:1058000030B50F23C27801250178002A1FD0154A30
:10581000126802F4E062C2F5E062C2F30722C2F14C
:105820000404D3404278A24084781C4014432201EF
:1058300001F1E02181F80024007800F01F018D4083
:105840004009800000F1E020C0F8005130BD01F0B7
:105850001F0085404809800000F1E020C0F8805119
:1058600030BD00000CED00E0024908430249086029
:10587000704700000000FA050CED00E0024A1140FC
:10588000014302480160704780FFFF1F08ED00E000
:1058900070B50220314D29684C780A78530606D03D
:1058A00002F07F0101292ED0022931D03AE0092CE3
:1058B00006D0052C07D0032C12D0012C18D031E0D3
:1058C00001F0E2FD2EE0C8787F2805D8887818B965
:1058D000888808B9887A08B108203CE0002021E0D7
:1058E000CA78012A1ED18988E1B901F0E9FD19E0E1
:1058F000CA78012A16D18A88A2B9497A890611D5AF
:1059000001F0A4FC0EE00B2C0CD101F035FE09E0F7
:10591000012C02D0032C03D004E001F097FC01E03D
:1059200001F0E0FD30B10E49E0B2096849698847ED
:10593000032802D018B108200DE009200BE0062052
:10594000084900220968084B89B2891C43F81120D4
:10595000064A302111802968087270BDA8180020FD
:10596000AC180020505C004000600040B8180020D7
:1059700010B5104C2068007A02280ED004280CD0F4
:1059800003280CD005280AD007280DD0082021684C
:105990000872BDE8104000F06DB80820F7E7FEF788
:1059A00099FB2068007AF2E703480068C0688047E6
:1059B0000820ECE7A8180020AC180020521C520860
:1059C000064B03EB4101002A06D031F8043B20F8D6
:1059D000023B521E002AF8D17047000000600040D0
:1059E0000A4B1A6822F0030202431A600848026850
:1059F00042F004020260012905D020BF016821F0B5
:105A000004010160704730BFF8E7000000700040FB
:105A100010ED00E0014988627047000000000E426E
:105A200001460020024A52680A4200D00120704715
:105A300000700040014908617047000000000E42FC
:105A4000014908627047000000000E4201494862A7
:105A50007047000000000E42044A116821F4C05152
:105A6000014321F00C0010607047000000700040FE
:105A70007047000010B50B4890F82C10002001F082
:105A800027FA09480068007A082805D1074A410228
:105A90001180074A10211180092801D0002010BD73
:105AA000012010BD48190020A8180020B6180020B9
:105AB000B818002010B5064C01202060211D0020E0
:105AC000086002F031F803202060002010BD0000C3
:105AD000405C004010B5012002F026F80121064884
:105AE0000160064A00210160031D19604FF4E05176
:105AF00011800160002010BD405C0040B4180020FF
:105B000010B50446012C1BD11949087100F034F876
:105B10001848008840F00100164908800122002141
:105B20001448143801F0E6FE01220221114814380D
:105B300001F08EFF02210F48143801F0E6FE16E056
:105B400000200B490871002202210A48143801F094
:105B50007FFF002211460748143801F0CBFE0221D6
:105B60000448143801F0D1FE022000F005F810BD01
:105B7000C42100201408014010B586B0044624B1A9
:105B8000012C4CD0022C79D16BE00121084600F0A9
:105B90007BF90121C80700F05BF90121102001F019
:105BA0002FF94FF4402002904FF4600003904FF41F
:105BB0008050019000BF0820FFF732FF0128FAD182
:105BC00001A8FEF7F9F800BF2E48006800F4E010C5
:105BD0000028F9D004A8FFF735F94FF480000490AD
:105BE00000208DF814000C208DF8150001208DF890
:105BF000160004A8FFF7ECF816208DF8000000202E
:105C00008DF802008DF8010001208DF80300684630
:105C1000FFF7F6FD4FF48000FFF7CAF82FE00121EF
:105C2000C80700F015F94FF4402002904FF46000CF
:105C300003904FF48050019000BF0820FFF7F0FE62
:105C40000128FAD101A8FEF7B7F800BF0D48006897
:105C500000F4E0100028F9D04FF48000FFF7A8F816
:105C60000DE0FEF761F800214FF0004000F0F0F881
:105C70004FF48000FFF79CF801E0FFE700BF00BF92
:105C800006B010BD007C004070B500BF002501F0DB
:105C9000A3FC2748406A0F2802D9082024494862FB
:105CA00024484068B0F52F6F05D32248406841F280
:105CB0006801884202D941F2680501E01D48456843
:105CC0004FF400711C48FFF70DF948B11848406ABD
:105CD00041F26801484341F23011B0FBF1F406E0B3
:105CE0001348406A41F268014843B0FBF5F4134899
:105CF00000681349B0FBF1F0401E86B20022314625
:105D0000104801F0D3FE21460E4801F0D4FE0020D9
:105D100000F072FF202000F023FF00BF012000F000
:105D20007FFF0128FAD10121800300F0C1FD70BD81
:105D30008C1E0020741E0020000402400C0A00206B
:105D400000093D000008014000B587B00121042092
:105D500000F09AF801A801F0A3FE04A801F0DCFE0F
:105D60006020ADF804000120ADF806002D48406A1F
:105D700002900020ADF80C002B4800682B49B0FBC6
:105D8000F1F0401E80B2ADF810000020ADF8180010
:105D90004FF40C7005900020ADF81200244801F07B
:105DA000C3FD0821224801F075FE0121204801F0C1
:105DB00095FD04A91E4801F081FE01A91C4801F0CF
:105DC00051FE08211A4801F065FE0121184801F032
:105DD00085FD19208DF8000000208DF801008DF858
:105DE000020001208DF803006846FFF709FD01223B
:105DF00002210F4801F02CFE0D481430008840F0BD
:105E000001000B491431088000221146084801F0B6
:105E100071FD0020FFF7B0FE0121054801F078FD7B
:105E200007B000BD8C1E00200C0A002000093D00B8
:105E300000080140054A002903D0116801431160A0
:105E40007047116881431160704700001C380240A0
:105E5000054A002903D01168014311607047116899
:105E6000814311607047000024380240054A002930
:105E700003D01168014311607047116881431160BC
:105E80007047000018380240054A002903D0116805
:105E90000143116070471168814311607047000031
:105EA00020380240054A002903D0116801431160DF
:105EB0007047116881431160704700001438024038
:105EC000024600205109012909D00749096802F05A
:105ED0001F02012393400B4200D00120704702496A
:105EE00034390968F3E7000034380240024800689A
:105EF00000F00C007047000008380240034A1168A7
:105F000021F0F001014311607047000008380240A1
:105F1000024900220A7008707047000002380240EF
:105F20000149086070470000000047420249002212
:105F30000A70087070470000353802400149086255
:105F40007047000000004742034A116821F4604195
:105F5000014311607047000004380240034A116891
:105F600021F4E061014311607047000008380240ED
:105F7000034A116821F4605141EAC0001060704783
:105F80000838024001490866704700000000474297
:105F90001143014301480170704700000A38024074
:105FA0000149086070470000D8064742C0F301412C
:105FB000032907D1094B196821F0C04100F0C04204
:105FC0000A431A60054934310A6822F440320A60F3
:105FD0000A6800F4403002430A607047003802400B
:105FE0000149086070470000DC064742034A116817
:105FF00021F003010143116070470000083802409E
:1060000038B500220092144CCA222260532222602A
:10601000114A1C3A002904D0116801431160012083
:1060200015E01168814311600B4A183A5514116844
:1060300001EA1021009B5B1C0093009BAB4201D046
:106040000029F4D0116811EA102F03D00120FF219C
:10605000216038BD0020FAE7242800400021C170EB
:10606000017041708170816001220273416070474C
:1060700010B54FF40030FEF79BFE4FF4005000F0D7
:10608000D1FB00285CD04FF4005000F0D9FAFD4855
:106090000078002854D101F043F8FB48D0F8D00034
:1060A000002849D03B2407E0601EF84931F8101061
:1060B000F64820F81410641E002CF5DC0020F3498B
:1060C000BC39A1F8BC000846B0F8BC0088BB084643
:1060D000B0F8BE0068BB0846B0F8C00048BB00205E
:1060E000E949C1F8D000E949BC3948640864E64987
:1060F000C1F8A400E549BC3981F8480000214FF4FB
:106100000070FFF77DFF00214FF4005000F0D0FB3E
:106110004FF4007000F086FA00220121DC4801F003
:1061200097FC0021DA4801F0F3FB00210420FFF77F
:106130008FFE0120D7498870D3484068D649C8608F
:106140004FF4805000F06EFB00287DD04FF480505B
:1061500000F076FACB480078002875D101F00EF8EF
:10616000C948D0F8D00010B90120CA498870C64883
:10617000006D012829D1C9480068142825D2C248D9
:10618000006AC7490968884217D9C5480068001DD8
:10619000C3490860BD485838C049096850F8210013
:1061A000C049C14A128831F812100144B748583822
:1061B000BA4A126840F8221007E00020B849086087
:1061C000B6480068401CB5490860B3480079B0B1D2
:1061D000AE48BC38C06D401CAC49BC39C865AA4843
:1061E000D0F8DC0002280AD20846806DAD49AE4ADC
:1061F000128831F812100844A449BC398865A548B2
:1062000080884B2805DD0120A24908700020888085
:1062100004E0A0488088401C9E4988809D48808872
:10622000022808DD9C48C078012804D10020994943
:106230008880012008709748007E00280ADD964873
:106240000079012806D100E0C7E19249C875002015
:10625000087608E090480079012804D18D48007E36
:10626000401C8C4908768B4880790E280FDD8A48BF
:10627000007918B900208549BC3988658B48816848
:10628000C1600020894988608249887104E08148A2
:106290008079401C7F4988717E48408946F2180108
:1062A000884221DB00207B4948817848BC38006D5A
:1062B000401C7649BC39086502219020FDF764FB3B
:1062C000B8B17248BC3840696F49096A89084843C7
:1062D0004FF46171B0FBF1F06C49BC39496B084473
:1062E0006A49BC39486304E06A484089401C6949EE
:1062F000488168480089962844DB6D48008800285A
:1063000001DDFDF746FB6348407D012804D1FDF720
:1063100045FB00205F49487501205E490875084625
:106320008089401C888108468089202810DB002055
:1063300088810869FDF737FB56480069401C5549BC
:10634000086108460069B0F5887F01D30020086124
:1063500020240CE0601E574951F8200041F8240029
:10636000601E554951F8200041F82400641E002C9D
:10637000F0DC00204F4908604F4908600120454982
:10638000088104E043480089401C424908813E4896
:10639000D0F8DC00022813D102F098FE3B49BC394A
:1063A000C1F8B4000E2406E0601E444951F82000F4
:1063B00041F82400641E002CF6DC00203F490860F0
:1063C0003148D0F8DC0002285BD2364836490988CB
:1063D00030F811000A2873DB2B48806A01286FD13E
:1063E0002A49BC3981F854002E482F49098830F8D1
:1063F0001100B0F5967F0BDD2448BC3890F85400AE
:10640000632867D063202149BC3981F8540061E0DA
:1064100024482549098830F81100C7280BDD1B489E
:10642000BC3890F854001E2854D01E201749BC399F
:1064300081F854004EE01B481B49098830F81100D0
:1064400063280BDD1148BC3890F854000A2841D06D
:106450000A200E49BC3981F854003BE0114812492A
:10646000098830F8110013282BDD0848BC3890F853
:10647000540004282ED004200449BC3981F854006B
:1064800028E03DE0A01800208C1E002054200020B1
:1064900000080040581E0020841F0020981800208B
:1064A0009C180020D421002096180020C421002030
:1064B00090180020C424002048250020CC2500206E
:1064C0001FE0464890F85400022803D002204349B8
:1064D00081F85400414890F854004149096AB0EBF2
:1064E000D10F06D93E48008CC0F3C7003B4981F864
:1064F00054003A4890F8540001281DD004F0B8FD2B
:106500001AE0364890F85400012806D0012033499B
:1065100081F8540004F0ACFD0EE03148D0F8DC0006
:10652000022809D22D48C06C2E492F4A128831F812
:10653000121008442949C8642948D0F8DC00022810
:106540003BD229480088401C274908802448006A1B
:106550000988B1EB900F11D3204890F8540001281E
:1065600006D11E48C06C1F490988401A1B49C864DF
:1065700000201C4908801C49088014E0174890F846
:106580005400012809D11548C16C1648164A1288D2
:1065900030F81200081A1149C86400211148124A43
:1065A000128820F812100D48C06C10490968884202
:1065B00003D90A48C06C0D49086001200C49487095
:1065C0000C48C068042805D90A48C068001F09495A
:1065D000C86002E000200749C86010BD981F002075
:1065E0008C1E0020D4210020961800204825002071
:1065F000581E0020841F0020010901EB8101490081
:1066000000F00F000844C0B27047002103E0491CAD
:10661000C9B20A38C0B20A28F9D2090740EA1160A3
:1066200070470000C0F3100040F08000C1430348F1
:10663000026802F080021143016070470C2800409C
:10664000000980B240F08000C1430348026802F0B4
:1066500080021143016070470C280040FEB5002401
:1066600001210807FFF7F4FB002000F06BF9A0F50B
:106670004851F23900D101240120FFF7E1F92CB98A
:106680000120FFF7ADFC0020FFF7AAFC0120FFF777
:106690004DFC4920FFF714FC0028FAD04FF480305D
:1066A000FFF784FCFF260120FFF77AFC002534B9B0
:1066B00030487F2141608660056000F01BF900F0E2
:1066C00075FA00F05BFD0121080300F0F1F80121EB
:1066D0000C022046FFF794FC2046FFF7A3FF64025C
:1066E0002046FEF765FB2046FEF762FB00948DF81E
:1066F000045008278DF8057001248DF8064068467F
:10670000FEF766FB29208DF808008DF809508DF8FA
:106710000A508DF80B4002A8FFF772F826053046A4
:10672000FEF746FB00968DF804508DF805708DF845
:1067300006406846FEF74CFB03208DF808008DF8F4
:1067400009508DF80A508DF80B4002A8FFF758F851
:10675000002000F051FA40F6FF7000F001FA01202D
:1067600000F05EFA0128FAD10121800300F0A0F8C0
:10677000FEBD0000E419002001210170817041700C
:106780000021C1707047000008B5002000900E493C
:106790000868400615D44FF0FF3008604B140868B5
:1067A00000F04000009A521C0092009A9A4201D0D8
:1067B0000028F4D00868400601D5012008BD00205B
:1067C00008BD012008BD00000C28004002480168F7
:1067D00021F08001016070470C28004010B502468E
:1067E0000C460E4801680E480140080CE070C1F3E9
:1067F0000423637001F03F03A370C1F342312170A1
:10680000002A0AD1FFF7F8FEE0706078FFF7F4FE87
:106810006070A078FFF7F0FEA07010BD0428004063
:106820003FFFFF0010B500210D4A126802F004037B
:106830000B4A383A1268840C20FA04F4024003EA46
:10684000D4331A43064B343B1B6803EA1010002A6A
:1068500003D00004000C00D00121084610BD000048
:106860004028004010B502460C460F4801680F480A
:106870000140C1F305402070C1F30623637001F0AD
:106880007F03A37001F48001090CE170002A0AD192
:10689000FFF7B2FE20706078FFF7AEFE6070A07860
:1068A000FFF7AAFEA07010BD002800407F7F7F0088
:1068B00030B50F4DCA222A6053222A600C4C0C4B73
:1068C0001C3C20F004021C3300F00400002906D018
:1068D00021681143216019680143196005E02168AE
:1068E00091432160196881431960FF20286030BD01
:1068F0002428004070B504460025114ECA2030609F
:1069000053203060FFF740FFA8B10D481C380168E4
:1069100021F04001016001682268114301600848CC
:10692000A168143801600168A28841EA024101604F
:10693000FFF74CFF0125FF203060284670BD0000A6
:106940002428004008B5034901EB8000009000981E
:10695000006808BD5028004070B505460E46144634
:1069600000202B49002D06D00968490608D520785B
:10697000FFF742FE05E00968490607D4E07005E02C
:10698000E070A068A8B1207BFFF736FEADB1A0781B
:106990002178E27840EA01406178090241EA024147
:1069A0000843217B40EA0160A1680843616808430D
:1069B0001CE0207BFFF720FEE8E72078FFF725FEAC
:1069C00005046078FFF721FE45EA0025A078FFF76F
:1069D0001CFE0543E07845EA0045207BFFF715FEE5
:1069E000A16845EA00600843616808430849CA2273
:1069F0001C310A6053220A60B6F5807F04D00A1F5A
:106A00001060FF20086070BD014A14321060F8E782
:106A10000828004070B505460C460026002D06D11A
:106A20006078C10603D520F010000A3060702DB1E7
:106A30006078FFF7E1FDA078FFF7DEFD55B1A078A3
:106A4000E17840EA014560782178000240EA41306F
:106A500005430FE0E078FFF7D8FD05046078FFF705
:106A6000D4FD45EA0025A078FFF7CFFD0543207847
:106A700045EA40350E4CCA20206053202060FFF7C5
:106A800083FE88B10B480540094820380560FFF7B0
:106A90009DFE07481C380068800604D400F086F884
:106AA00010B1012600E00126FF202060304670BDB5
:106AB000242800403FFFFF002DE9F04105460C4629
:106AC00000260020244F002D06D03968490608D53D
:106AD0002078FFF791FD05E03968490602D4E0709F
:106AE00000E0E07055B1A078217840EA0145607877
:106AF000E178000240EA014005430FE02078FFF70B
:106B000084FD05046078FFF780FD45EA0025A07844
:106B1000FFF77BFD0543E07845EA00450E4CCA20AF
:106B20001C34206053202060FFF72EFE78B10B4804
:106B30000540094808380560FFF748FE38688006B8
:106B400004D400F033F810B1012600E00126FF2044
:106B500020603046BDE8F081082800407F7F7F003C
:106B60000549CA220A6053220A60034A103A10609B
:106B7000FF20086070470000242800400021C170F9
:106B8000017041708170704710B54FF48040FFF77D
:106B900049FE50B14FF48040FFF752FD4FF4801092
:106BA000FEF706F90120FEF7ABFF10BD18B5002077
:106BB0000090104BCA201860532018600D491839F6
:106BC000086820F0A0000860CC13086800F02000DE
:106BD000009A521C0092009AA24201D00028F4D0E0
:106BE0000868800601D5012000E00020FF2119601F
:106BF00018BD000024280040084ACA211160532112
:106C0000116006491C390B6823F007030B600B6801
:106C100003430B60FF2010607047000024280040F1
:106C200018B500210091154BCA2119605321196034
:106C300012491C39002805D0086840F480600860BB
:106C4000012017E0086820F4806008600B4A183AB9
:106C50005414106800F004000099491C0091009938
:106C6000A14201D00028F4D01068400701D40020D0
:106C700000E00120FF21196018BD00002428004019
:106C800008B5034A02EB800000900098016008BD3F
:106C9000502800402DE9F041234C072800D02070F7
:106CA0002078214D0626052204272049062838D2BF
:106CB000DFE800F0030C12171F28686810B122707B
:106CC000BDE8F08100F034F82670F9E700F030F804
:106CD000277001206860F3E70220607003202070B5
:106CE000EEE76078401E607060780028E8D1277079
:106CF000E6E7086880B240F01000086022700A20C1
:106D00006070DDE76078401E607060780028D7D141
:106D1000086880B220F010000860267000206860CB
:106D2000CEE72670CCE70000C8190020405C004088
:106D300010B5064C206880B220F004002060FEF7F9
:106D4000FFFC4FF43F40206010BD0000405C00405D
:106D5000002904D0018841F040010180704701887A
:106D600021F04001018070470246002012890A424A
:106D700000D0012070478181704730B5028802F44D
:106D800041530A884C88CD8822438C882C43224367
:106D90000C8922434C8922438C892243CC8922438B
:106DA0001A430280828B22F400628283098A018264
:106DB00030BD000010B5064C01462046FFF7DBFF52
:106DC00080212046FFF7D0FF0128F9D010BD000038
:106DD000003001407047000010B58A07120F0F23E2
:106DE000934021F00304054921448C689C438C6046
:106DF0008B68904003438B6010BD00000000014091
:106E000010B5C20F20F000400A4C231D002908D005
:106E10001AB121680143216010BD1968014319604E
:106E200010BD1AB121688143216010BD19688143EA
:106E3000196010BD087C00400649002804D048684D
:106E400040F0010048607047486820F00100486049
:106E50007047000000000140024920F00700086070
:106E600070470000505C0040F0B50E490E780021DC
:106E70000D4F48F68F7C48F280050BE0CBB207EB54
:106E80008302D2F8004C04EA0C041C432C43C2F8E1
:106E9000004C491CB142F1D3044940F08000086025
:106EA000F0BD000098190020005000404C5C0040EC
:106EB000054A21F00101126892B202EBC000034AB8
:106EC000001D42F810107047505C00400060004008
:106ED0000E4A126892B202EBC0000D4A801D02EB0E
:106EE00040023E290AD94809C90601D1401E80B294
:106EF0004FF4004141EA8020106070474808C907FC
:106F000001D0401C80B2800210607047505C00408D
:106F10000060004082000A480244D2F8000C4BF6A0
:106F20008F731840CB0401D580F48050890401D5BB
:106F300080F4005048F280010843C2F8000C70470A
:106F400000500040810008480844D0F8001C4BF66F
:106F50008F72114081F4805181F4005148F2800217
:106F60001143C0F8001C704700500040054A21F052
:106F70000101126892B202EBC000034A42F81010FD
:106F800070470000505C004000600040044A1268F6
:106F900092B202EBC000034A801C42F81010704706
:106FA000505C00400060004082000A480244D2F871
:106FB000000C48F6BF731840CB0601D580F01000D6
:106FC000890601D580F0200048F280010843C2F80C
:106FD000000C704700500040810008480844D0F879
:106FE000001C48F6BF72114081F0100181F02001B1
:106FF00048F280021143C0F8001C70470050004066
:10700000820005481044D0F8002C48F68F131A402F
:107010000A43C0F8002C7047005000400CB5002215
:10702000019200922D49086840F4803008604FF4C6
:10703000A043086800F4003000900198401C0190C3
:10704000009810B901989842F3D10868800302D5DE
:107050000120009000E00092009801283CD12048D7
:10706000026842F004020260026842F0020202601A
:10707000026842F00102026018482430026842F0BF
:1070800080520260C214174802604268D206FCD4E3
:1070900012480830026802600268026002680260FA
:1070A000026822F47D020260026842F4110202606A
:1070B0000A6842F080720A600A689201FCD5016891
:1070C00021F003010160016841F0030101600168E2
:1070D000C1F381010329FAD10CBD00000038024040
:1070E000003C02400070004010B501210846FEF748
:1070F000CBFE4FF480242046FDF75AFE05490C6074
:107100000820487101208871BDE810400846FDF74D
:107110005FBE0000BC1800200121C805FEF798BE24
:1071200038B54FF4007400212046FEF769FF11487E
:10713000FEF794FF6846FFF721FD69460020FFF740
:1071400091FB9DF802000B49401CC0B288703B289F
:1071500001D93C38887008484860064A214600201A
:10716000FFF7FAFB2046FFF75DFA01212046FEF704
:1071700047FF38BDF01900200080808038B54FF4FB
:10718000807400212046FEF73BFF1148FEF766FFA2
:107190006846FFF7F3FC69460020FFF763FB9DF8A4
:1071A00002000B49001DC0B288703B2801D93C3851
:1071B000887008484860064A21460020FFF7CCFB4B
:1071C0002046FFF72FFA01212046FEF719FF38BDB0
:1071D000F01900200080808038B51948006880B21E
:1071E000001D41001748095A89B200EB4104009480
:1071F000154D2868017A092913D02178017061782A
:10720000241D41702088FCF766FD29684880A0880D
:10721000A41DFCF760FD29688880A41C00942088C8
:10722000C880286801210172C08828B1FCF7A2FF3C
:10723000BDE83840FEF71EBCFEF72AFBF8E7000069
:10724000505C004000600040A81800202DE9F0418B
:107250003D480068017801F07F01002904D002292F
:1072600008D00220BDE8F081417A01F0DF014172CF
:107270000020F7E7418809B9017909B10220F1E757
:10728000324B417921F08004314E0A0607D506EBD6
:107290008402D2F8002CC2F30112120106E006EBC0
:1072A0008402D2F8002CC2F3013212031D78A542E9
:1072B0000DD962B1807A50B1080612D506EB840070
:1072C000D0F8000CC0F30110012802D024E0022005
:1072D000C8E7E0B2FCF770FEE0B23021FFF764FED1
:1072E0001AE006EB8405D5F8000CC0F30130012844
:1072F00012D14BF68F7848F280079CB1E0B2FCF7D0
:1073000047FED5F8000C00EA080080F4805080F4B5
:1073100000503843C5F8000C0E48006840698047AB
:1073200000209FE70C4890F82C100020FFF7D0FDBC
:10733000D6F8000C00EA080080F4805080F4005079
:107340003843C6F8000CE7E7A81800209819002079
:1073500000500040B01800204819002010B5074C1C
:10736000002806D0064800680068804720680A3078
:1073700010BD216801200882002010BDA81800203F
:10738000B0180020064A13685A8A002802D00868FC
:10739000104470478888801A1882002070470000C7
:1073A000A818002010B5074C002806D00648006831
:1073B0008068804720680C3010BD21680120088259
:1073C000002010BDA8180020B018002010B52A49D0
:1073D000002809680DD02948002202800A78530647
:1073E0000BD002F07F02012A1FD0022A1FD00020FA
:1073F00010BD02200882002010BD497A8A0604D5FB
:10740000027842F00202027003E0027802F0FD020C
:107410000270490604D5017841F00101017025E0B0
:10742000017801F0FE01017020E0144810BD4A7996
:1074300002F00F011306124A0CD502EB8101D1F8BC
:10744000001CC1F30111012910D1017841F00101A3
:1074500001700BE002EB8101D1F8001CC1F3013196
:10746000012903D1017841F001010170054800684C
:1074700000698047014810BDA8180020A41800200A
:1074800000500040B018002010B50A480A4A0068B1
:107490005278C178914203D882780AB982880AB1B9
:1074A000022010BD817205480068406880470020B6
:1074B00010BD0000A818002098190020B018002066
:1074C00010B506480068417A41F020014172044835
:1074D0000068C0698047002010BD0000A818002087
:1074E000B018002070B520480268517921F080045E
:1074F0001E4B21F080000D0603EB800005D5D0F86F
:10750000003CC3F301131B0104E0D0F8003CC3F3BB
:1075100001331B03164D2D78A54213D954888CB91D
:1075200083B1927A72B1090648F280020CD5D0F884
:10753000001C48F6BF73194081F010011143C0F8D8
:10754000001C0BE0022070BDD0F8001C4BF68F73BE
:10755000194081F480511143C0F8001C05480068AF
:1075600080698047002070BDA818002000500040AE
:1075700098190020B018002010B50F4C0F4A206851
:107580001268C17892694079904721688A7A8AB1F5
:1075900018B9087908B9887808B1022010BD0848E0
:1075A0000068C068804720684179C172C178017362
:1075B000002010BD022010BDA8180020AC1800202B
:1075C000B01800207047000002480068401C0149C4
:1075D000086070472C0A002010B5254B186800F091
:1075E0000C001C1F23494FF40042002815D004282A
:1075F0001AD008281BD00C281CD02068C0F34230B9
:10760000401C82400A6018681A4AC0F303100D3209
:10761000105C0A68C2400A6010BD2068C0F34230A6
:10762000401C82400A60EEE713480860EBE713480D
:107630000860E8E7186800F470101A6802F4400265
:107640000C4C241D04EB90400078012404EB925272
:107650001C6804F480342CB1084C6043B0FBF2F099
:107660000860D0E7044C6043B0FBF2F00860CAE762
:10767000083802400C0A00200024F40000127A00AE
:1076800010B51048016841F4807101600D4908315E
:107690000A680D4B1A400A6002680C4B1A400260DF
:1076A000026822F480220260086820F47D000860ED
:1076B000091D00200860FFF7B1FC06490448086076
:1076C00010BD0000003802400CC0FF88FEFFFEEE37
:1076D0000030000808ED00E010B50121344800F04A
:1076E000ABF9002863D00121314800F00EF9314890
:1076F000007800285BD13048007AD0B12E48407A1B
:10770000B8B92D480068401C2B490860084600683D
:10771000642803D12021294800F0CBF926480068CD
:10772000C82806D11021254800F0C3F900202249BD
:1077300008602148007A10B11F48407A10B91E48ED
:10774000007A58BB1E48807801282ED11D48007849
:1077500078B119484068502805D90020164948607A
:1077600003F000FF23E014484068401C12494860C1
:107770001DE011484068062803D91348D0F8D0000E
:1077800038B10D484068012809D90F48D0F8D00019
:1077900028B100200849486003F0E4FE07E00648ED
:1077A0004068401C0449486001E003F0DBFE10BD66
:1077B00000040040A0180020781F0020000C0140A9
:1077C000841F0020A11800208C1E002010B500246A
:1077D00001212F4800F030F9002857D001212C4812
:1077E00000F093F82B48D0F8D00000284ED02A485B
:1077F000B0F834012849C1F84C01092413E02648A7
:10780000D0F84C1100F59A7030F814000844224961
:10781000C1F84C01601E01F59A7131F810101F4833
:1078200020F81410641E002CE9D100201A49A1F898
:1078300034011848D0F8D400022802D10120184998
:1078400088701448D0F8A80000B31348D0F84C0151
:107850001049D1F8AC1088420BD91248007A10B9FF
:1078600000201049487201200E49087203F032FED0
:107870000CE00C48007A012808D103F073FE0020C8
:1078800009498870074908724872086010BD0000F5
:10789000000800408C1E0020981F0020CC200020F3
:1078A000581E0020781F0020841F002010B50221E0
:1078B000084800F0C1F860B10221064800F025F840
:1078C00005480068401C0449086008468068401C60
:1078D000886010BD00080140C4210020002904D0A8
:1078E000018841F0800101807047018821F080010A
:1078F0000180704710B501238B40048C9C430484A5
:10790000038C8A401343038410BDC943018270472E
:10791000002904D0018841F00101018070470188ED
:1079200021F001010180704710B5B0F1804F0CD0FB
:107930003949884213D101210220FEF797FA00212C
:10794000BDE810400220FEF791BA01210846FEF77B
:107950008DFA0021BDE810400120FEF787BA2F49BB
:10796000884209D101210420FEF780FA0021BDE8F8
:1079700010400420FEF77ABA2949884209D1012132
:107980000820FEF773FA0021BDE810400820FEF73A
:107990006DBA2449884209D101211020FEF766FA08
:1079A0000021BDE810401020FEF760BA1E49884251
:1079B00009D101212020FEF759FA0021BDE810402D
:1079C0002020FEF753BA1949884209D10121042029
:1079D000FEF768FA0021BDE810400420FEF762BA05
:1079E0001349884209D101210820FEF75BFA0021E2
:1079F000BDE810400820FEF755BA0E49884209D16B
:107A000001211020FEF74EFA0021BDE810401020A1
:107A1000FEF748BA10BD0000000400400008004016
:107A2000000C00400010004000140040000801401D
:107A3000000C01400010014002460020138A0B4058
:107A400092890A40002B02D0002A00D00120704702
:107A5000002A03D082890A438281704782898A433F
:107A60008281704710B5028C22F001020284038CDF
:107A7000028B22F0700222F003040A88224323F0D2
:107A800002040B8923434C881C43496841630283E9
:107A9000048410BD028B22F008020A43028370475F
:107AA000002101804180416001817047018582820F
:107AB0007047C16270474163704700000288B0F1AF
:107AC000804F08D00F4B984205D00F4B984202D000
:107AD0000E4B984203D122F070034A881A430C4B94
:107AE000984206D00B4B984203D022F440730A8987
:107AF0001A4302804A68C262098801850121818295
:107B0000704700000004004000080040000C0040E6
:107B100000100040001400404FF0FF314160002190
:107B20000180018141807047002802D00120FFF7C9
:107B300083B90020FFF780B910B54FF48020FDF71E
:107B400037F910BD10B5094C0748206002210172B9
:107B5000074860600749A160006880476068406826
:107B6000BDE810400047000008260020A8180020AB
:107B7000481900209C19002038B54FF4A060FDF78B
:107B800073FE14208DF8000002208DF80100002003
:107B90008DF8020001248DF803406846FDF730FEA1
:107BA0002A208DF800008DF801408DF803406846CA
:107BB000FDF726FE38BD00002DE9F04188B0002415
:107BC0004E4D28684E4E70807188DFF83881B8F8C5
:107BD00000000140890505D54FF6FF512960317835
:107BE000491C317071880140080401D5FCF7F6F892
:107BF0007088B8F800104FF6FF370840400503D5ED
:107C00002F604148406880477188B8F80000014003
:107C1000890402D54DF6FF71296071880140C804BE
:107C200005D54EF6FF7028600020FFF733F8708806
:107C3000B8F80010084000050BD53448007810B1A2
:107C4000FFF7C0FC02E00220FFF724F84FF2FF70BC
:107C500028607088B8F800100840C0054AD54FF673
:107C6000FF6028602548001D00684FF000030004F5
:107C700039D57068401C70607068032834D91F487B
:107C8000001F016809072FD4016889B2B160204A3A
:107C9000694602EB840CDCF800CC1FFA8CFC41F83E
:107CA00024C0641C082CF4D3B46844F00104B4600C
:107CB000B468A4B20460B46824F00104B460B46889
:107CC000A4B2046028684005FCD52F60002051F85C
:107CD000204002EB8005A4B2C5F8004C401C0828E7
:107CE000F5D3736000E0736008B00720BDE8F04191
:107CF000FEF7D0BF08B0BDE8F0810000445C004052
:107D0000E8180020B418002048190020C4190020E9
:107D10000050004010B5FFF74FFF10BD054900208F
:107D2000086005494FF43F4008800249091F086078
:107D300000207047445C0040B418002010B50020BB
:107D40000A490871FDF70CFD01F0DCFAFDF7B2FEFF
:107D500000214FF40000FEF77BF803F093FAFFF7E1
:107D60003BFC034840680149C86010BD841F0020E7
:107D70008C1E002010B503F015FBFFF7B5F9FFF7D7
:107D80002BFCFFF7C9F903F031FAFFF7F5FEFFF717
:107D9000D9FE0548406840F00100034948600120D1
:107DA0000249087110BD000000000140841F00203E
:107DB000002000211E4A126852B31E4A92F8200089
:107DC000128CC2F30721F6221B4B1A701A4651700F
:107DD0009070174A1268521E184B13F82220164B47
:107DE000DA70134A1268521E144B33F82220120A1A
:107DF000114B1A710E4A1268521E104B53F8222072
:107E0000120C0D4B5A710A4A1278521E9A710AE0EE
:107E1000F622094B1A7000225A709A70DA701A71A1
:107E20005A71FF229A710722054B1A6070470000B1
:107E3000981800208C1E0020001A0020FC1F002033
:107E4000C4180020F0B500200021002200230024E7
:107E50000025154E96F85840B6F85860C6F307232B
:107E60000026114FBE65114E76680A27B6FBF7F65D
:107E7000A6F59676F5B20C4E96F84C20B6F84C6006
:107E8000C6F30721084EF66CC6F30740D126084F0B
:107E90003E703E467370B470F07031717271B5719E
:107EA0000726044F3E60F0BD981F0020741E00207E
:107EB000001A0020C418002020B1012819D002287F
:107EC00047D12EE0E021284A1170284909785170E5
:107ED00026495039B1F85010090A91702349503998
:107EE000096D090CD17021495039096D090E1171C4
:107EF0002FE0E1211C4A11701C49091D09785170BD
:107F00001A495039B1F85410090A9170174950397B
:107F1000496D090CD17015495039496D090E11711F
:107F200017E0E221104A117010491431097851709C
:107F30000E495039B1F86410090A91700B49503953
:107F4000496E090CD17009495039496E090E1171F9
:107F500000BF00BF0021044A517101219171072126
:107F6000034A116070470000001A00205000F81FFB
:107F7000C4180020002100200A4A92F82000128C28
:107F8000C2F30721F522084B1A701A4651709070FF
:107F9000FF22DA701A715A719A71DA710722034B53
:107FA0001A6070478C1E0020001A0020C4180020A0
:107FB00000210020094A107A1289110AD222084BA6
:107FC0001A701A46517090700022DA701A715A7144
:107FD0009A710722034B1A6070470000581E002058
:107FE000001A0020C418002070B50024C84800689A
:107FF00005287DD1FBF774FEC6480068002877D0BD
:1080000000BFC548407D012804D1FBF7C7FC002014
:10801000C14948750020C149C8655AE1402C00D3C8
:1080200070BDBF48005DD4281ED00ADCA0F131002D
:10803000092875D2DFE800F06876828C90AED4E132
:10804000F500E3286DD008DCD52859D0E02813D0FE
:10805000E12816D0E22863D118E0E42877D0E5289B
:1080600019D0E628F7D130E0AE48006D012801D0E4
:10807000FFF7E8FE641C14E10020FFF71DFF641CFD
:108080000FE10120FFF718FF641C0AE10220FFF74F
:1080900013FF641C05E1E520A3490870A3A0007943
:1080A0004870A2A040798870A0A00078C8709FA0F6
:1080B000407808719DA0807848719CA0807A887172
:1080C00007209D490860641CEBE0E6209649087093
:1080D0009AA00078487099A04078887097A080781E
:1080E000C87096A0C078087194A00079487100E02B
:1080F000F7E00020887107208F490860641CD0E0F9
:10810000FFF756FF641CCCE0F1228E49012002F0FB
:10811000F7FE894908600846006800B9641CC0E0A1
:10812000BDE092E0F3228849022002F0E9FE824994
:1081300008600846006800B9641CB2E0002081496C
:10814000088081490880FFF715FF641CA9E06FE0F3
:10815000FFF72EFE641CA4E0002505E000216F4817
:10816000643040F825106D1C132DF7DB0020774993
:1081700008607749086001206A490865002067495E
:10818000086481F84800012081F8490071490870AD
:10819000641C86E0002505E000216048643040F85A
:1081A00025106D1C132DF7DB002068490860684915
:1081B00008605C4908655949086481F84800012055
:1081C00081F849000020634908705449886502F02D
:1081D0000DFE002002F0C8FDFBF7E0FB641C60E030
:1081E000E01D4C490968884204D82046FBF7E0FBB3
:1081F000E41D01E04748046853E0F7220021032012
:1082000002F07EFE4C4908600846006818B15248EA
:108210000088FF2803DB00204F490880641C40E0F1
:10822000FFE700204749088047490880641C38E080
:10823000E01D38490968884204D8204603F066FBEF
:10824000E41D01E0334804682BE0601D31490968F2
:10825000884221D8201D402800D3E1E6304A601C26
:10826000115C5C20FBF7A9FB2D4AA01C115C60206F
:10827000FBF7A3FB2A4AE01C115C6420FBF79DFB83
:10828000274A201D115C6820FBF797FB641DFDF752
:10829000A5F8FDF733FA01E01E48046801E0641C0C
:1082A00000BF00BF2448006898B1002600E0761C9B
:1082B0002A480068012803D04FF6FF708642F6D3A3
:1082C0001D480068C1B21848FBF716FD00201A4986
:1082D000086010480068A0423FF6A0AE00200D499B
:1082E00008604FF400711E48FCF7FCFD68B90026D9
:1082F00000E0761C19480068012803D04FF6FF7093
:108300008642F6D3002003F003FC00BF88E600009D
:10831000C0190020E4180020581E0020981F0020DB
:10832000242600208C1E0020001A002041756720A2
:108330003231203230323300C4180020342E303233
:108340002B000000881800208A18002098180020B0
:108350009C1800208C180020941800205C15002028
:108360000004024000BFFEE710B5521C5208084B43
:1083700003EB4101002A09D003784478801C43EACA
:10838000042321F8043B521E002AF5D110BD000041
:108390000060004010B500210F4A2128126802D069
:1083A000202807D00FE0107800F07F0021280AD1A4
:1083B0000A4908E0107800F07F00212800D1084920
:1083C000084B2020187029B1916100205082884705
:1083D000002010BD022010BDA81800200184000854
:1083E0007D8500082C1900200149FEF7CBBF000055
:1083F000401900200149FEF7C5BF000038190020D0
:10840000002801D003487047034908200968088202
:108410000020704730190020A8180020054909687D
:10842000C978042901D900207047034A02EBC10131
:10843000FEF7A8BFA818002078190020002901D055
:1084400002207047012801D90220704700207047A0
:1084500008490968097801F07F01212903D1022820
:1084600003D0222803D0022070470020704700204C
:1084700070470000A818002010B53348002100689C
:108480008172324AD2794272C1720020FEF7E4FC56
:108490004FF400710020FEF7B3FD10210020FEF71D
:1084A00083FD40210020FEF703FD80210020FEF720
:1084B0005DFD0020FBF794FD254890F82C1000206E
:1084C000FEF706FD0020FEF73DFD00210120FEF72E
:1084D00097FDC0210120FEF749FD20210120FEF774
:1084E00063FD00210120FEF715FD4FF4C06102205D
:1084F000FEF786FD4FF480710220FEF737FD002164
:108500000220FEF707FD20210220FEF74DFD00218D
:108510000320FEF775FD4FF488710320FEF7C8FCB9
:1085200040210320FEF7D4FC4FF440510320FEF716
:10853000F1FC00210320FEF737FD0020FEF794FC3C
:1085400004490120086010BDA818002042BB0008A3
:1085500048190020C01900200348807A002802D062
:10856000024905200860704708260020C019002035
:108570000149042008607047C0190020002801D07C
:1085800003487047034908200968088200207047A3
:1085900030190020A818002003480178202901D1B3
:1085A00000210170704700002C1900207047000066
:1085B00010B5FCF7D9FC0548002400688472FDF76B
:1085C00089FAFFF7ABFB0248046010BDA818002031
:1085D000C01900200FB4084B10B504A902AA0398D3
:1085E00000F0DEF8044602A9002000F070FC2046EE
:1085F00010BC5DF814FB0000CF8E000802E008C834
:10860000121F08C1002AFAD170477047002001E00C
:1086100001C1121F002AFBD1704700002DE9FF5F46
:1086200082B00021DDE90430020DDDF840B00343E3
:1086300018D044F61050A2F2FF324243151411989C
:1086400001281FD0A5EB0B00401C5FEA000A4FF089
:1086500000064E4FDFF83891B046504615D5CAF1A6
:10866000000413E0119801244AA3012801D16FEA04
:108670000B010298119AC0E90031C0E9024206B02C
:10868000BDE8F09FCBF10000DFE704460021404A3F
:10869000491842EB0450CDE9001012E0E00707D082
:1086A00032463B4640464946FAF71BFE804689461D
:1086B00032463B4610461946FAF713FE06460F4669
:1086C0006410002CEAD1DDE90401DDE90023BAF1F0
:1086D000000F06DAFAF705FE42464B46FAF701FEAE
:1086E00005E0FAF770FE42464B46FAF76CFE044688
:1086F0000E460022284BFAF701FF03D84FF0FF3057
:10870000014607E00022254B20463146FBF70FF8D3
:10871000FBF7B4F8102409E0002C0ADB0A2200233E
:10872000FAF740FF039B30321A55641E50EA0102EB
:10873000F2D1641C039AC4F111031444119A012A62
:1087400003D0012208430DD10AE0084304D00020E1
:108750004FF0110B119072E7A3EB0B056D1E0DE0AE
:108760005B4504DD4FF0000205F1010504E003DA8A
:108770004FF00002A5F10105002AECD002981199F2
:10878000C0E90231C0E9004579E70000000014406B
:108790000000F03F300000000000F0430000E03F28
:1087A0002DE9FF4F95B09B468946064600250FE20E
:1087B000252877D100242746F84A0121059400E0B6
:1087C000044316F8013F203B01FA03F01042F7D1B1
:1087D00030782A2811D06FF02F033078A0F13002C2
:1087E000092A16D8059A44F0020402EB820203EB30
:1087F00042021044761C0590EFE759F8042B0592CD
:10880000002A03DA504244F40054059044F0020474
:10881000761C30782E2816D116F8010F44F0040487
:108820002A280DD06FF02F023078A0F13003092BE9
:1088300009D807EB870302EB4303C718761CF3E75D
:1088400059F8047B761C30786C280FD006DC4C2855
:1088500017D068280DD06A2814D104E0742810D0ED
:108860007A280FD10DE044F400140AE044F4801497
:1088700001E044F440147278824202D104F580147D
:10888000761C761C307866280BD013DC582877D0FD
:1088900009DC002875D04528F6D04628F4D04728B2
:1088A0001AD19DE118E0632835D0642879D0652875
:1088B00012D195E1702873D008DC6728F1D06928BF
:1088C0006FD06E280DD06F2806D1B5E073282CD05C
:1088D000752875D0782874D05A46179990476D1C22
:1088E00075E1C4F30250022809D003280DD0D9F84D
:1088F000001004280DD00D6009F1040967E1D9F8D2
:108900000010EA17C1E90052F6E7D9F800100D800F
:10891000F2E70D70F0E719F8041B8DF80010002045
:108920008DF80100EA46012003E059F804AB4FF04E
:10893000FF3061074FF0000102D40DE008F10101A2
:108940008846B9420FDA8045F8DB1AF8081000298A
:10895000F4D108E008F1010188468142FADB1AF8F7
:1089600008100029F6D105985B46A0EB08072146C0
:108970003846179A00F094FA284400EB080507E0FF
:108980004DE029E10DE01AF8010B5A46179990477E
:10899000B8F10108F7D25B4621463846179A13E131
:1089A00042E00A220092C4F302524FF0000A022A67
:1089B00008D059F804CB032A4FEAEC710AD00DE035
:1089C00029E02AE009F1070121F00702F2E802C1DB
:1089D000914609E00FFA8CFC4FEAEC71042A03D1AE
:1089E0004FFA8CFC4FEAEC71002907DA0A460021A5
:1089F000DCF1000C61EB02012D2202E0220504D51E
:108A00002B228DF80420012203E0E20701D020226E
:108A1000F7E7904659E00A2102E010220DE010210C
:108A20004FF0000A00910BE010224FF0000A44F0D2
:108A300004040827009203E008224FF0000A009285
:108A4000C4F30252022A05D059F804CB0021032AAC
:108A500008D009E009F1070121F00702F2E802C19C
:108A6000914605E01FFA8CFC042A01D10CF0FF0CA2
:108A70004FF00008220728D5702806D0009B83F00D
:108A8000100353EA0A0305D00EE040228DF80420BB
:108A9000012208E05CEA010206D030228DF80420B1
:108AA0008DF8050002229046009B83F0080353EAEC
:108AB0000A030AD15CEA010201D1620705D530221E
:108AC0008DF804204FF001087F1E582804D034A0F0
:108AD00003900EA802900DE036A0F9E753466046D9
