:020000040800F2
:10000000A01000200901000827120008B10E000806
:1000100025120008B1010008B11F0008000000000F
:100020000000000000000000000000002116000891
:10003000690A000800000000E1130008951C000890
:100040002301000823010008230100082301000800
:1000500023010008230100082301000823010008F0
:1000600023010008230100082301000823010008E0
:1000700023010008230100082301000823010008D0
:1000800023010008230100082301000823010008C0
:100090008D1F000823010008230100082301000828
:1000A00023010008230100082301000823010008A0
:1000B0002301000823010008230100082301000890
:1000C0002301000823010008230100082301000880
:1000D0002301000823010008230100082301000870
:1000E0006D0A000823010008C91D0008230100084B
:1000F00023010008DFF80CD000F018F80048004792
:1001000075210008A01000200648804706480047D7
:10011000FEE7FEE7FEE7FEE7FEE7FEE7FEE7FEE7B7
:10012000FEE7FEE7A51C0008F5000008064C074D99
:1001300006E0E06840F0010394E8070098471034B7
:10014000AC42F6D3FFF7DAFF90220008C022000885
:1001500070B58C1810F8015B15F0070301D110F889
:10016000013B2A1106D110F8012B03E010F8016BB6
:1001700001F8016B5B1EF9D12B0705D40023521E39
:100180000DD401F8013BFAE710F8013BCB1A921CA1
:1001900003E013F8015B01F8015B521EF9D5A1429F
:1001A000D8D3002070BD40F2010CC2F2000C6047B1
:1001B000FEE7C1B2000A40EA012070472DE9F84F7E
:1001C0000020ADF80000DFF834A14BF6BF7648F20E
:1001D00080074A4D4A4C40F68F7848F60F7BDFF88F
:1001E00024910AF1440A31E00888474A10F00F00D0
:1001F000107034D0454901EB8001D1F8002CADF8E6
:100200000020BDF8002012040BD5D1F8002C02EA22
:100210000802C1F8002C3E4901EB800050F8040CA4
:100220008047BDF80000000610D5374837490078F0
:1002300001EB8001D1F8002C02EA0B02C1F8002C7E
:10024000344901EB800050F8040C8047DAF80000D4
:100250004946A9F800000004C6D4BDE8F88F286814
:100260002080208800F030006080208800F440501A
:1002700020802868304080F4005080F0200038430F
:1002800028600888C006286815D400EA0B0028609A
:1002900000F010FE26E02188890401D580F400508A
:1002A0006188C90626D46188890601D580F02000BE
:1002B00038432860D1E7ADF80000BDF80000000524
:1002C00006D5286800EA0800286001F0B9FA09E0BC
:1002D000BDF800000004B9D5286800EA08002860CD
:1002E00001F04AF8286821883040C904D3D580F449
:1002F0008050D0E780F01000D5E70000005C00409F
:1003000032060020E60100202206002000500040B6
:100310000C020020F0010020810008480844D0F8B9
:10032000001C490409D5D0F8001C48F68F72114012
:100330004CF280021143C0F8001C7047005000408E
:10034000810008480844D0F8001C490609D5D0F8B7
:10035000001C48F68F72114048F2C0021143C0F8E9
:10036000001C704700500040810006480144D1F84D
:10037000000C48F68F62104048F280021043C1F82A
:10038000000C70470050004005480068C00705D0C9
:1003900003480449083001600349016070470000C8
:1003A000043C0240EFCDAB89050403021CB50121DA
:1003B000022001F04FF800208DF8040001208DF894
:1003C000070000906946024800F0CAFC1CBD00000E
:1003D000000402400121014800F021BD0004024058
:1003E000164910B50A68117801F07F01212922D140
:1003F000134B0228197806D001280AD0052810D0FE
:10040000032810D017E0022901D0092913D10D4982
:100410000AE0022901D005290DD1032018700A49EC
:1004200002E00A4900E00A4929B1002091615082A6
:100430008847002010BD022010BD000024060020C7
:10044000E8000020F91C000821070008A90C00089A
:10045000C50C0008014901F0B9BA000040020020B3
:10046000014901F0B3BA00003802002005490968CB
:10047000C978082901D900207047034A02EBC1015D
:1004800001F0A4BA2406002078020020032901D834
:10049000022801D9022070470020704770B5294911
:1004A0000968097801F07F01212912D1284B002227
:1004B000254E26491D78012807D00224022813D092
:1004C000042817D0062828D003E0052D03D0022DDC
:1004D00001D0022070BD0120B060062018704A7063
:1004E0008A70CA7008712BE01C704A708A70CA70DA
:1004F0000C7125E00A2D09D00A2018700E230B700C
:100500004A708A70CA7008714A7119E01C700A70CA
:100510004A708A70CA700C71F6E7022D07D0032D5D
:1005200005D0052D03D0062D01D0092D08D11C7052
:100530000A704A708A70CA700C714A7132607260B7
:10054000002070BD2406002028020020F4000020B6
:10055000E800002070B520490020214A88721F4918
:100560001268204CC979517220601E4850380168C9
:1005700048F68F12114041F400710160016848F69D
:10058000BF72114081F0200148F2800211430160E6
:1005900021681020144D090405EBD131134E8860F9
:1005A000002016F82C1F01F06FF821685020090474
:1005B00005EBD13108603178002001F097F8002078
:1005C000FFF7D2FE002001F07FF8002001F038F89C
:1005D00007490120086070BD800C00200C0100203C
:1005E00024060020505C00400060004048020020CB
:1005F000C80200200348807A002802D00249052062
:1006000008607047800C0020C802002001490420C7
:1006100008607047C80200207047000070B521488C
:100620004078032821D1204D2878042805D00728B8
:100630001BD1BDE8704000F053B81C4C2146206827
:10064000496898B1012806D98002E268A0F50060E7
:10065000104400F0D7FD002060601549032220609F
:100660002A700A7148708870C87070BD114802788D
:10067000002AF0D046788378212A06EB0323C67837
:10068000007903EB064303EB006007D0412AE2D177
:100690000529E0D1E06000F07BFDDCE70529DAD137
:1006A000E060D8E7800C0020E8000020280200204D
:1006B000F40000203806002070B5074D00F0E0FB84
:1006C0000024AC7200F0B0FE01F062FC01F094FB7B
:1006D0000248046070BD0000800C0020C8020020A9
:1006E0000C4900200C4A886018310968097D4B07C5
:1006F0000A4906D5062313700B7148708870C870BC
:100700007047082313700B7148708870C87000F030
:10071000D9BE000028020020E8000020F4000020DC
:100720000E4910B5CC788A780D4B04EB02221A6082
:10073000CA798C7904EB02225A600A4C498A032355
:100740002370094C521A92B2237110B10748084421
:1007500010BD074800680282002010BD800C0020F8
:1007600028020020E8000020F400002038060020C5
:10077000240600202DE9F047DFF89480254F4FF044
:100780003009D8F8001001F11005088A0E7A08B96E
:10079000042E04D0AC88A04215D8042614E01E48CC
:1007A0000178012903D00726102038802BE01B4A4E
:1007B000002112681A4B120403EBD2325160A7F8E1
:1007C000009001701FE00226844200D90446A96807
:1007D000204688478246002000F044FB014622461E
:1007E000504601F0E7FB2146002000F07FFF2888FB
:1007F000001B2880688820446880A7F80090094979
:100800004FF440500880D8F800000672BDE8F08729
:1008100024060020340600201E060020505C004004
:1008200000600040320600202DE9F047224EDFF83C
:100830008C803027356835F8100FA968A9B100B34E
:10084000AC88844200D904462046884781462888DF
:10085000001B2880688820446880002000F0F2FA9D
:1008600001462246484600F0ABFD288848B11449AD
:100870004FF4405008800021084600F037FFA8F8E8
:1008800000702888A988884201D3032001E020B1A4
:10089000052031680872BDE8F087316806200872CB
:1008A000084900200968084A090402EBD131486070
:1008B000A8F80070EFE700002406002034060020AE
:1008C00032060020505C004000600040F8B55D4CEE
:1008D0005D4D09262068002729684278062A05D040
:1008E000AAB1082A4DD00A2A50D06BE002785206ED
:1008F00068D18078012804D0022804D0032804D0CD
:1009000060E0C96956E0096A54E0496A52E04288E9
:10091000B2BBC288022A55D102798ABB027853063B
:1009200001D1838833B102F07F02012A04D0022A68
:100930000CD047E045493DE08A6940790021904765
:10094000F0B92068807A0028F4D13BE0417901F0C9
:100950000F0001F070020B063D4901EB8001D1F858
:10096000001C03D5C1F30111090102E0C1F30131FB
:100970000903384B1B78834224D90AB90029D9D1FD
:1009800020E0007840061DD1334913E0027802F0E0
:100990007F02012A16D1827AA2B1428892B90279E5
:1009A00082B9C288012A0DD18A6940790021904715
:1009B00040B92A4931B120684782816100208847C7
:1009C000002006E0296820680969407888470328E4
:1009D00013D021680A8AA2F57F43FF3B0BD002287F
:1009E0000ED06AB10878000626D5C88800908242E9
:1009F0000AD9088218E00E72F8BD20680672F8BDA8
:100A00004FF008000872F8BD0ED22868144B90F819
:100A10002C00824201D21F7006E0B2FBF0F400FB12
:100A2000142008B901201870286890F82C008882DA
:100A3000BDE8F840FFF79EBE032008720949000395
:100A40000880F8BD2406002028060020111A00089E
:100A500000500040A0020020A5190008E919000874
:100A60001E060020320600207047000010B501204D
:100A700000F018F800280CD006480068407A80067C
:100A800002D5012000F032FDBDE81040012000F049
:100A900003B810BD2406002001490860704700001B
:100AA00014040140064A014600201268044B0A4023
:100AB00014331B680B4202D0002A00D0012070477B
:100AC0000004014030B51A498379026853B30B68BA
:100AD00093430B600A1D13680468A34313600279F3
:100AE0000A441368046823431360114A08321368E8
:100AF0000468A3431360131D1C680568AC431C60A5
:100B00004479102C05D021440A68006802430A6029
:100B100030BD116804682143116019680068014301
:100B2000196030BD0079084401689143016030BD0F
:100B3000000401400149086070470000183C024071
:100B400070B505464FF40046304600F08FF8042893
:100B500015D10B4C206840F400702060206840F0F4
:100B60000800206000202860304600F07FF82168EF
:100B700021F008012160216821F40071216070BD1D
:100B8000043C0240084904200A68D20701D0012031
:100B900070470A68D20501D502207047096811F430
:100BA000F05FFAD003207047183C024010B50446AD
:100BB0004FF42060FFF7BEFF2046FFF7C1FF002083
:100BC00010BD0020704770472DE9F0431C4CA1B0C8
:100BD0008A0727460AD04FF6FC73FF250B400A46CA
:100BE0001B1D01E0BD54521C9342FBD86A464306CC
:100BF00006D020F07F0301E020CB20C28342FBD34C
:100C000007EB81064FF000080F4420ADA74213D92F
:100C10004146AA4206D2A64202D908CC08C2F8E749
:100C200002C2F6E720F07F0081466946FFF7BBFA73
:100C300009F180006A46E9E721B00020BDE8F083B1
:100C400038060020064800B50068800707D5FFF782
:100C50009BFB034803490C3001600349016000BD60
:100C6000043C0240BFAE9D8C1615141308B5034614
:100C700004208DF80000FFF785FF8DF8000004E0E8
:100C8000FFF780FF8DF800005B1E9DF80000012833
:100C900001D013B104E0002BF2D105208DF8000043
:100CA0009DF8000008BD000008B1044870470449E1
:100CB000012009680882002070470000E800002039
:100CC0002406002070B504462048002220490578FB
:100CD000204B032D02D0062D2FD117E05D689DB16A
:100CE000042202701B480A711968C06819B91A49B0
:100CF0000978412905D0164A5FF0010100F058FA41
:100D00001BE0134A0021F9E7052311E09B68012B42
:100D100001D033B111E0072303700B71012048703B
:100D200009E00C4B18331B681B7D5B0705D50223BC
:100D300003700B714A708A70CA700CB1044870BDA0
:100D40000649062009680882002070BDE8000020DE
:100D5000F40000202802002038060020240600208D
:100D6000F0B50023012403270D6804FA03F21540AF
:100D7000954240D1D0F800C05E0007FA06F52CEA93
:100D8000050CC0F800C091F804C0D0F800E00CFADF
:100D900006FC4CEA0E0CC0F800C091F804C0BCF18F
:100DA000010F02D0BCF1020F1DD1D0F808C02CEA0F
:100DB000050CC0F808C091F805C0D0F808E00CFA9E
:100DC00006FC4CEA0E0CC0F808C0B0F804C02CEACF
:100DD000020CA0F804C0B0F804C08A799A404CEA2A
:100DE000020CA0F804C0C268AA43C260CA79C568F0
:100DF000B2402A43C2605B1C102BB5D3F0BD4B0739
:100E0000DB0E9A40C90810B500EB8100016A0F247F
:100E10009C40A1430162016A1143016210BD024678
:100E20000020128A0A4200D00120704701837047D7
:100E30004FF6FF7101600021017141718171C17133
:100E4000704700000549096889B201EBC0000449F8
:100E500001EB4000008980B270470000505C004008
:100E6000006000400449096889B201EBC0000349F1
:100E700031F8100080B27047505C004000600040C4
:100E8000094810B5D0E91414406E08180BD0082298
:100E9000064900F03DF8054920460422BDE810400F
:100EA000103100F035B810BD0000F81F67010020B8
:100EB000FEE7000010B5134C2068017A022904D027
:100EC000042902D0062905D015E0FFF753FC20685D
:100ED000007A11E04178052909D10178490606D147
:100EE000C07800F0ADFB08480068006A80470748FA
:100EF000006880688047082021680872BDE81040BB
:100F000000F070BA240600202C06002028060020DD
:100F1000F0B500230A24302537261F4611E000BF14
:100F2000B4EB107F02D905EB107C01E006EB107CDE
:100F300001F813C001EB430C00015B1C8CF801703D
:100F4000DBB29342ECD3F0BD70B5154B0021134CCE
:100F50001A6800EB80057F280EDD03F5F2706E182D
:100F60000644A6F58056491C96F8406CA654C9B2B2
:100F7000521C0529F3D30BE00948001D6E180644E6
:100F8000491C16F8A06CA654C9B2521C0529F5D309
:100F9000104600212154501C186070BD800A0020AA
:100FA000DC0200200020054902464FF400730A5479
:100FB000401C9842FBDB00F0BBB80000800A002018
:100FC000491E01EB4101490100EB400001EB4000EB
:100FD0000149801F08607047DC02002070B53F4C5B
:100FE00010202083082565830A2001F015F8258349
:100FF0000A2001F011F8642001F00EF8002001F041
:1010000035F90121202000F06BF80121002000F0CB
:1010100067F80121B02000F063F80121C02000F042
:101020005FF80121002000F05BF80121102000F0A2
:1010300057F80121402000F053F80121812000F0F1
:101040004FF80121FF2000F04BF80121A12000F012
:1010500047F80121A62000F043F80121A82000F064
:101060003FF801211F2000F03BF80121A42000F0EF
:1010700037F80121D32000F033F80121002000F0DF
:101080002FF80121D52000F02BF80121F02000F0ED
:1010900027F80121D92000F023F80121222000F0B7
:1010A0001FF80121DA2000F01BF80121022000F0D6
:1010B00017F80121DB2000F013F80121202000F0B7
:1010C0000FF801218D2000F00BF80121142000F011
:1010D00007F8BDE87040012001F0C8B800000240E8
:1010E00070B5064C102504220129658304D02283A3
:1010F00000F086FA258370BD6283F9E700000240A4
:1011000030B50024112810D808290ED8FFF758FF51
:10111000064D285D08B1FFF717FF641CE4B2112CDF
:10112000F7D3BDE8304000F06BBF30BD6C0A002043
:1011300070B50F4E002400BF04F1B000C0B2012111
:10114000FFF7CEFF01210020FFF7CAFF0121102089
:10115000FFF7C6FF5FF07F0505EBC4100221305C8E
:10116000FFF7BEFF6D1EF7D5641C042CE4DB70BDD9
:10117000800A00200448817A044809B1052100E072
:101180000121016000F08EBD800C0020C80200200B
:1011900000F07C41B1F1006F01D00120704703499C
:1011A000014A0A60FFF702BDAD0B0008D400002021
:1011B000C0F3816301F00100064901EB830111F8DE
:1011C0001030537031F81000000A90700020D07079
:1011D000704700007A22000810B5FFF7F2FC0020EB
:1011E00010BD000000F07C42B2F1006F01D0002081
:1011F0007047034A014B9360FFF7E5BCC70B00083B
:10120000D400002000F07C42B2F1006F01D0012038
:101210007047034A014B5360FFF7D6BCC90B000867
:10122000D4000020FEE770477047000070B50F2320
:10123000C47801780122F4B1144C2468457804F490
:10124000E064C4F5E064240AC4F10406E340847851
:10125000B5401C402C4301F1E021230181F800340A
:10126000007800F01F018A404009800000F1E02072
:10127000C0F8002170BD01F01F00824048098000C5
:1012800000F1E020C0F8802170BD00000CED00E00E
:101290000249084302490860704700000000FA054F
:1012A0000CED00E070B52F4D2868017844784A06AF
:1012B00006D001F07F00012828D002282BD035E08D
:1012C000092C06D0052C07D0032C0ED0012C14D0ED
:1012D0002CE000F0E7FB28E0C1787F292ED8817848
:1012E00061BB818851BB807A27E0C17801291DD17B
:1012F0008088D8B900F0F2FB17E0C178012915D138
:10130000818899B9407A80060AD40FE00B2C0DD160
:1013100000F03AFC09E0012C02D0032C03D005E0D8
:1013200000F0C2FA01E000F0EBFB58B10E49204694
:10133000096849698847032802D018B108200DE0E0
:1013400009200BE0094A062000211268084B12040C
:1013500003EBD2325160074A3021118029680872AC
:1013600070BD00002406002028060020505C0040CC
:10137000006000403406002010B50F4C2068007A51
:10138000022811D004280FD0032804D0052802D049
:10139000072805D008E0FFF747FA2068007A04E044
:1013A00006480068C0688047082021680872BDE8C8
:1013B000104000F017B80000240600202806002086
:1013C000064B521C520803EB410105D031F8043B97
:1013D00020F8023B521EF9D1704700000060004027
:1013E000704700000C4810B590F82C10002000F059
:1013F0004BF90A480068007A082802D0092809D069
:1014000006E007494FF48050088006491020088004
:10141000002010BD012010BD48020020240600203D
:10142000320600203406002010B5012000F0C8FC70
:101430000648012101600021054A0160031D196071
:101440004FF4E05111800160002010BD405C00406D
:1014500030060020044A0029116801D0014300E051
:1014600081431160704700001C380240044A002983
:10147000116801D0014300E0814311607047000012
:1014800024380240044A0029116801D0014300E0D9
:1014900081431160704700002038024008B50349BD
:1014A00001EB80000090006808BD0000502800405B
:1014B00008B5034A02EB80000090016008BD0000FF
:1014C00050280040002000F07BFCBFF34F8F054800
:1014D0000168054A01F4E06111430160BFF34F8FD9
:1014E000FEE700000CED00E00400FA052DE9F041F4
:1014F000214C072800D0207022781F4D0627052197
:1015000004261E48062A0BD2DFE802F0030C11164F
:101510001E27686810B12170BDE8F08100F030F836
:101520002770F9E700F02CF82670012022E0022055
:10153000607003202070EFE76078401E6070607874
:101540000028E9D12670E7E7026892B242F0100263
:10155000026021700A206070DEE76178491E6170C8
:1015600061780029D8D1016889B221F010010160A9
:10157000277000206860CFE7D0020020405C004068
:1015800010B5064C206880B220F004002060FFF700
:10159000F1FD4FF43F40206010BD0000405C004072
:1015A0000029018802D041F0400101E021F0400112
:1015B000018070470246002012890A4200D00120B3
:1015C00070478181704730B502884C8802F44153DE
:1015D0000A88CD8822438C882C4322430C892243DD
:1015E0004C8922438C892243CC8922431A430280AE
:1015F000828B22F400628283098A018230BD00005E
:1016000010B5064C01462046FFF7DBFF802120463F
:10161000FFF7D0FF0128F9D010BD000000300140D5
:101620007047000005490028486802D040F00100DA
:1016300001E020F001004860704700000000014018
:10164000F0B50E490E4D48F68F770B78002148F221
:10165000800C0BE0CEB205EB8604D4F8002C3A40A7
:10166000324342EA0C02C4F8002C491C9942F1D3DF
:10167000044940F080000860F0BD0000A002002096
:10168000005000404C5C00400D4A12683E2992B266
:1016900002EBC0000B4A02EB400209D94809C90617
:1016A00001D1401E80B24FF4004141EA802004E0A5
:1016B0004808C90700D0401C800210607047000035
:1016C000505C00400C600040810007480144D1F8A4
:1016D000000C4BF68F72104080F4405048F28002AC
:1016E0001043C1F8000C704700500040044A1268D3
:1016F00092B202EBC000034A02EB40004160704727
:10170000505C00400060004082000A480244D2F869
:10171000000C48F6BF731840CB0601D580F01000CE
:10172000890601D580F0200048F280010843C2F804
:10173000000C7047005000400CB500202C4901906F
:1017400000900A6842F480320A604FF4A0630A688D
:1017500002F400320092019A521C0192009A12B9CE
:10176000019A9A42F3D10A6892033FD50120009072
:101770002048026842F004020260026842F002025D
:101780000260026842F001020260194824300268D7
:1017900042F080520260C214174802604268D206CA
:1017A000FCD41348083002680260026802600268D4
:1017B0000260026822F47D020260026842F41102B3
:1017C00002600A6842F080720A600A689201FCD5E1
:1017D000016821F003010160016841F0030101602B
:1017E0000168C1F381010329FAD10CBD00900CBD41
:1017F00000380240003C02400070004010B501215A
:101800000846FFF73FFEFFF71DFAFFF7E5FC012052
:1018100000F0D6FA4FF480242046FFF73DF9054941
:1018200008200C60487101208871BDE8104008460E
:10183000FFF748B9E00000200121C805FFF716BEF8
:1018400070B516480068174D0004C10B14480144D8
:10185000098989B200EB41042868017A09290FD06F
:101860002178017061784170A088FEF7A2FC296898
:1018700048802089FEF79DFC29688880A089C8805F
:10188000286801210172C08828B1FFF71FF8BDE860
:101890007040FFF7A7BDFFF705FDF8E7505C00407B
:1018A00000600040240600202DE9F041384800681F
:1018B000017811F07F0102D0022905D066E0417A5B
:1018C00001F0DF0141724EE0418800295ED10179CB
:1018D000F1BB4179304D21F080040A0605EB84020A
:1018E0002C4BD2F8002C03D5C2F30112120102E0F6
:1018F000C2F3013212031E782346A64246D93AB3F8
:10190000807A28B308064FEA84000ED52844D0F820
:10191000000CC0F30110012821D11846FEF710FD7C
:1019200020463021FFF7F0FE19E04619D6F8000CEA
:10193000C0F30130012812D14BF68F7748F28008AE
:10194000A4B11846FEF7E8FCD6F8000C384000E0D9
:101950001CE080F4405040EA0800C6F8000C0F4834
:101960000068406980470020BDE8F0810C4890F88D
:101970002C100020FFF788FED5F8000C384080F4CA
:10198000405040EA0800C5F8000CE8E70220EBE709
:1019900024060020A0020020005000402C06002059
:1019A0004802002010B5074C30B1074800680068B5
:1019B000804720680A3010BD21680120088200207D
:1019C00010BD0000240600202C060020054A1368E4
:1019D0005A8A10B10868104470478888801A1882A3
:1019E000002070472406002010B5074C30B107488E
:1019F00000688068804720680C3010BD2168012095
:101A00000882002010BD0000240600202C060020C3
:101A1000204910B5096860B11F48002202800A7889
:101A200053060AD002F07F02012A16D0022A16D0ED
:101A300001E002200882002010BD497A8A0602785F
:101A400002D542F0020201E002F0FD0249060270F6
:101A5000D1B211D401F0FE0110E00F4810BD4A7957
:101A6000110713060D4A02EB9161D1F8001C07D54E
:101A7000C1F3011106E0017841F00101017003E0BA
:101A8000C1F301310129F6D005480068006980479B
:101A9000E3E700002406002020060020005000405C
:101AA0002C0600200A4810B500680A4AC17852780E
:101AB000914203D882780AB982880AB1022010BD07
:101AC00081720548006840688047002010BD000012
:101AD00024060020A00200202C060020064810B595
:101AE0000068417A41F02001417204480068C069F1
:101AF0008047002010BD0000240600202C06002096
:101B000070B51D481D4D0368597921F0800005EB23
:101B100080000C06D0F8004C21F0800203D5C4F3FD
:101B20000114240102E0C4F301342403144D2D7880
:101B3000954210D95A8872B96CB19A7A5AB109068D
:101B4000D0F8001C48F2800207D548F6BF73194050
:101B500081F0100106E0022070BD4BF68F73194032
:101B600081F480511143C0F8001C06480068806968
:101B70008047002070BD0000240600200050004077
:101B8000A00200202C06002010B50E4C0E4A206842
:101B90001268C17892694079904721688A7A22B1A7
:101BA00018B9087908B9887808B1022010BD07482B
:101BB0000068C068804720684179C172C1780173AC
:101BC000002010BD24060020280600202C0600203E
:101BD000F8B52B49002000900A682A4B2A4C92B293
:101BE00003EB8005D5F8005CADB244F82050401CF2
:101BF0000828F5D342F48060086040F001000860D6
:101C000020F001050D601E4A121D10684005FCD52C
:101C10004FF6FF301060002054F8206003EB80077F
:101C2000B6B2C7F8006C401C0828F5D345F0080090
:101C30000860086880B240F004000860134B186820
:101C40000090186820F0030040F001001860104870
:101C5000046844F0040404601468E40401D430BF50
:101C600009E04EF6FF7414600A6892B222F008028E
:101C70000A6000991960016821F004010160F8BD53
:101C8000405C0040005000404C0A002000700040C2
:101C900010ED00E002480168491C01607047000037
:101CA000D8020020104810B5016841F4807101602D
:101CB0000D4908310A680D4B1A400A6002680C4B46
:101CC0001A400260026822F480220260086820F450
:101CD0007D000860091D00200860FFF72DFD054903
:101CE0004FF00060086010BD003802400CC0FF8853
:101CF000FEFFFEEE08ED00E02DE9F04706462A481B
:101D00002A4CDFF8AC90C27881782B4B12EB01277C
:101D10002760C1798079274A00EB01216160D9F8F9
:101D200000804FF0090C4FF00000B8F8125016D0A8
:101D3000012F32D983F800C082F804C0507090702F
:101D4000D070B802E268A0F500601044FFF74AFACC
:101D5000A188491B89B2DEB12844BDE8F087032978
:101D600002D90221197001E083F800C019781171BD
:101D7000507012499070D070087021204870412036
:101D800088700EB10846E8E70320A8F8100002E0CA
:101D9000D9F8000001820020DFE70F2119701171CE
:101DA00050709070D070F6E7800C00202802002060
:101DB00024060020F4000020E8000020380600205F
:101DC00000B10120FFF72EBC4FF48020FEF764BE67
:101DD00006480549022201600A72064A0449C0E920
:101DE0000112086800470000800C00202406002033
:101DF00048020020A402002038B54FF4A060FFF78D
:101E000047FA14208DF8000002208DF8010000240C
:101E10008DF8024001258DF803506846FFF706FA59
:101E20002A208DF800008DF801408DF80350684697
:101E3000FFF7FCF938BD00002DE9F0414C4E88B0A9
:101E4000002430684B4D688068884B4F39880840C3
:101E5000000401D5FEF7B2F9688839884FF6FF38DB
:101E60000840400504D5C6F80080444840688047D3
:101E7000698838880140890402D54DF6FF713160C8
:101E800069880140C80405D54EF6FF703060002017
:101E9000FFF72CFB68883988084000050DD53848C5
:101EA000007818B13748006805285ED00220FFF797
:101EB0001DFB00BF4FF2FF70306069883888014019
:101EC000890505D54FF6FF5131602978491C2970E5
:101ED00069880140C80545D54FF6FF603060244849
:101EE000001D00684FF00002000437D56868401CF0
:101EF00068606868032832D91D48001F0168090717
:101F00002DD4016889B2A9601F496B4601EB840793
:101F1000D7F8007CBFB243F82470641C082CF5D3BA
:101F2000AC6844F00104AC60AC68A4B20460AC6876
:101F300024F00104AC60AC68A4B2046030684005D1
:101F4000FCD5C6F80080002053F8204001EB800645
:101F5000A4B2C6F8004C401C0828F5D36A600720DC
:101F6000FFF7C4FA08B0BDE8F081FFF731FEA1E742
:101F7000445C0040E40100203006002048020020BC
:101F8000CC020020C802002000500040FFF754BFE0
:101F900005490020086005494FF43F400880024988
:101FA000091F086000207047445C00403006002094
:101FB000FEE70000094B10B5521C520803EB41012B
:101FC0000AD000BF10F8013B521E10F8014B43EA43
:101FD000042321F8043BF5D110BD0000006000404F
:101FE00002E008C8121F08C1002AFAD170477047E2
:101FF000002001E001C1121F002AFBD17047000040
:102000000020044902460A54401CC0B21428FAD3E6
:10201000704700006C0A002011B50E484FF47A7129
:102020004FF0E0220068B0FBF1F00021401EB0F15B
:10203000807F07D25061084BF02083F8140D916126
:1020400007201061054801600368009CA342FBD390
:10205000116118BD000600200FE000E0D80200204A
:10206000F0B54148012587B0C57029462846FFF7DD
:10207000F1F901210220FFF7EDF901210420FFF71A
:10208000E9F901210803FFF7FDF9384F0522114650
:102090003846FEF7B4FE052207213846FEF7AFFEAC
:1020A000A020009002208DF8040003268DF8056022
:1020B00000248DF806408DF8074069463846FEF743
:1020C0004FFE8DF8045008208DF8064000908DF8E2
:1020D00007408DF8056069463846FEF741FE8DF8E9
:1020E000045010208DF8064000908DF807508DF8B0
:1020F000056069463846FEF733FE8DF8056004201A
:102100008DF8045000908DF806408DF80740694620
:102110003846FEF725FEADF808404FF48270ADF862
:102120000A00ADF810403002ADF812001820ADF8EA
:102130001400ADF80C40ADF80E40ADF81640072085
:102140000B4CADF8180002A92046FFF73CFA01211C
:102150002046FFF725FA0A20FFF75EFFFEF73EFF55
:10216000FEF720FF07B0F0BD380A00200000024053
:10217000003001401CB501210846FFF76BF90A2029
:10218000FFF74AFF6846FEF753FE01208DF8040072
:1021900000208DF8060003218DF805102E4D4FF418
:1021A00080648DF80700009469462846FEF7D8FD44
:1021B0000A20FFF731FF21462846FEF737FE64204C
:1021C000FFF72AFFFEF7F2F80120FFF767F9234C2B
:1021D000A0F59051343911D0FEF7FCF890B12048A9
:1021E0000168204A1140B1F1005F0BD14168A16044
:1021F0006160006880F30888884703E000210120BF
:10220000FFF756F9FFF72CFF1748442101704621CC
:102210004170552181702021C1704D2101716F21C4
:102220004171642181716521C17101210846FEF768
:1022300067FFFEF77DFF4FF4FA60FFF7EDFE0749F9
:102240000A200C31207008700871FFF7D7FAFFF7E9
:10225000F3FAFFF7BDFDFEE700000240E8000020B2
:10226000003000080000FE2F6C0A002008B1AF20EB
:1022700000E0AE200121FEF733BFB80B1400E803E5
:10228000190064006800E8031900E8032D0000004D
:10229000C022000800000020D4000000E01F000859
:1022A00094230008D40000206405000050010008B9
:1022B0008C27000838060020680A0000F01F00087C
:1022C0002DE9F0474FF0E0280E46D8F808100746F1
:1022D000002541F00101C8F808104FF400494846B4
:1022E00000F03AF8042819D1104C206840F48060BE
:1022F0002060206840F00800206001CE47F82500EB
:102300006D1C202DF9D3484600F026F8216821F0F5
:1023100008012160216821F480612160D8F808203B
:1023200022F00102C8F80820BDE8F087043C024012
:10233000084904200A68D20701D0012070470A68C2
:10234000D20501D502207047096811F4F05FFAD078
:1023500003207047183C024038B5044604208DF82D
:102360000000FFF7E5FF8DF8000004E0FFF7E0FF55
:102370008DF80000641E9DF80000012801D014B102
:1023800004E0002CF2D105208DF800009DF800003B
:1023900038BD0000012613120132011640830411DA
:1023A000DF1009020102030109021B13010135C0FC
:1023B0003209042009FE01020409210BFF100B045D
:1023C0001A01040309042603531254124D12691210
:1023D000631272126F12651A6C0412633A740E3A29
:1023E0006E1812735A14261233123212201244122B
:1023F0004612559A1A14E1146203401A493C1A74A1
:102400004A1A72081A61541A20341A6C0A12731A82
:10241000680C1220122F12301A78041A380489021C
:10242000122F1A34121A2A5212351A362612611A2B
:102430002C121A360489140212671329120A320860
:1024400004D112302308FA332012130C0133201B5D
:1024500013B906140855051B0819081A1D0413E1C1
:102460000314089D041B088D041A61041A55041AEC
:102470006D044132401A273832041A2B0832261ACA
:10248000510832141A6508321A1A7F0832624B0159
:1024900001B41AF55C09169C1A0D7041192B01182C
:1024A000325F1A07021B147F021015242A7F2A129A
:1024B0002313086462364955225044445F4444243F
:1024C0001C22411441221C1F14083E081408051246
:1024D000082350302A0801111B6060F0100A100810
:1024E00004023E5149453E14427F40102942615149
:1024F00049462141454B311814127F102745454567
:10250000393C4A4949300171090503364949493680
:10251000064949291E3336361A56051B0814642A03
:102520001401196928131408020151090632497966
:10253000413E7E1111117E7F321F3E414141227F7B
:10254000042A1C0F180D417F090909013E41494920
:102550007A7F86127F14417F412F2040413F017FC7
:102560004C1B7F4001280B7F020C027F7F04081068
:102570007F3C2A3E32180D063E4151215E7F0919EB
:102580002946464618083101017F01013F2C1816E3
:102590003F1F2040201F3F4038403F631408146312
:1025A0000708700807C71345431974111A02461229
:1025B000201441417F2E04020102045E12401909D9
:1025C00011181020545454787F48444438384444F7
:1025D0004420051C487F3814101118087E09010298
:1025E0000C5252523E7F080404781C447D40A013D4
:1025F000443D257F10284419A2112F7C041804782B
:102600007C1E293C1B387CFE2F08081414187C14EF
:102610001B080846180D20043F4440203C40402041
:102620007C1CA018091C3C4030403C442842100B44
:102630000C5050503C4464544C4434083641327F72
:1026400014413608281110080810087846414678C9
:102650007E1111117E7FE629051A36E9280801034B
:10266000603E21217F0F28094177087F08772241AA
:102670001918081008047F7F100905180E08142285
:1026800041403E01017F7F020C020F280908087FAC
:102690003E4141413E3C2F7F7F090909060F1A2226
:1026A0000D28180101274848483F1E217F211E633D
:1026B000140814633F20203F6007321B7F4002183C
:1026C0000E3F203F207F017F4848307F48309D29C2
:1026D0000A296E180D3E7F083E413E462919097FA2
:1026E00020E1100B783C4A4A4A307C5454281B7C29
:1026F00004011F603824247C381917186C107C10D2
:102700006C1A441A180C7C2010087C7C2112097C5D
:102710007CF9111F403804047C7CE5190F2809104E
:10272000107C38444444383C2F7C7C141414080F2B
:1027300011190D180F04040C5050503C08147C144F
:10274000084428382F3C20203C600C321B7C40027F
:10275000100E3C203C207C047C5050207C502012E9
:102760007C290A1A286E100C387C103844384854DA
:1027700034147C800D48E801030406080C1018206E
:0C278000301B010213041B0708090000B5
:04000005080000F5FA
:00000001FF
