:020000040800F2
:1000000068110020090100080F120008910E000875
:100010000D120008B1010008691F0008000000006F
:10002000000000000000000000000000E5150008CE
:10003000690A000800000000C9130008591C0008E4
:100040002301000823010008230100082301000800
:1000500023010008230100082301000823010008F0
:1000600023010008230100082301000823010008E0
:1000700023010008230100082301000823010008D0
:1000800023010008230100082301000823010008C0
:10009000451F000823010008230100082301000870
:1000A00023010008230100082301000823010008A0
:1000B0002301000823010008230100082301000890
:1000C0002301000823010008230100082301000880
:1000D0002301000823010008230100082301000870
:1000E0006D0A0008230100088D1D00082301000887
:1000F00023010008DFF80CD000F018F80048004792
:10010000652000086811002006488047064800471F
:10011000FEE7FEE7FEE7FEE7FEE7FEE7FEE7FEE7B7
:10012000FEE7FEE7691C0008F5000008064C074DD5
:1001300006E0E06840F0010394E8070098471034B7
:10014000AC42F6D3FFF7DAFF202200085022000865
:1001500070B58C1810F8015B15F0070301D110F889
:10016000013B2A1106D110F8012B03E010F8016BB6
:1001700001F8016B5B1EF9D12B0705D40023521E39
:100180000DD401F8013BFAE710F8013BCB1A921CA1
:1001900003E013F8015B01F8015B521EF9D5A1429F
:1001A000D8D3002070BD40F2010CC2F2000C6047B1
:1001B000FEE7C1B2000A40EA012070472DE9F84F7E
:1001C0000020ADF80000DFF834A14BF6BF7648F20E
:1001D00080074A4D4A4C40F68F7848F60F7BDFF88F
:1001E00024910AF1440A31E00888474A10F00F00D0
:1001F000107034D0454901EB8001D1F8002CADF8E6
:100200000020BDF8002012040BD5D1F8002C02EA22
:100210000802C1F8002C3E4901EB800050F8040CA4
:100220008047BDF80000000610D5374837490078F0
:1002300001EB8001D1F8002C02EA0B02C1F8002C7E
:10024000344901EB800050F8040C8047DAF80000D4
:100250004946A9F800000004C6D4BDE8F88F286814
:100260002080208800F030006080208800F440501A
:1002700020802868304080F4005080F0200038430F
:1002800028600888C006286815D400EA0B0028609A
:1002900000F000FE26E02188890401D580F400509A
:1002A0006188C90626D46188890601D580F02000BE
:1002B00038432860D1E7ADF80000BDF80000000524
:1002C00006D5286800EA0800286001F09BFA09E0DA
:1002D000BDF800000004B9D5286800EA08002860CD
:1002E00001F03EF8286821883040C904D3D580F455
:1002F0008050D0E780F01000D5E70000005C00409F
:1003000016060020E60100200406002000500040F0
:100310000C020020F0010020810008480844D0F8B9
:10032000001C490409D5D0F8001C48F68F72114012
:100330004CF280021143C0F8001C7047005000408E
:10034000810008480844D0F8001C490609D5D0F8B7
:10035000001C48F68F72114048F2C0021143C0F8E9
:10036000001C704700500040810006480144D1F84D
:10037000000C48F68F62104048F280021043C1F82A
:10038000000C70470050004005480068C00705D0C9
:1003900003480449083001600349016070470000C8
:1003A000043C0240EFCDAB89050403021CB50121DA
:1003B000022001F043F800208DF8040001208DF8A0
:1003C000070000906946024800F0CAFC1CBD00000E
:1003D000000402400121014800F011BD0004024068
:1003E000164910B50A68117801F07F01212922D140
:1003F000134B0228197806D001280AD0052810D0FE
:10040000032810D017E0022901D0092913D10D4982
:100410000AE0022901D005290DD1032018700A49EC
:1004200002E00A4900E00A4929B1002091615082A6
:100430008847002010BD022010BD000008060020E3
:10044000E8000020BD1C000821070008A90C0008D6
:10045000C50C0008014901F09BBA000040020020D1
:10046000014901F095BA00003802002005490968E9
:10047000C978082901D900207047034A02EBC1015D
:1004800001F086BA0806002078020020032901D86E
:10049000022801D9022070470020704770B5294911
:1004A0000968097801F07F01212912D1284B002227
:1004B000254E26491D78012807D00224022813D092
:1004C000042817D0062828D003E0052D03D0022DDC
:1004D00001D0022070BD0120B060062018704A7063
:1004E0008A70CA7008712BE01C704A708A70CA70DA
:1004F0000C7125E00A2D09D00A2018700E230B700C
:100500004A708A70CA7008714A7119E01C700A70CA
:100510004A708A70CA700C71F6E7022D07D0032D5D
:1005200005D0052D03D0062D01D0092D08D11C7052
:100530000A704A708A70CA700C714A7132607260B7
:10054000002070BD0806002028020020F4000020D2
:10055000E800002070B520490020214A88721F4918
:100560001268204CC979517220601E4850380168C9
:1005700048F68F12114041F400710160016848F69D
:10058000BF72114081F0200148F2800211430160E6
:1005900021681020144D090405EBD131134E8860F9
:1005A000002016F82C1F01F051F821685020090492
:1005B00005EBD13108603178002001F079F8002096
:1005C000FFF7D2FE002001F061F8002001F01AF8D8
:1005D00007490120086070BD4C0D00200C0100206F
:1005E00008060020505C00400060004048020020E7
:1005F000C80200200348807A002802D00249052062
:10060000086070474C0D0020C802002001490420FA
:1006100008607047C80200207047000070B521488C
:100620004078032821D1204D2878042805D00728B8
:100630001BD1BDE8704000F053B81C4C2146206827
:10064000496898B1012806D98002E268A0F50060E7
:10065000104400F0CBFD00206060154903222060AB
:100660002A700A7148708870C87070BD114802788D
:10067000002AF0D046788378212A06EB0323C67837
:10068000007903EB064303EB006007D0412AE2D177
:100690000529E0D1E06000F06FFDDCE70529DAD143
:1006A000E060D8E74C0D0020E80000202802002080
:1006B000F40000201C06002070B5074D00F0D0FBB0
:1006C0000024AC7200F0A4FE01F03EFC01F076FBC9
:1006D0000248046070BD00004C0D0020C8020020DC
:1006E0000C4900200C4A886018310968097D4B07C5
:1006F0000A4906D5062313700B7148708870C870BC
:100700007047082313700B7148708870C87000F030
:10071000CDBE000028020020E8000020F4000020E8
:100720000E4910B5CC788A780D4B04EB02221A6082
:10073000CA798C7904EB02225A600A4C498A032355
:100740002370094C521A92B2237110B10748084421
:1007500010BD074800680282002010BD4C0D00202B
:1007600028020020E8000020F40000201C060020E1
:10077000080600202DE9F047DFF89480254F4FF060
:100780003009D8F8001001F11005088A0E7A08B96E
:10079000042E04D0AC88A04215D8042614E01E48CC
:1007A0000178012903D00726102038802BE01B4A4E
:1007B000002112681A4B120403EBD2325160A7F8E1
:1007C000009001701FE00226844200D90446A96807
:1007D000204688478246002000F034FB014622462E
:1007E000504601F0C3FB2146002000F061FF28883D
:1007F000001B2880688820446880A7F80090094979
:100800004FF440500880D8F800000672BDE8F08729
:10081000080600201806002000060020505C00405A
:1008200000600040160600202DE9F047224EDFF858
:100830008C803027356835F8100FA968A9B100B34E
:10084000AC88844200D904462046884781462888DF
:10085000001B2880688820446880002000F0E2FAAD
:1008600001462246484600F09FFD288848B11449B9
:100870004FF4405008800021084600F019FFA8F806
:1008800000702888A988884201D3032001E020B1A4
:10089000052031680872BDE8F087316806200872CB
:1008A000084900200968084A090402EBD131486070
:1008B000A8F80070EFE700000806002018060020E6
:1008C00016060020505C004000600040F8B55D4C0A
:1008D0005D4D09262068002729684278062A05D040
:1008E000AAB1082A4DD00A2A50D06BE002785206ED
:1008F00068D18078012804D0022804D0032804D0CD
:1009000060E0C96956E0096A54E0496A52E04288E9
:10091000B2BBC288022A55D102798ABB027853063B
:1009200001D1838833B102F07F02012A04D0022A68
:100930000CD047E045493DE08A6940790021904765
:10094000F0B92068807A0028F4D13BE0417901F0C9
:100950000F0001F070020B063D4901EB8001D1F858
:10096000001C03D5C1F30111090102E0C1F30131FB
:100970000903384B1B78834224D90AB90029D9D1FD
:1009800020E0007840061DD1334913E0027802F0E0
:100990007F02012A16D1827AA2B1428892B90279E5
:1009A00082B9C288012A0DD18A6940790021904715
:1009B00040B92A4931B120684782816100208847C7
:1009C000002006E0296820680969407888470328E4
:1009D00013D021680A8AA2F57F43FF3B0BD002287F
:1009E0000ED06AB10878000626D5C88800908242E9
:1009F0000AD9088218E00E72F8BD20680672F8BDA8
:100A00004FF008000872F8BD0ED22868144B90F819
:100A10002C00824201D21F7006E0B2FBF0F400FB12
:100A2000142008B901201870286890F82C008882DA
:100A3000BDE8F840FFF79EBE032008720949000395
:100A40000880F8BD080600200C060020D519000813
:100A500000500040A002002069190008AD190008EC
:100A600000060020160600207047000010B5012087
:100A700000F018F800280CD006480068407A80067C
:100A800002D5012000F026FDBDE81040012000F055
:100A900003B810BD08060020014908607047000037
:100AA00014040140064A014600201268044B0A4023
:100AB00014331B680B4202D0002A00D0012070477B
:100AC0000004014030B51A498379026853B30B68BA
:100AD00093430B600A1D13680468A34313600279F3
:100AE0000A441368046823431360114A08321368E8
:100AF0000468A3431360131D1C680568AC431C60A5
:100B00004479102C05D021440A68006802430A6029
:100B100030BD116804682143116019680068014301
:100B2000196030BD0079084401689143016030BD0F
:100B3000000401400149086070470000183C024071
:100B400070B505464FF40046304600F08FF8042893
:100B500015D10B4C206840F400702060206840F0F4
:100B60000800206000202860304600F07FF82168EF
:100B700021F008012160216821F40071216070BD1D
:100B8000043C0240084904200A68D20701D0012031
:100B900070470A68D20501D502207047096811F430
:100BA000F05FFAD003207047183C024010B50446AD
:100BB0004FF42060FFF7BEFF2046FFF7C1FF002083
:100BC00010BD0020704770472DE9F0431C4CA1B0C8
:100BD0008A0727460AD04FF6FC73FF250B400A46CA
:100BE0001B1D01E0BD54521C9342FBD86A464306CC
:100BF00006D020F07F0301E020CB20C28342FBD34C
:100C000007EB81064FF000080F4420ADA74213D92F
:100C10004146AA4206D2A64202D908CC08C2F8E749
:100C200002C2F6E720F07F0081466946FFF7BBFA73
:100C300009F180006A46E9E721B00020BDE8F083B1
:100C40001C060020064800B50068800707D5FFF79E
:100C50009BFB034803490C3001600349016000BD60
:100C6000043C0240BFAE9D8C1615141308B5034614
:100C700004208DF80000FFF785FF8DF8000004E0E8
:100C8000FFF780FF8DF800005B1E9DF80000012833
:100C900001D013B104E0002BF2D105208DF8000043
:100CA0009DF8000008BD000008B1044870470449E1
:100CB000012009680882002070470000E800002039
:100CC0000806002070B50446204800222049057817
:100CD000204B032D02D0062D2FD117E05D689DB16A
:100CE000042202701B480A711968C06819B91A49B0
:100CF0000978412905D0164A5FF0010100F04CFA4D
:100D00001BE0134A0021F9E7052311E09B68012B42
:100D100001D033B111E0072303700B71012048703B
:100D200009E00C4B18331B681B7D5B0705D50223BC
:100D300003700B714A708A70CA700CB1044870BDA0
:100D40000649062009680882002070BDE8000020DE
:100D5000F4000020280200201C06002008060020C5
:100D6000F0B50023012403270D6804FA03F21540AF
:100D7000954240D1D0F800C05E0007FA06F52CEA93
:100D8000050CC0F800C091F804C0D0F800E00CFADF
:100D900006FC4CEA0E0CC0F800C091F804C0BCF18F
:100DA000010F02D0BCF1020F1DD1D0F808C02CEA0F
:100DB000050CC0F808C091F805C0D0F808E00CFA9E
:100DC00006FC4CEA0E0CC0F808C0B0F804C02CEACF
:100DD000020CA0F804C0B0F804C08A799A404CEA2A
:100DE000020CA0F804C0C268AA43C260CA79C568F0
:100DF000B2402A43C2605B1C102BB5D3F0BD024643
:100E00000020128A0A4200D00120704741837047B7
:100E10004FF6FF7101600021017141718171C17153
:100E2000704700000549096889B201EBC000044918
:100E300001EB4000008980B270470000505C004028
:100E4000006000400449096889B201EBC000034911
:100E500031F8100080B27047505C004000600040E4
:100E6000094810B5D0E91414406E08180BD00822B8
:100E7000064900F03DF8054920460422BDE810402F
:100E8000103100F035B810BD0000F81F67010020D8
:100E9000FEE7000010B5134C2068017A022904D047
:100EA000042902D0062905D015E0FFF763FC20686D
:100EB000007A11E04178052909D10178490606D167
:100EC000C07800F09FFB08480068006A8047074828
:100ED000006880688047082021680872BDE81040DB
:100EE00000F074BA08060020100600200C0600204E
:100EF000F0B500230A24302537261F4611E000BF35
:100F0000B4EB107F02D905EB107C01E006EB107CFE
:100F100001F813C001EB430C00015B1C8CF801705D
:100F2000DBB29342ECD3F0BD70B5154B0021134CEE
:100F30001A6800EB80057F280EDD03F5F2706E184D
:100F40000644A6F58056491C96F8406CA654C9B2D2
:100F5000521C0529F3D30BE00948001D6E18064406
:100F6000491C16F8A06CA654C9B2521C0529F5D329
:100F7000104600212154501C186070BD4C0B0020FD
:100F8000DC0200200020054902464FF400730A5499
:100F9000401C9842FBDB00F0BFB800004C0B002067
:100FA000491E01EB4101490100EB400001EB40000B
:100FB0000149801F08607047DC02002070B53F4C7B
:100FC00010202083082565830A2001F001F825837D
:100FD0000A2000F0FDFF642000F0FAFF002001F07D
:100FE0000DF90121202000F06BF80121002000F014
:100FF00067F80121B02000F063F80121C82000F05B
:101000005FF80121002000F05BF80121102000F0C2
:1010100057F80121402000F053F80121812000F011
:101020004FF80121FF2000F04BF80121A12000F032
:1010300047F80121A62000F043F80121A82000F084
:101040003FF801211F2000F03BF80121A42000F00F
:1010500037F80121D32000F033F80121002000F0FF
:101060002FF80121D52000F02BF80121F02000F00D
:1010700027F80121D92000F023F80121222000F0D7
:101080001FF80121DA2000F01BF80121022000F0F6
:1010900017F80121DB2000F013F80121202000F0D7
:1010A0000FF801218D2000F00BF80121142000F031
:1010B00007F8BDE87040012001F0A0B80000024030
:1010C00070B5084D1024042601296C8305D02E83A9
:1010D00000F082FA2C836E8370BD6E8300F07CFA80
:1010E0002C8370BD0000024030B50024112810D8B8
:1010F00008290ED8FFF754FF064D285D08B1FFF709
:1011000013FF641CE4B2112CF7D3BDE8304000F0AB
:1011100053BF30BD380B002070B50F4E002400BF08
:1011200004F1B000C0B20121FFF7CAFF0121002085
:10113000FFF7C6FF01211020FFF7C2FF5FF07F0518
:1011400005EBC4100221305CFFF7BAFF6D1EF7D526
:10115000641C042CE4DB70BD4C0B00200448817A35
:10116000044809B1052100E00121016000F07CBDC7
:101170004C0D0020C802002000F07C41B1F1006F4E
:1011800001D0012070470349014A0A60FFF70EBDF4
:10119000AD0B0008D4000020C0F3816301F0010012
:1011A000064901EB830111F81030537031F810003B
:1011B000000A90700020D070704700000A220008DA
:1011C00010B5FFF7FEFC002010BD000000F07C42CF
:1011D000B2F1006F01D000207047034A014B9360C9
:1011E000FFF7F1BCC70B0008D400002000F07C42E0
:1011F000B2F1006F01D001207047034A014B5360E8
:10120000FFF7E2BCC90B0008D4000020FEE77047DE
:101210007047000070B50F23C47801780122F4B143
:10122000144C2468457804F4E064C4F5E064240AAE
:10123000C4F10406E3408478B5401C402C4301F11E
:10124000E021230181F80034007800F01F018A407A
:101250004009800000F1E020C0F8002170BD01F0DD
:101260001F0082404809800000F1E020C0F8802182
:1012700070BD00000CED00E002490843024908601F
:10128000704700000000FA050CED00E070B52F4D2E
:101290002868017844784A0606D001F07F000128CA
:1012A00028D002282BD035E0092C06D0052C07D0F9
:1012B000032C0ED0012C14D02CE000F0D5FB28E03C
:1012C000C1787F292ED8817861BB818851BB807A13
:1012D00027E0C17801291DD18088D8B900F0E0FB52
:1012E00017E0C178012915D1818899B9407A800623
:1012F0000AD40FE00B2C0DD100F028FC09E0012CE2
:1013000002D0032C03D005E000F0B0FA01E000F0B9
:10131000D9FB58B10E492046096849698847032816
:1013200002D018B108200DE009200BE0094A062080
:1013300000211268084B120403EBD2325160074AB5
:10134000302111802968087270BD00000806002055
:101350000C060020505C0040006000401806002091
:1013600010B50F4C2068007A022811D004280FD045
:10137000032804D0052802D0072805D008E0FFF78D
:1013800053FA2068007A04E006480068C068804785
:10139000082021680872BDE8104000F017B800006E
:1013A000080600200C060020064B521C520803EBD6
:1013B000410105D031F8043B20F8023B521EF9D11F
:1013C0007047000000600040704700000C4810B5F6
:1013D00090F82C10002000F039F90A480068007AD3
:1013E000082802D0092809D006E007494FF48050A8
:1013F0000880064910200880002010BD012010BD83
:1014000048020020080600201606002018060020CA
:1014100010B5012000F0B6FC064801210160002152
:10142000054A0160031D19604FF4E051118001600D
:10143000002010BD405C004014060020044A002932
:10144000116801D0014300E0814311607047000042
:101450001C380240044A0029116801D0014300E011
:10146000814311607047000024380240044A00297B
:10147000116801D0014300E0814311607047000012
:101480002038024008B5034901EB80000090006855
:1014900008BD00005028004008B5034A02EB800058
:1014A0000090016008BD000050280040002000F0BE
:1014B00069FCBFF34F8F05480168054A01F4E061FC
:1014C00011430160BFF34F8FFEE700000CED00E019
:1014D0000400FA052DE9F041214C072800D02070C6
:1014E00022781F4D0627052104261E48062A0BD206
:1014F000DFE802F0030C11161E27686810B1217096
:10150000BDE8F08100F030F82770F9E700F02CF822
:101510002670012022E00220607003202070EFE797
:101520006078401E607060780028E9D12670E7E797
:10153000026892B242F01002026021700A206070CC
:10154000DEE76178491E617061780029D8D10168B1
:1015500089B221F010010160277000206860CFE798
:10156000D0020020405C004010B5064C206880B2DC
:1015700020F004002060FFF7F1FD4FF43F402060B1
:1015800010BD0000405C00400029018802D041F0FD
:10159000400101E021F040010180704781817047E6
:1015A00030B502884C8802F441530A88CD88224322
:1015B0008C882C4322430C8922434C8922438C89FA
:1015C0002243CC8922431A430280828B22F4006298
:1015D0008283098A018230BD01460148FFF7DEBFE0
:1015E000003001407047000005490028486802D0DB
:1015F00040F0010001E020F0010048607047000069
:1016000000000140F0B50E490E4D48F68F770B787B
:10161000002148F2800C0BE0CEB205EB8604D4F832
:10162000002C3A40324342EA0C02C4F8002C491C18
:101630009942F1D3044940F080000860F0BD0000F9
:10164000A0020020005000404C5C00400D4A12688F
:101650003E2992B202EBC0000B4A02EB400209D9CC
:101660004809C90601D1401E80B24FF4004141EA49
:10167000802004E04808C90700D0401C80021060A8
:1016800070470000505C00400C600040810007483B
:101690000144D1F8000C4BF68F72104080F440509A
:1016A00048F280021043C1F8000C7047005000401F
:1016B000044A126892B202EBC000034A02EB4000F7
:1016C00041607047505C00400060004082000A4862
:1016D0000244D2F8000C48F6BF731840CB0601D57F
:1016E00080F01000890601D580F0200048F28001CA
:1016F0000843C2F8000C7047005000400CB50020B1
:101700002C49019000900A6842F480320A604FF43C
:10171000A0630A6802F400320092019A521C0192FE
:10172000009A12B9019A9A42F3D10A6892033FD5FE
:10173000012000902048026842F004020260026822
:1017400042F002020260026842F00102026019489F
:101750002430026842F080520260C21417480260CE
:101760004268D206FCD4134808300268026002685E
:10177000026002680260026822F47D020260026870
:1017800042F4110202600A6842F080720A600A683C
:101790009201FCD5016821F003010160016841F06C
:1017A000030101600168C1F381010329FAD10CBD75
:1017B00000900CBD00380240003C02400070004028
:1017C00010B501210846FFF751FEFFF73BFAFFF77E
:1017D000F7FC012000F0D6FA4FF480242046FFF7F2
:1017E0005BF9054908200C60487101208871BDE84B
:1017F00010400846FFF766B9E00000200121C80547
:10180000FFF728BE70B516480068174D0004C10BDD
:1018100014480144098989B200EB41042868017A1F
:1018200009290FD02178017061784170A088FEF7F6
:10183000C0FC296848802089FEF7BBFC29688880A5
:10184000A089C880286801210172C08828B1FFF7EB
:101850003DF8BDE87040FFF7B9BDFFF717FDF8E7A9
:10186000505C004000600040080600202DE9F04177
:1018700038480068017811F07F0102D0022905D0B4
:1018800066E0417A01F0DF0141724EE041880029B3
:101890005ED10179F1BB4179304D21F080040A0617
:1018A00005EB84022C4BD2F8002C03D5C2F30112B5
:1018B000120102E0C2F3013212031E782346A6424F
:1018C00046D93AB3807A28B308064FEA84000ED589
:1018D0002844D0F8000CC0F30110012821D118468B
:1018E000FEF72EFD20463021FFF7F0FE19E04619E5
:1018F000D6F8000CC0F30130012812D14BF68F77D7
:1019000048F28008A4B11846FEF706FDD6F8000C90
:10191000384000E01CE080F4405040EA0800C6F87F
:10192000000C0F480068406980470020BDE8F08146
:101930000C4890F82C100020FFF788FED5F8000C1A
:10194000384080F4405040EA0800C5F8000CE8E751
:101950000220EBE708060020A00200200050004013
:10196000100600204802002010B5074C30B107488F
:1019700000680068804720680A3010BD2168012097
:101980000882002010BD000008060020100600207C
:10199000054A13685A8A10B108681044704788884D
:1019A000801A1882002070470806002010B5074CE6
:1019B00030B1074800688068804720680C3010BD4F
:1019C000216801200882002010BD000008060020C8
:1019D00010060020204910B5096860B11F48002298
:1019E00002800A7853060AD002F07F02012A16D03C
:1019F000022A16D001E002200882002010BD497A98
:101A00008A06027802D542F0020201E002F0FD02ED
:101A100049060270D1B211D401F0FE0110E00F4866
:101A200010BD4A79110713060D4A02EB9161D1F8F6
:101A3000001C07D5C1F3011106E0017841F0010156
:101A4000017003E0C1F301310129F6D005480068B7
:101A500000698047E3E70000080600200206002036
:101A600000500040100600200A4810B500680A4ADD
:101A7000C1785278914203D882780AB982880AB133
:101A8000022010BD81720548006840688047002030
:101A900010BD000008060020A00200201006002053
:101AA000064810B50068417A41F0200141720448AF
:101AB0000068C0698047002010BD000008060020B3
:101AC0001006002070B51D481D4D0368597921F09E
:101AD000800005EB80000C06D0F8004C21F080025D
:101AE00003D5C4F30114240102E0C4F30134240338
:101AF000144D2D78954210D95A8872B96CB19A7AE2
:101B00005AB10906D0F8001C48F2800207D548F601
:101B1000BF73194081F0100106E0022070BD4BF642
:101B20008F73194081F480511143C0F8001C06489E
:101B3000006880698047002070BD00000806002012
:101B400000500040A00200201006002010B50E4CEE
:101B50000E4A20681268C1789269407990472168DE
:101B60008A7A22B118B9087908B9887808B10220B0
:101B700010BD07480068C068804720684179C1727D
:101B8000C1780173002010BD080600200C0600205B
:101B900010060020F8B52B49002000900A682A4B57
:101BA0002A4C92B203EB8005D5F8005CADB244F844
:101BB0002050401C0828F5D342F48060086040F0B3
:101BC0000100086020F001050D601E4A121D10681A
:101BD0004005FCD54FF6FF301060002054F820601F
:101BE00003EB8007B6B2C7F8006C401C0828F5D399
:101BF00045F008000860086880B240F00400086002
:101C0000134B18680090186820F0030040F00100A2
:101C100018601048046844F0040404601468E40484
:101C200001D430BF09E04EF6FF7414600A6892B226
:101C300022F008020A6000991960016821F004018D
:101C40000160F8BD405C004000500040180B0020CF
:101C50000070004010ED00E002480168491C01607E
:101C600070470000D8020020104810B5016841F408
:101C7000807101600D4908310A680D4B1A400A60F5
:101C800002680C4B1A400260026822F48022026053
:101C9000086820F47D000860091D00200860FFF737
:101CA0002DFD05494FF00060086010BD003802406E
:101CB0000CC0FF88FEFFFEEE08ED00E02DE9F047C6
:101CC00006462A482A4CDFF8AC90C27881782B4B24
:101CD00012EB01272760C1798079274A00EB0121A7
:101CE0006160D9F800804FF0090C4FF00000B8F89F
:101CF000125016D0012F32D983F800C082F804C0E8
:101D000050709070D070B802E268A0F50060104486
:101D1000FFF75CFAA188491B89B2DEB12844BDE80F
:101D2000F087032902D90221197001E083F800C06D
:101D300019781171507012499070D070087021207C
:101D40004870412088700EB10846E8E70320A8F8E3
:101D5000100002E0D9F8000001820020DFE70F2127
:101D60001970117150709070D070F6E74C0D002012
:101D70002802002008060020F4000020E8000020CF
:101D80001C06002000B10120FFF72EBC4FF480207C
:101D9000FEF782BE06480549022201600A72064A21
:101DA0000449C0E901120868004700004C0D0020FA
:101DB0000806002048020020A402002038B54FF495
:101DC000A060FFF759FA14208DF8000002208DF86A
:101DD000010000248DF8024001258DF8035068466B
:101DE000FFF718FA2A208DF800008DF801408DF8D1
:101DF00003506846FFF70EFA38BD00002DE9F041A8
:101E00004A4E88B000243068494D68806888494F40
:101E100039880840000401D5FEF7D0F96888398870
:101E20004FF6FF380840400504D5C6F80080424808
:101E300040688047698838880140890402D54DF69A
:101E4000FF71316069880140C80405D54EF6FF7006
:101E500030600020FFF73EFB6888398808400005A5
:101E60000BD53648007810B1FFF794FE02E002204F
:101E7000FFF730FB4FF2FF7030606988388801400F
:101E8000890505D54FF6FF5131602978491C297025
:101E900069880140C80545D54FF6FF60306023488A
:101EA000001D00684FF00001000437D56868401C31
:101EB00068606868032832D91C48001F026812074E
:101EC0002DD4026892B2AA601D4A6B4602EB8407C9
:101ED000D7F8007CBFB243F82470641C082CF5D3FB
:101EE000AC6844F00104AC60AC68A4B20460AC68B7
:101EF00024F00104AC60AC68A4B204603068400512
:101F0000FCD5C6F80080002053F8204002EB800684
:101F1000A4B2C6F8004C401C0828F5D3696007201D
:101F2000FFF7D8FA08B0BDE8F0810000445C00403B
:101F3000E40100201406002048020020CC0200200A
:101F400000500040FFF75ABF0549002008600549CE
:101F50004FF43F4008800249091F08600020704785
:101F6000445C004014060020FEE70000094B10B559
:101F7000521C520803EB41010AD000BF10F8013B8C
:101F8000521E10F8014B43EA042321F8043BF5D11B
:101F900010BD00000060004002E008C8121F08C128
:101FA000002AFAD170477047002001E001C1121FDA
:101FB000002AFBD1704700000020044902460A5461
:101FC000401CC0B21428FAD370470000380B002020
:101FD0004FF0E02241F61F415161074BF02183F899
:101FE000141D0021916107231361044B1980814264
:101FF000FDD31161704700000FE000E0D80200201F
:102000001CB5164801242146C4702046FFF716FA75
:1020100001210220FFF712FA01210420FFF70EFA36
:102020006846FEF7F5FE1C2000908DF80440002065
:102030008DF8060003218DF805108DF8070069461C
:102040000748FEF78DFE00F089F80A20FFF7C0FF71
:10205000FEF7B4FFFEF796FF1CBD0000040B002046
:10206000000002401CB501210846FFF7E7F9684669
:10207000FEF7CEFE01208DF8040000208DF806004A
:1020800003218DF805102F4D4FF480648DF8070063
:10209000009469462846FEF763FE21462846FEF76F
:1020A000B5FE6420FFF794FFFEF780F90120FFF7EB
:1020B000E9F9254CA0F59051343911D0FEF78AF991
:1020C00090B122480168224A1140B1F1005F0BD162
:1020D0004168A1606160006880F30888884703E078
:1020E00000210120FFF7D8F91A4902208861FFF783
:1020F00087FF1948442101704621417055218170A4
:102100002021C1704D2101716F21417164218171C4
:102110006521C17101210846FEF7E6FFFEF7FCFFCD
:102120004FF4FA60FFF754FF07490A200C31207082
:1021300008700871FFF744FBFFF760FBFFF72AFE0A
:10214000FEE7000000000240E80000200030000828
:102150000000FE2F1C0A0020380B0020F0B50121E2
:1021600087B00803FFF782F9224D00212846FFF7C8
:102170000BFA4FF44040ADF8000000244FF4827099
:10218000ADF80200ADF808406815ADF80A0010205F
:10219000ADF80C000720ADF80440ADF81000ADF824
:1021A0000640ADF80E4069462846FFF7F9F90121CF
:1021B0002846FFF7E9F902258DF818508DF81A40E6
:1021C000A0200D4F8DF81B40032605908DF8196057
:1021D00005A93846FEF7C4FD8DF8184040208DF85B
:1021E0001B5005908DF8196005A93846FEF7B8FD1B
:1021F00007B0F0BD003001400000024008B1AF2040
:1022000000E0AE200121FEF75BBFB80B1400E8032D
:10221000190064006800E8031900E8032D000000BD
:102220005022000800000020D4000000981F000881
:1022300024230008D40000204805000050010008B5
:10224000042700081C0600204C0B0000A81F0008F3
:102250002DE9F0474FF0E0280E46D8F80810074661
:10226000002541F00101C8F808104FF40049484624
:1022700000F03AF8042819D1104C206840F480602E
:102280002060206840F00800206001CE47F825005B
:102290006D1C202DF9D3484600F026F8216821F066
:1022A00008012160216821F480612160D8F80820AC
:1022B00022F00102C8F80820BDE8F087043C024083
:1022C000084904200A68D20701D0012070470A6833
:1022D000D20501D502207047096811F4F05FFAD0E9
:1022E00003207047183C024038B5044604208DF89E
:1022F0000000FFF7E5FF8DF8000004E0FFF7E0FFC6
:102300008DF80000641E9DF80000012801D014B172
:1023100004E0002CF2D105208DF800009DF80000AB
:1023200038BD00000126131201320116408304114A
:10233000DF1009020102030109021B13010135C06C
:102340003209042009FE01020409210BFF100B04CD
:102350001A01040309042603531254124D12691280
:10236000631272126F12651A6C0412633A740E3A99
:102370006E1812735A14261233123212201244129B
:102380004612559A1A14E1146203401A493C1A7411
:102390004A1A72081A61541A20341A6C0A12731AF3
:1023A000680C1220122F12301A78041A380489028D
:1023B000122F1A34121A2A5212351A362612611A9C
:1023C0002C121A360489140212671311120A3208E9
:1023D00004D112302308FA332012130C0133201BCE
:1023E00013B906140855051B0819081A1D0413E132
:1023F0000314089D041B088D041A61041A55041A5D
:102400006D044132401A273832041A2B0832261A3A
:10241000510832141A6508321A1A7F0832624B01C9
:1024200001B41AF55C09169C1A0D7041192B01189C
:10243000325F1A07021B147F021015242A7F2A120A
:102440002313086462364955225044445F444424AF
:102450001C22411441221C1F14083E0814080512B6
:10246000082350302A0801111B6060F0100A100880
:1024700004023E5149453E14427F401029426151B9
:1024800049462141454B311814127F1027454545D7
:10249000393C4A49493001710905033649494936F1
:1024A000064949291E3336361A56051B0814642A74
:1024B00014011969281314080201510906324979D7
:1024C000413E7E1111117E7F321F3E414141227FEC
:1024D000042A1C0F180D417F090909013E41494991
:1024E0007A7F86127F14417F412F2040413F017F38
:1024F0004C1B7F4001280B7F020C027F7F040810D9
:102500007F3C2A3E32180D063E4151215E7F09195B
:102510002946464618083101017F01013F2C181653
:102520003F1F2040201F3F4038403F631408146382
:102530000708700807C71345431974111A02461299
:10254000201441417F2E04020102045E1240190949
:1025500011181020545454787F4844443838444467
:102560004420051C487F3814101118087E09010208
:102570000C5252523E7F080404781C447D40A01344
:10258000443D257F10284419A2112F7C041804789B
:102590007C1E293C1B387CFE2F08081414187C1460
:1025A0001B080846180D20043F4440203C404020B2
:1025B0007C1CA018091C3C4030403C442842100BB5
:1025C0000C5050503C4464544C4434083641327FE3
:1025D000144136082811100808100878464146783A
:1025E0007E1111117E7FE629051A36E928080103BC
:1025F000603E21217F0F28094177087F087722411B
:102600001918081008047F7F100905180E081422F5
:1026100041403E01017F7F020C020F280908087F1C
:102620003E4141413E3C2F7F7F090909060F1A2296
:102630000D28180101274848483F1E217F211E63AD
:10264000140814633F20203F6007321B7F400218AC
:102650000E3F203F207F017F4848307F48309D2932
:102660000A296E180D3E7F083E413E462919097F12
:1026700020E1100B783C4A4A4A307C5454281B7C99
:1026800004011F603824247C381917186C107C1042
:102690006C1A441A180C7C2010087C7C2112097CCE
:1026A0007CF9111F403804047C7CE5190F280910BF
:1026B000107C38444444383C2F7C7C141414080F9C
:1026C00011190D180F04040C5050503C08147C14C0
:1026D000084428382F3C20203C600C321B7C4002F0
:1026E000100E3C203C207C047C5050207C5020125A
:1026F0007C290A1A286E000C1C387C103844384893
:042700005434147CBD
:04000005080000F5FA
:00000001FF
