:020000040800F2
:103000006829002009310008755A0008DD520008BF
:10301000715A00089B3D000841850008000000002F
:10302000000000000000000000000000A56F000884
:10303000F543000800000000E95C000899770008EB
:10304000233100082331000823310008DD6D00081A
:103050002331000823310008754C0008394E000860
:103060000D4F0008233100082331000823310008E8
:1030700023310008233100082331000823310008E0
:1030800023310008233100082331000823310008D0
:10309000E57E000823310008FD3D0008C94F000807
:1030A000233100087D7A000823310008233100080D
:1030B00023310008A97800089D7900082331000811
:1030C0002331000823310008233100082331000890
:1030D0002331000823310008233100082331000880
:1030E000354D0008E9620008097D00082331000819
:1030F00023310008DFF80CD000F058FC00480047EE
:103100001D9F0008682900200648804706480047A0
:10311000FEE7FEE7FEE7FEE7FEE7FEE7FEE7FEE787
:10312000FEE7FEE751780008F5300008421E12F86D
:10313000013F002BFBD111F8013B02F8013B002BB2
:10314000F9D17047421C10F8011B0029FBD1801AED
:103150007047F0B480EA0102D40F4200B2EB410F95
:1031600002D20246084611464A0042D0C30DDDB2E3
:10317000C1F3C752AD1A202D35DAC1F3160141F45F
:10318000000204B15242C5F1200602FA06F12A41BA
:103190001044B3EBD05F23D0C4B1012DA0EBC350DA
:1031A00009DCF0BC4FF0004202EAC352DBB200F58A
:1031B000000000F05FBA400000F1807000EBC350E7
:1031C000A0F1807040EAD170490009E0490841EA65
:1031D000C071A0EBC35000F50000400800EBC350E5
:1031E000F0BC00F03EBA6142012202EB4101001B3B
:1031F000F6E7F0BC704781F00041AAE780F000409C
:10320000A7E780EA010210B502F00043400022D097
:103210004A001FD0010E01EB1261C0F35600C2F349
:10322000560240F4000042F40002A0FB0220000419
:103230007F39140400D0401C50EA124001D44000F1
:10324000491EC2B20C0604EBD010401C4008802A74
:1032500002D003E0002010BD20F00100002900DAB8
:103260000020184310BD30B480EA010202F000458E
:1032700030F0004221F0004013D090B1C30DD40DC6
:10328000C2F31601C0F31600E41A41F4000140F441
:1032900000027D34914201D3641C00E04900002CFF
:1032A00002DA30BC002070474FF400000023914246
:1032B00001D3891A034340084FEA4101F7D151B1C4
:1032C000914202D14FF0004105E002D24FF00101DE
:1032D00001E06FF0010103EBC450284430BC00F062
:1032E000C0B92DE9FE4F81EA030404F0004421F047
:1032F000004100944FF0000B23F0004350EA01041A
:103300005ED052EA03045BD0C3F30A54C1F30A55FA
:103310002C44A4F2F3340194A0FB0254C1F3130132
:1033200041F48011C3F3130343F4801301FB0244FF
:1033300000FB034E840A970A44EA815447EA835704
:10334000A4FB076802958D0A05FB07854FEA932CBD
:1033500004FB0C542705029D4FEA065847EA16372E
:10336000B5EB08056EEB070C870E920E47EA811746
:1033700042EA8312A7FB0201B6EB0B0164EB0004E7
:103380002B0D43EA0C335E1844EB1C50DA465146D1
:10339000E7FB0201C5F313044FEA0B3343EA14536E
:1033A0004FEA0432019C43EA0603A4F10C040294A0
:1033B000009CCDE900B400F09AF903B0BDE8F08FAD
:1033C00000200146F9E72DE9F04D81EA030404F0FD
:1033D000004B21F0004514464FF0000A23F0004155
:1033E00050EA050220D054EA01021DD0C5F30A5765
:1033F0000246C5F31303C1F31300C1F30A5640F4A8
:10340000801543F48013A7EB0608101BD64608F27C
:10341000FD3873EB050002D308F1010801E09218B2
:103420005B41B8F1000F03DA00200146BDE8F08DE2
:1034300000204FF48011064684460EE0171B73EB04
:10344000050705D3121B63EB050306434CEA010C89
:1034500049084FEA300092185B4150EA0107EDD16C
:1034600052EA030012D082EA040083EA050108430D
:1034700005D0101BAB4106D20122002306E000223A
:103480004FF0004302E06FF0010253101AEB060008
:103490004CEB085110EB0A0041EB0B01BDE8F04D7D
:1034A00000F016B9C10F80EAE0700844CA079623FD
:1034B000002100F0DFB896230022114600F0DAB8B0
:1034C0000EB540F2334102910021CDE900110A46C8
:1034D0000B4600F00CF903B000BD20F00040C10D18
:1034E000C0F3160040F400007F2901DA0020704785
:1034F000962903DCC1F19601C8407047963988408F
:10350000704700F0004230F000400AD0C10D01F5D4
:103510006071C0F3160042EA0151C208400711432E
:10352000704700200146704730B5041E71F1000459
:1035300004DB4FF00044404264EB0101141E73F1C0
:10354000000405DB1C464FF00043524263EB0403CA
:103550008B4208BF824230BD30B5041E71F10004B9
:1035600004DB4FF00044404264EB0101141E73F190
:10357000000405DB1C464FF00043524263EB04039A
:10358000994208BF904230BD01F0004330B421F0B1
:10359000004150EA010206D00A0DA2F56072C1F3A3
:1035A0001301002A02DC30BC00207047440F44EABB
:1035B000C104C100E01830BC00EBC25000F051B8AB
:1035C000002801DBC0F10040002901DBC1F100410E
:1035D0008142704730B50B4601460020202201246D
:1035E00009E021FA02F59D4205D303FA02F5491BD1
:1035F00004FA02F52844151EA2F10102F1DC30BDE7
:103600002DE9F05F0546002092469B468846064617
:10361000814640241BE0284641464746224600F0AA
:10362000E6F953465A46C01A914110D3114618463E
:10363000224600F0CDF92D1A67EB01084F462246CD
:103640000120002100F0C4F917EB00094E41201EB3
:10365000A4F10104DFDC484631462A464346BDE872
:10366000F09F0029A8BF7047401C490008BF20F008
:103670000100704710B4B0FA80FC00FA0CF050EA78
:10368000010404BF10BC704749B1CCF1200421FAF9
:1036900004F411FA0CF118BF012121430843A3EBF4
:1036A0000C01CB1D4FEA00614FEA102042BF002001
:1036B00010BC704700EBC35010440029A4BF10BCDD
:1036C0007047401C490008BF20F0010010BC704743
:1036D00010B5141E73F1000408DA401C41F100011A
:1036E00092185B411A4301D120F0010010BD2DE971
:1036F000F04D92469B4611B1B1FA81F202E0B0FA68
:1037000080F22032904600F063F904460F4640EA0A
:103710000A0041EA0B0153465A46084313D01146AA
:1037200053EA010019D0C8F14002504600F05FF999
:1037300005460E4650465946424600F049F90843B0
:1037400005D0012004E020463946BDE8F08D002078
:10375000054346EAE0762C4337430A986305E40ABA
:10376000A0EB08000022FD0A44EA47540A3002D5C3
:1037700000200146E9E7010510196941DDE9084526
:1037800000196941BDE8F04DA2E72DE9FE4F8046E2
:1037900081EA0300C00F0C46009021F0004123F0A5
:1037A0000045B8EB0200A94105D2404621469046AB
:1037B0001C460B46024623F00040104347D0270D1D
:1037C000C7F30A00C3F30A510290401A019040283F
:1037D0006BDAC3F3130040F4801B0098924620B1CB
:1037E0000023D2EB030A63EB0B0B01985946C0F19F
:1037F0004002504600F0ECF806460D465046594649
:10380000019A00F004F910EB08006141002487EAF6
:10381000115284EAE7731A4340D0009A62B3019AC6
:10382000012A4FEA075215DC001B61EB02014FF041
:10383000004202EA0752CDE90042001C41F5801126
:1038400032462B46FFF753FF03B0BDE8F08F4046EA
:103850002146F9E7001B61EB0201001C41F58013D2
:1038600000185B412018A2F5001747EB030140EA5E
:10387000D570B6196D4111E06D084FEA360645EA7C
:10388000C0754FEA0752001B61EB0201001C41F5B5
:10389000801149084FEA30000019514132462B4649
:1038A00003B0BDE8F04FFFF713BF009801224000BE
:1038B0000023D0EB020263EBE073009821464FEA4D
:1038C000E074B8EB000061EB0401E9E783F000432A
:1038D0005BE781F0004158E72DE9F04D00231A46DF
:1038E0001B1A8A4103DB00200146BDE8F08DC1F3BD
:1038F0000A52C1F3130141F480154FF0000BD107B8
:1039000002D100186D41521E0027044640F2FF11FB
:10391000384601EB620A3E468046024600204FF4DC
:10392000801100F064F8C2197141BB1846EB010028
:10393000B4EB030C75EB000C04D3E41A65EB000543
:1039400017460E46241908F101006D4180463428BF
:10395000E3DDF91946EB0600091BA84103D24FF03D
:10396000FF32134601E0002213461BEB070046EB33
:103970000A51BDE8F04DFFF7ABBEC1F30A52C1F3E7
:10398000130140F2FF3341F480119A4202DA002021
:103990000146704740F233439A42A2F2334202DCBE
:1039A000524200F024B800F013B80000064C074D56
:1039B00006E0E06840F0010394E8070098471034FF
:1039C000AC42F6D3FFF79AFBB0C40008E0C400088D
:1039D000202A04DB203A00FA02F1002070479140CF
:1039E000C2F1200320FA03F3194390407047202AC4
:1039F00004DB203A21FA02F00021704721FA02F399
:103A0000D040C2F120029140084319467047202A55
:103A100006DBCB17203A41FA02F043EAE07306E0F6
:103A200041FA02F3D040C2F1200291400843194606
:103A3000704770B58C1810F8015B15F0070301D1C1
:103A400010F8013B2A1106D110F8012B03E010F801
:103A5000016B01F8016B5B1EF9D12B0705D4002324
:103A6000521E0DD401F8013BFAE710F8013BCB1AC6
:103A7000921C03E013F8015B01F8015B521EF9D5BB
:103A8000A142D8D3002070BD40F2BD7CC2F2000C30
:103A9000604740F2213CC2F2000C604740F60D1C2A
:103AA000C2F2000C604740F6610CC2F2000C6047A5
:103AB00040F24D4CC2F2000C604740F2456CC2F23D
:103AC000000C604740F2AD5CC2F2000C604740F26F
:103AD000DD6CC2F2000C604740F2A16CC2F2000C37
:103AE000604740F27D5CC2F2000C604740F2511C1E
:103AF000C2F2000C604740F2811CC2F2000C604729
:103B000040F28D0CC2F2000C604740F2151CC2F26C
:103B1000000C604740F2611CC2F2000C604740F2AA
:103B2000711CC2F2000C604740F25D2CC2F2000C26
:103B3000604740F2A91CC2F2000C604740F23D2CE5
:103B4000C2F2000C6047002904D0816841F00401F2
:103B500081607047816821F0040181607047000036
:103B60002DE9FC47082002F097F80028FAD06846B3
:103B700001F063FB4FF40078CDF8008003208DF84E
:103B8000040000268DF80760DFF87090694648460B
:103B900001F0FFFA1A4D2E6000241A4F384600F04B
:103BA000EBF80221384600F044F80028F9D03846F6
:103BB00000F03CF8296808442860641C0A2CEDD306
:103BC00028680A21B0FBF1F02860684601F035FB57
:103BD000CDF8008001208DF804008DF806008DF8E6
:103BE00005608DF807606946484601F0D2FA0099F1
:103BF000484689B201F01FFBBDE8FC870004024083
:103C0000781D002000240140002904D0816841F083
:103C1000010181607047816821F001018160704776
:103C2000826822F0F0020A4382607047806D80B2A1
:103C300070470246002012680A4200D001207047F7
:103C400030B542680F4B1A400C790B6842EA0422E7
:103C50001343436083680C4A1340D1E90342224373
:103C60004D798C6844EA450422431A438260026B12
:103C700022F0F872097D491EC9B242EA015101637E
:103C800030BD0000FFFEFFFCFDF7FFC0002A03D09F
:103C900042680A434260704742688A434260704704
:103CA00070B507251D290AD9C66DA1F11E0404EBC4
:103CB0004404A540AE43A3401E43C66521E013293A
:103CC0000AD9C668A1F1140404EB4404A540AE432C
:103CD000A3401E43C66014E009290AD90669A1F170
:103CE0000A0404EB4404A540AE43A3401E4306610E
:103CF00007E0466901EB4104A540AE43A3401E43E3
:103D000046611F23072A09D2046C521E02EB82026D
:103D100093409C4391400C43046470BD0D2A09D22A
:103D2000C46BD21F02EB820293409C4391400C4330
:103D3000C46370BD132A09D2846B0D3A02EB820270
:103D400093409C4391400C43846370BD192A09D26F
:103D5000446B133A02EB820293409C4391400C4324
:103D6000446370BD046B193A02EB820293409C439A
:103D700091400C43046370BD816841F080418160D3
:103D80007047002101600171417181604FF0407204
:103D9000C260016101210175704700BFFEE7C1B239
:103DA000000A40EA0120704710B50449002008606D
:103DB000032003F0AFF9012010BD00002C180020F3
:103DC00010B50C46402C0FD2084A00211160224643
:103DD000C02104F0B7FB2146012003F0BFF9012008
:103DE00003F0E2F9012010BD002010BD28180020CA
:103DF0000149002008607047007C004010B5002495
:103E00004FF4800001F07AF9002834D04FF480009C
:103E100001F06EF91848006868B3002001F0ACFFAB
:103E20001648006884B214480068022803D9102C90
:103E30000ADD641008E04FF6FF7000EA4404B4F5B0
:103E4000F05F01DD4FF400540B480068192800D9D9
:103E5000102400200849086000BF002003F00AF881
:103E60000128FAD1204602F0A5FF00BF012003F08F
:103E700001F80128FAD110BDC42000201428004008
:103E800010B5064B1968064A1140D0E90024806835
:103E90002243084302431A6010BD0000007C00402A
:103EA000FFEF03FF2DE9F84F002000904BF6BF779E
:103EB00048F28008614E624D40F68F7ADFF88491B7
:103EC00048F60F7B604C2CE0088800F00F0089F862
:103ED000000078B304EB8001D1F8002C0092BDF80B
:103EE000002012040AD5D1F8002C02EA0A02C1F817
:103EF000002C5649401E51F820008047BDF80000B4
:103F000000060ED599F8000004EB8001D1F8002CD2
:103F100002EA0B02C1F8002C4D49401E51F8200066
:103F200080474648443000684A4908800004CBD4A2
:103F3000BDE8F88FFFE730682880288800F030005F
:103F40006880288800F4405028803068384080F429
:103F5000005080F0200040EA080030600888C00669
:103F600020D4306800EA0B00306001F0DBF93068E3
:103F700038402988C90401D580F4805029888904F3
:103F800001D580F400506988C90601D580F0100081
:103F90006988890601D580F0200080B240EA0800D7
:103FA0003060C5E730680090BDF80000000520D5FE
:103FB000306800EA0A00306003F0F6F930683840F3
:103FC0002988C90401D580F480502988890401D545
:103FD00080F400506988C90601D580F01000698816
:103FE000890601D580F0200080B240EA08003060E8
:103FF0009EE7BDF80000000493D5306800EA0A008F
:10400000306001F0F1FD306838402988C90401D5DD
:1040100080F480502988890401D580F40050698893
:10402000C90601D580F010006988890601D580F0A5
:10403000200080B240EA0800306079E7005C004070
:104040005E1800204E18002000500040B8180020D4
:104050009C18002092180020810008480844D0F8DD
:10406000001C490409D5D0F8001C48F68F72114095
:104070004CF280021143C0F8001C70470050004011
:10408000810008480844D0F8001C490609D5D0F83A
:10409000001C48F68F72114048F2C0021143C0F86C
:1040A000001C704700500040810006480844D0F8CA
:1040B000001C48F68F62114048F280021143C0F89C
:1040C000001C704700500040054A002903D0516889
:1040D000014351607047516881435160704700004F
:1040E000002004E02DE9F047DFF89880D8F80010B0
:1040F00001F1100528880E7A234F4FF0300900286F
:1041000001D1042E04D0AC88A04215D8042614E0B6
:104110001E480178012903D00726102038802BE0A3
:104120001B4A002112681B4B92B2921C43F81210DA
:10413000A7F8009001701FE00226844200D90446CF
:10414000A968A0B288478246002001F09FF8014686
:10415000A2B2504604F0F6F9A1B2002002F0FEFF30
:104160002888001B2880688820446880A7F8009071
:1041700009494FF440500880D8F800000672BDE8A5
:10418000F087000050180020601800204A18002016
:10419000505C0040006000405E1800202DE9F041B6
:1041A000214E346810342088A168002915D0A0B1B0
:1041B000A588854200D90546A8B2884707462088C9
:1041C000401B2080608828446080002001F03EF879
:1041D0000146AAB2384601F02DFD2088134F302544
:1041E00038B11349280208800021084602F0B6FFC2
:1041F0003D802088A188884204D33168032008725A
:10420000BDE8F08118B1316805200872F8E731681F
:1042100006200872074800210068074A80B2801C07
:1042200042F810103D80EBE7501800206018002085
:104230005E180020505C0040006000402DE9F8430B
:10424000634E306842780024624D062A296801D006
:104250008AB117E00278520669D18078012804D02B
:10426000022804D0032804D061E0CC695FE00C6A26
:104270005DE04C6A5BE0438823B9C388022B01D11F
:10428000037923B1082A39D00A2A3CD04FE00278BA
:10429000530601D1838833B102F07F02012A04D092
:1042A000022A0CD043E04C4C41E08A69407900215D
:1042B000904710BB3068807AF8B1474C37E04179BD
:1042C00001F00F0001F070020B06444907D501EB25
:1042D0008001D1F8001CC1F30111090106E001EBD6
:1042E0008001D1F8001CC1F3013109033C4B1B785C
:1042F00083421CD90AB901B1374C18E00078400656
:1043000015D1384C13E0027802F07F02012A0ED159
:10431000827A62B1428852B9027942B9C288012ACE
:1043200005D18A6940790021904700B92E4C0927B0
:104330004FF000083CB13068A0F812808461002082
:10434000A047002006E0296830680969407888475E
:10435000032816D031680A8AA2F57F43FF3B0DD0AF
:10436000022811D082B1087800062AD5C8880090AA
:10437000009882420CD9009808821AE00F72BDE8BA
:10438000F88330680772FAE74FF008000872F6E722
:104390000FD22868154B90F82C00824202D283F885
:1043A000008006E0B2FBF0F400FB142008B9012005
:1043B0001870286890F82C008882BDE8F843FFF751
:1043C00091BE032008720A4900030880D7E7000065
:1043D00050180020541800209D750008005000401F
:1043E000401900202D750008757500084A18002036
:1043F0005E180020704700002DE9FC5F05460C4662
:104400009946DDE90CAB002600200190BAF1000FBF
:104410002AD1BEA1BE4804F0CBF9A11D4906080E61
:10442000294601F08BFABBA1B94804F0C1F96A1C16
:10443000D1B2A21D5206100E01F080FAB648814595
:1044400005D24A46B5A1B24804F0B2F908E04FF4EB
:104450007A70B9FBF0F73A46B1A1AD4804F0A8F97B
:104460002946204601F08AFABAF1010F5AD1AE4826
:10447000D0F8D00020B9484605F006F901900EE0CA
:104480004846FFF718F80190A749D1F8D800FFF780
:1044900012F8074639460198FEF7E5FE0190A3A100
:1044A0009B4804F085F9A11D4906080E294601F034
:1044B00045FA9FA1964804F07BF96A1CD1B2A21D6F
:1044C0005206100E01F03AFA9A490198FFF778F86F
:1044D0000AD80198FFF715F807463A460B4696A109
:1044E0008B4804F065F919E092490198FFF768F8E4
:1044F0000AD80198FFF705F807463A460B4690A1FF
:10450000834804F055F909E00198FEF7FAFF0746E1
:104510003A460B468CA17E4804F04AF929462046CB
:1045200001F02CFABAF1020F30D189A1784804F0D9
:104530003FF9A11D4906080E294601F0FFF97CA1AB
:10454000734804F035F96A1CD1B2A21D5206100E50
:1045500001F0F4F97F48C06C6F49491E884206D8C3
:104560007C486EA1C26C6A4804F022F90AE07948DE
:10457000C06C4FF47A71B0FBF1F73A4668A1644819
:1045800004F016F92946204601F0F8F9BAF1030FB4
:1045900051D16548D0F8DC00022815D26EA15C48E4
:1045A00004F006F9A11D4906080E294601F008FA93
:1045B0006AA1574804F0FCF86A1CD1B2A21D520649
:1045C000100E01F0FDF914E063A1514804F0F0F879
:1045D000A11D4906080E294601F0B0F95FA14C481B
:1045E00004F0E6F86A1CD1B2A21D5206100E01F0CA
:1045F000A5F95848D0F8B400474988420BD255482D
:1046000046A1D0F8B420424804F0D2F8294620460A
:1046100001F0B4F90FE04F48D0F8B4004FF47A71CC
:10462000B0FBF1F73A463EA1394804F0C1F82946FB
:10463000204601F0A3F90120EB00671D07EB4707B7
:104640004FF0120C0CEB87077A1DE900671D07EB92
:1046500047074FF0050C00900CEB870001F0A6F81F
:10466000BBF1010F50D100264CE001204FEA460C6F
:10467000A7197F1E07EB87070CEB470707F10A0214
:104680004FEA460CA7197F1E07EB870700900CEB3B
:1046900047002B01290101F089F801204FEA460C5F
:1046A000A7197F1E07EB87070CEB47024FEA460C62
:1046B000A7197F1E07EB870700900CEB4700032725
:1046C000C7EB0513290101F071F801204FEA460CF0
:1046D000A7197F1E07EB87070CEB470707F10A02B4
:1046E0004FEA460CA7197F1E07EB87070CEB47071D
:1046F000009007F10A000327C7EB0513290101F019
:1047000055F8761C062EB0D3BDE8FC9FEAE2E00027
:1047100090190020F1E5EA0040420F0025366900BB
:104720002535694B00000000901D0020ECEAC70011
:1047300020F7200000007A4425362E326600000063
:1047400025362E316600000025362E30660000002A
:10475000ECEAD000981E0020F7E0F100F1EC320006
:104760002DE9F04F87B081460E4615469A46DDE9A1
:1047700011B7002006900590002404908046039015
:104780000290CDF810900FE0A84608E008F0FF0175
:10479000049AD0B2002201F069F808F10108D0456E
:1047A000F4D90498401C04900498B042ECD9A6EBCC
:1047B00009000690AAEB050005901098002856D134
:1047C0000A210598B0FBF1F00290002419E013983B
:1047D00058B9A74202D3381B039007E0E01BE04919
:1047E000096AC0EB9100039000E0039403983BF842
:1047F00010100298814203D903983BF810000290F0
:10480000641C0698401C8442E1D334462CE0139883
:1048100090B9301BB84203D8301B381A039006E019
:10482000301BC01BCE49096AC0EB9100039003986E
:104830003BF81000049003E0301B3BF8100004909C
:10484000049880B1DDE9040148430299B0FBF1F01E
:10485000AAEB000001900120321B0090301B514652
:10486000019B00F0A3FF641E4C45D0D864E00A21F0
:104870000598B0FBF1F00290002419E0139858B9A4
:10488000A74202D3381B039007E0E01BB449096A32
:10489000C0EB9100039000E0039403983BF81010E4
:1048A0000298814203D903983BF810000290641CDF
:1048B0000121069801EB5000A042DFD8344639E0D0
:1048C0001398F0B9301BB7EB500F04D3301BA7EB94
:1048D0005000039007E0301BC7EB5000A049096A65
:1048E000C0EB9100039000200490301B40089C49CD
:1048F000096AB0EB910F09D203983BF810000490BD
:1049000004E0301B40083BF810000490049880B18C
:10491000DDE9040148430299B0FBF1F0AAEB000085
:1049200001900120321B0090301B5146019B00F08A
:104930003DFF641E4C45C3D8139802287ED1012048
:10494000EB1EDFF81CC20090DCF8BCC00CF10102C9
:10495000E91EDFF80CC2DCF8BC0000F027FF0120E4
:10496000AB1EDFF8FCC10090DCF8BCC00CF101020A
:10497000A91EDFF8ECC1DCF8BC0000F017FF012035
:10498000EB1EDFF8DCC10090DCF8C0C00CF10102C6
:10499000E91EDFF8CCC1DCF8C00000F007FF012001
:1049A000AB1EDFF8BCC10090DCF8C0C00CF1010206
:1049B000A91EDFF8ACC1DCF8C00000F0F7FE012052
:1049C000EB1EDFF89CC10090DCF8C4C00CF10102C2
:1049D000E91EDFF88CC1DCF8C40000F0E7FE01201E
:1049E000AB1EDFF87CC10090DCF8C4C00CF1010202
:1049F000A91EDFF86CC1DCF8C40000F0D7FE01206E
:104A0000EB1EDFF85CC10090DCF8C8C00CF10102BD
:104A1000E91EDFF84CC1DCF8C80000F0C7FE012039
:104A2000AB1EDFF83CC10090DCF8C8C00CF10102FD
:104A3000A91EDFF82CC1DCF8C80000E021E000F07E
:104A4000B5FE0120EB1EDFF818C10090DCF8CCC0E9
:104A50000CF10102E91EDFF808C1DCF8CC0000F01F
:104A6000A5FE0120AB1EDFF8F8C00090DCF8CCC03A
:104A70000CF10102A91EDFF8E8C0DCF8CC0000F060
:104A800095FE0120AB1E4A4629460090484600F09C
:104A90008DFE01200AF102034A4651460090484625
:104AA00000F084FE0120AB1E3246294600903046BD
:104AB00000F07CFE01200AF10203324651460090CC
:104AC000304600F073FE059805EB5000C1B201229C
:104AD000484600F0CBFE059805EB5000C1B201221C
:104AE000304600F0C3FEDDF8188033E008F0030024
:104AF000B8B909EB0801C8B20122294600F0B6FE98
:104B0000059A05EB5202D1B209EB0802D0B201229C
:104B100000F0ACFE09EB0801C8B20122514600F0DA
:104B2000A5FE08F0070098B9059C0FE00320B4FB30
:104B3000F0F100FB114040B9AAEB0402D1B209EB3D
:104B40000802D0B2012200F091FE641E002CEDD1CB
:104B5000A8F10108B8F1000FC8D107B0BDE8F08F87
:104B6000901D00202DE9F8470646884614469A46CF
:104B700000251448006A4FEA9009134890F8540041
:104B800099FBF0F70F48006A6421B1EB900F01D256
:104B9000F51901E006EB4705A81C40450FD8012098
:104BA000A31EA11EAA1C0090284600F0FFFD0120B4
:104BB000E31EE11EAA1C0090284600F0F7FDBDE8A8
:104BC000F8870000901D0020981E00200149012058
:104BD000086070472818002010B5084901200860B7
:104BE000032000F043FB064908600246BDE8104080
:104BF0004FF48871034801F01DB800002C18002004
:104C00008C1800202425002030B585B00121022019
:104C100001F04CFA00258DF80C5001248DF80F405E
:104C2000029402A9124800F0B4FA0121084601F0EA
:104C300067FA0021012002F0B7F900948DF80450C2
:104C40000C208DF805008DF80640684600F060FAEB
:104C500006208DF810000F208DF811008DF812003D
:104C60008DF8134004A800F007FF05B030BD000028
:104C70000004024010B5012000F040FAB0B101205C
:104C800000F036FA0A48007880B90A48C07828B19E
:104C90000948008840F002000749088001200749C0
:104CA000087000200649486004F0B8FC10BD000000
:104CB00048180020841E00203A18002049180020BF
:104CC000781E002030B585B00121022001F0EEF9F8
:104CD00000248DF80C408DF80F404FF4806502954C
:104CE00002A9134800F055FA0121084601F008FA1C
:104CF0000A21012002F058F900958DF8044008209F
:104D00008DF8050001248DF80640684600F000FA91
:104D100028208DF810000F208DF811008DF812005A
:104D20008DF8134004A800F0A7FE05B030BD0000C8
:104D30000004024010B54FF4806000F0DFF998B332
:104D40004FF4806000F0D4F91848007860BB184830
:104D5000D0F8DC00022810D216481749098830F82C
:104D60001100401C1349144A128821F812001348FC
:104D70000068401C1149086004E011480068401CAC
:104D80000F4908600A48C06970B10E48007A10B136
:104D90000C48407A40B10C48C07828B10448D0F89B
:104DA000D00008B906F0AAFF10BD00004818002086
:104DB000901D0020D42000203E180020C423002095
:104DC000CC240020781E0020841E002070B586B000
:104DD0000121022001F06AF900268DF810600124FB
:104DE0008DF813400225039503A9124800F0D1F96C
:104DF0000121084601F084F90121084602F0D4F8A7
:104E000001958DF808600C208DF809008DF80A4096
:104E100001A800F07DF907208DF814000F208DF80F
:104E200015008DF816008DF8174005A800F024FE37
:104E300006B070BD0004024010B5022000F05EF91B
:104E400010B312480078E0B91148007A40B1104818
:104E5000407A28B901200E49487206F097FF08E011
:104E60000C48C07828B10C48008840F001000A497D
:104E7000088001200949087000200549486004F0B5
:104E8000CDFB022000F034F910BD000048180020CE
:104E9000781E0020841E00203A18002049180020A7
:104EA00070B586B00121022001F000F900268DF8CE
:104EB000106001248DF813400425039503A91248BE
:104EC00000F067F90121084601F01AF902210120DA
:104ED00002F06AF801958DF808600C208DF8090041
:104EE0008DF80A4001A800F013F908208DF814008D
:104EF0000F208DF815008DF816008DF8174005A8C5
:104F000000F0BAFD06B070BD0004024010B50420E8
:104F100000F0F4F8B0B10C48007880B90B48C078C4
:104F200028B10B48008840F004000949088001209E
:104F30000849087000200849486004F06FFB04200D
:104F400000F0D6F810BD000048180020841E002094
:104F50003A18002049180020781E002030B585B08E
:104F60000121022001F0A2F800248DF80C408DF8F8
:104F70000F402025029502A9124800F00AF90121EC
:104F8000084601F0BDF80521012002F00DF800955A
:104F90008DF8044008208DF8050001248DF80640A6
:104FA000684600F0B5F817208DF810000F208DF836
:104FB00011008DF812008DF8134004A800F05CFD7C
:104FC00005B030BD0004024010B5202000F096F876
:104FD00090B3202000F08CF82148007860BB214875
:104FE000D0F8DC00022810D21F482049098830F888
:104FF0001100401C1C491D4A128821F812001C484F
:105000000068401C1A49086004E01A480068401C07
:10501000184908601348C06970B11748007A10B188
:105020001548407A40B11548C07828B10D48D0F8ED
:10503000D00008B906F062FE4FF4007000F05EF890
:1050400060B14FF4007000F053F80548007828B9BB
:1050500006F054FE034840680849C86010BD0000CF
:1050600048180020901D0020D42000203E18002069
:10507000C4230020CC240020781E0020841E0020A1
:1050800030B585B00121084601F010F800248DF8F4
:105090000C408DF80F404FF40075029502A913489B
:1050A00000F077F80121084601F02AF809210020D4
:1050B00001F07AFF00958DF8044008208DF8050076
:1050C00001248DF80640684600F022F817208DF87C
:1050D00010000F208DF811008DF812008DF813408C
:1050E00004A800F0C9FC05B030BD0000000002407B
:1050F0000149086070470000140401400146002087
:10510000024A12680A4200D001207047140401408C
:1051100030B51B4A83790168002B2AD013688B4372
:105120001360111D0B680468A3430B6001791144DF
:105130000B68046823430B60114C08342168036832
:1051400099432160231D19680568A94319604179B5
:10515000102905D011440A68006802430A6030BD76
:1051600021680268114321601968006801431960D1
:1051700030BD0079104402688A43026030BD0000EF
:10518000000401400021016001710C224271817113
:1051900070472DE9F041002201274FF0030C07FA78
:1051A00002F50B682B40AB4227D1066853000CFA7E
:1051B00003F4A64391F8048008FA03F848EA0608C5
:1051C000C0F800800E79012E01D0022E0FD1866822
:1051D000A64391F8058008FA03F848EA0608C0F8E3
:1051E00008808688AE438D79954035438580C568B3
:1051F000A543CC799C402C43C460521C102ACED3CA
:10520000BDE8F08110B54B07DB0E9A40C90800EBF2
:105210008100016A0F249C40A1430162016A11438D
:10522000016210BD02460020128A0A4200D001200D
:10523000704741837047018370474FF6FF710160EB
:105240000021017141718171C1717047054909687F
:1052500089B201EBC0000449001D31F8100080B292
:1052600070470000505C004000600040054909683C
:1052700089B201EBC0000449801D31F81000C0F371
:1052800009007047505C0040006000400449096814
:1052900089B201EBC000034931F8100080B27047B9
:1052A000505C00400060004010B50A48016D446D3C
:1052B000406E084400280BD00822074900F062F82D
:1052C000054920460422BDE81040103100F05AB8CC
:1052D00010BD00000000F81F7218002000BFFEE79C
:1052E00002494CF6CC400860704700000030004096
:1052F00002494AF6AA2008607047000000300040CA
:105300000149486070470000003000400149886052
:1053100070470000003000400149086070470000FD
:105320000030004010B5144C2068017A02290AD0E0
:10533000042908D006290BD0082021680872BDE88E
:10534000104000F0D3BCFEF7CDFE2068007AF4E7F1
:105350004178052909D10178490606D1C07801F0C4
:105360006BFE06480068006A804705480068806850
:1053700080470820E1E7000050180020581800205E
:1053800054180020F0B500230A25302637270024C2
:1053900012E0B5EB107F04D906EB107C01F813C0C6
:1053A00003E007EB107C01F813C0000101EB430C94
:1053B0008CF801405B1CDBB29342EAD3F0BD2DE9CF
:1053C000F84F07460C4690461D46DDF828904FF0F2
:1053D000000AD3460026B9F1640F01D94FF06409E1
:1053E00001202B46424629460090384600F0DEF95F
:1053F00001202B46424621460090404600F0D6F957
:1054000001202B463A4621460090384600F0CEF95E
:1054100001202346424621460090384600F0C6F956
:105420000120631EA8F10702611E0090F81D00F024
:10543000BDF90120A31EA8F10702A11E0090F81DCE
:1054400000F0B4F9281B401E00FB09F06421B0FBFA
:10545000F1FA00260AE001200090681E831BA8F1E3
:105460000102811B781C00F0A1F9761C5645F2D38D
:10547000281BA0F1010B5E460AE000200090681E88
:10548000831BA8F10102811B781C00F08FF9761EA6
:105490005645F2D8BDE8F88F30B5014600207F2987
:1054A00015DD00BF10E001EB81020244A2F570722D
:1054B000164B9B5C164A14681268521C144D2A60E5
:1054C000144A1355421CD0B20528ECDB13E000202F
:1054D0000FE001EB81020244A03A0F4B9B5C0C4AA7
:1054E00014681268521C0A4D2A600A4A1355421C5D
:1054F000D0B20528EDDB0023054A14681268521C5F
:10550000034D2A60034A135530BD0000080C0020EB
:105510004C0D0020A4190020280A0020F0B50346F5
:10552000002400210022002000BF56E07F2B07DD71
:1055300003EB83052544A5F57075334E705D05E0DA
:1055400003EB83052544A03D304E705D00F001055E
:1055500005EB450200F0020505EB450542EA450270
:1055600000F0040505EB450542EA850200F0080558
:1055700005EB450542EAC505EAB2001100F0010558
:1055800005EB450100F0020505EB450541EA450143
:1055900000F0040505EB450541EA850100F008052A
:1055A00005EB450541EAC505E9B2194D194E3668C6
:1055B000AA552E46174D2D686D1C7255154D2D6838
:1055C00060357155134D2D6861357155114D2D683C
:1055D000AD1C104E3560651CECB2052CA6DB002618
:1055E0000C4D2F682D686D1CDFF828C0CCF80050DA
:1055F000074DEE5565462F682D686D1CCCF80050A0
:10560000034DEE55F0BD0000080C0020280A0020D4
:10561000A41900204C0D002030B5014600207F2940
:1056200017DD00BF12E001EB81020244A2F57072A7
:10563000184B9A5CD243D3B2174A14681268521CB2
:10564000154D2A60154A1355421CD0B20528EADBD5
:1056500015E0002011E001EB81020244A03A104B5A
:105660009A5CD243D3B20C4A14681268521C0A4D99
:105670002A600A4A1355421CD0B20528EBDBFF23EF
:10568000054A14681268521C034D2A60034A1355D8
:1056900030BD0000080C00204C0D0020A419002093
:1056A000280A002010B5002400BF03E000200449B0
:1056B0000855641CB4F5587FF8DB00F0A3F910BD61
:1056C000A4190020002000BF03E00021034A115468
:1056D000401CB0F5587FF8DB70470000A41900208B
:1056E0004A1E02EB42025301421E02EB420203EB4E
:1056F0004202014B1A6070474C0D002010B54FF468
:10570000807028490880082008800A2003F0D8FF0C
:1057100008202449891E08800A2003F0D1FF0121B6
:10572000E22000F0D1F80121AF2000F0CDF80121F6
:10573000A42000F0C9F801212F2000F0C5F80121B4
:10574000B02000F0C1F80121A72000F0BDF8012130
:10575000102000F0B9F80121002000F0B5F812493E
:10576000097A9031C8B2012100F0AEF80E48007EEF
:1057700000F0010018B10121C82000F0A5F80A4886
:10578000007E00F0020018B10121A12000F09CF879
:105790000548007E00F0040018B10121A02000F0AF
:1057A00093F810BD1A040240901D00202DE9F84F17
:1057B00004460D4691469A4600260027B34600202F
:1057C00000908046602C07DCB9F1600F04DC482DA6
:1057D00002DCBAF1480F01DDBDE8F88FAAEB05063F
:1057E000A9EB0407002E04DA76424FF0FF30009058
:1057F00001E001200090002F03DA7F424FF0FF3BD1
:1058000001E04FF0010B76007F00E9B2E0B20A9AA6
:1058100000F02CF8B74213DDA6EB67080DE0B8F1F5
:10582000000F03DB00980544A8EB07085C44B04474
:10583000E9B2E0B20A9A00F019F84C45EFD112E053
:10584000A7EB66080DE0B8F1000F02DB5C44A8EBA3
:10585000060800980544B844E9B2E0B20A9A00F09C
:1058600005F85545EFD100BFB6E7000070B5034617
:10587000002500240020602B00DD70BD482900DDDC
:10588000FBE7CE1006EB460603EB4615CE10A1EB68
:10589000C606F4B20B4E705D1AB90126A640B0439D
:1058A0000CE0012A04D10126A6400643F0B205E02F
:1058B000022A03D10126A6404640F0B2014E70559F
:1058C00000BFDAE7A419002070B5002200240023ED
:1058D00002464025184E3580AD003580012902D1A1
:1058E0002025358003E02025134EB61E3580402547
:1058F000114EB61E3580B61C3580002315E002F02F
:105900008004802C04D120250B4EB61E358002E089
:105910002025094E35804025074EB61E3580B61C21
:10592000358055062A0E5D1CEBB2082BE7DB2025DF
:10593000014E358070BD00001A04024070B5054666
:105940000E460024112D01DC082E00DD70BD31460D
:105950002846FFF7C5FE002408E00748005D18B19F
:105960000549085DFFF798FD601CC4B2112CF4DBFB
:1059700003F07CFE00BFE9E79019002070B50546F2
:105980000E460024112D01DC082E00DD70BD3146CD
:105990002846FFF7A5FE002408E00848005D18B17E
:1059A0000649085DFFF7BAFD601CC4B2C5F11100DD
:1059B000A042F2DC03F05AFE00BFE7E79019002096
:1059C00070B505460E460024112D01DC082E00DDC1
:1059D00070BD31462846FFF783FE002408E00848E2
:1059E000005D18B10649085DFFF716FE601CC4B2E1
:1059F000C5F11100A042F2DC03F038FE00BFE7E77A
:105A00009019002030B5002400250121B020FFF7B7
:105A10005BFF01211020FFF757FF01210020FFF756
:105A200053FF00BF0EE05F2509E004EB440105EBE6
:105A30004111064A505C0221FFF746FF6D1E002D02
:105A4000F3DA641C092CEEDB30BD0000A419002041
:105A50000548817A0548002902D005210160704778
:105A6000012101607047000008250020681900200E
:105A700000BFFEE77047704730B50F23C27801259D
:105A80000178002A1FD0154A126802F4E062C2F5BC
:105A9000E062C2F30722C2F10404D3404278A2407C
:105AA00084781C401443220101F1E02181F8002494
:105AB000007800F01F018D404009800000F1E020D7
:105AC000C0F8005130BD01F01F008540480980003A
:105AD00000F1E020C0F8805130BD00000CED00E086
:105AE0000249084302490860704700000000FA05B7
:105AF0000CED00E0024A114001430248016070478A
:105B000080FFFF1F08ED00E070B50220314D2968CD
:105B10004C780A78530606D002F07F0101292ED076
:105B2000022931D03AE0092C06D0052C07D0032CED
:105B300012D0012C18D031E001F08EFD2EE0C87893
:105B40007F2805D8887818B9888808B9887A08B174
:105B500008203CE0002021E0CA78012A1ED1898873
:105B6000E1B901F095FD19E0CA78012A16D18A88B9
:105B7000A2B9497A890611D501F050FC0EE00B2C30
:105B80000CD101F0E1FD09E0012C02D0032C03D07F
:105B900004E001F043FC01E001F08CFD30B10E495E
:105BA000E0B2096849698847032802D018B1082083
:105BB0000DE009200BE00620084900220968084B87
:105BC00089B2891C43F81120064A302111802968C6
:105BD000087270BD5018002054180020505C00401E
:105BE000006000406018002010B5104C2068007A5A
:105BF00002280ED004280CD003280CD005280AD087
:105C000007280DD0082021680872BDE8104000F078
:105C10006DB80820F7E7FEF7C1FA2068007AF2E7CE
:105C200003480068C06880470820ECE7501800204F
:105C300054180020521C5208064B03EB4101002A65
:105C400006D031F8043B20F8023B521E002AF8D15E
:105C500070470000006000400A4B1A6822F00302FF
:105C600002431A600848026842F0040202600129F7
:105C700005D020BF016821F004010160704730BFEA
:105C8000F8E700000070004010ED00E00149886274
:105C90007047000000000E4201460020024A526890
:105CA0000A4200D00120704700700040014908619D
:105CB0007047000000000E42014908627047000072
:105CC00000000E42014948627047000000000E4289
:105CD000044A116821F4C051014321F00C00106006
:105CE00070470000007000407047000010B50B487E
:105CF00090F82C10002001F0D3F909480068007AD0
:105D0000082805D1074A41021180074A1021118055
:105D1000092801D0002010BD012010BDF01800207E
:105D2000501800205E1800206018002010B5064CA6
:105D300001202060211D0020086001F0DDFF03200C
:105D40002060002010BD0000405C004010B5012024
:105D500001F0D2FF012106480160064A00210160DE
:105D6000031D19604FF4E05111800160002010BD47
:105D7000405C00405C18002010B50446012C1BD18B
:105D80001949087100F034F81848008840F0010003
:105D900016490880012200211448143801F092FEAF
:105DA000012202211148143801F03AFF02210F4864
:105DB000143801F092FE16E000200B490871002211
:105DC00002210A48143801F02BFF0022114607482F
:105DD000143801F077FE02210448143801F07DFEEA
:105DE000022000F005F810BDC42000201408014076
:105DF00010B586B0044624B1012C4CD0022C79D1C8
:105E00006BE00121084600F07BF90121C80700F092
:105E10005BF90121102001F0DBF84FF440200290E3
:105E20004FF4600003904FF48050019000BF0820B1
:105E3000FFF732FF0128FAD101A8FEF721F800BFD1
:105E40002E48006800F4E0100028F9D004A8FFF7FD
:105E500099F94FF48000049000208DF814000C2074
:105E60008DF8150001208DF8160004A8FFF750F9F1
:105E700016208DF8000000208DF802008DF801003A
:105E800001208DF803006846FFF7F6FD4FF480000F
:105E9000FFF72EF92FE00121C80700F015F94FF4A4
:105EA000402002904FF4600003904FF48050019026
:105EB00000BF0820FFF7F0FE0128FAD101A8FDF786
:105EC000DFFF00BF0D48006800F4E0100028F9D0A3
:105ED0004FF48000FFF70CF90DE0FDF789FF00217A
:105EE0004FF0004000F0F0F84FF48000FFF700F9A9
:105EF00001E0FFE700BF00BF06B010BD007C00401E
:105F000070B500BF002501F04FFC2748406A0F28FC
:105F100002D908202449486224484068B0F52F6F10
:105F200005D32248406841F26801884202D941F213
:105F3000680501E01D4845684FF400711C48FFF7F3
:105F400071F948B11848406A41F26801484341F28A
:105F50003011B0FBF1F406E01348406A41F26801E9
:105F60004843B0FBF5F4134800681349B0FBF1F067
:105F7000401E86B200223146104801F07FFE2146C5
:105F80000E4801F080FE002000F060FF202000F0AD
:105F900011FF00BF012000F06DFF0128FAD101219F
:105FA000800300F0AFFD70BD901D0020781D002023
:105FB00000000240040A002000093D0000080140E2
:105FC00000B587B00121042000F09AF801A801F083
:105FD0004FFE04A801F088FE6020ADF80400012007
:105FE000ADF806002D48406A02900020ADF80C0084
:105FF0002B4800682B49B0FBF1F0401E80B2ADF891
:1060000010000020ADF818004FF40C70059000202F
:10601000ADF81200244801F06FFD0821224801F07C
:1060200021FE0121204801F041FD04A91E4801F094
:106030002DFE01A91C4801F0FDFD08211A4801F0C0
:1060400011FE0121184801F031FD19208DF80000E2
:1060500000208DF801008DF8020001208DF803006A
:106060006846FFF709FD012202210F4801F0D8FD23
:106070000D481430008840F001000B4914310880AD
:1060800000221146084801F01DFD0020FFF7B0FE78
:106090000121054801F024FD07B000BD901D00203E
:1060A000040A002000093D0000080140054A0029BB
:1060B00003D011680143116070471168814311607A
:1060C000704700001C380240054A002903D01168BF
:1060D00001431160704711688143116070470000EF
:1060E00024380240054A002903D011680143116099
:1060F00070471168814311607047000018380240F2
:10610000054A002903D011680143116070471168E6
:10611000814311607047000020380240054A002981
:1061200003D0116801431160704711688143116009
:10613000704700001438024002460020510901292E
:1061400009D00749096802F01F02012393400B425E
:1061500000D001207047024934390968F3E7000094
:10616000343802400248006800F00C00704700001C
:1061700008380240034A116821F0F0010143116020
:106180007047000008380240024900220A70087077
:106190007047000002380240014908607047000063
:1061A00000004742024900220A7008707047000050
:1061B000353802400149086270470000000047423C
:1061C000034A116821F460410143116070470000E7
:1061D00004380240034A116821F4E0610143116070
:1061E0007047000008380240034A116821F46051EA
:1061F00041EAC00010607047083802400149086653
:1062000070470000000047421143014301480170FC
:10621000704700000A3802400149086070470000DA
:10622000D8064742C0F30141032907D1094B196839
:1062300021F0C04100F0C0420A431A6005493431E0
:106240000A6822F440320A600A6800F440300243CF
:106250000A6070470038024001490860704700003A
:10626000DC064742034A116821F003010143116033
:10627000704700000838024038B500220092144CE4
:10628000CA22226053222260114A1C3A002904D0FB
:10629000116801431160012015E01168814311600C
:1062A0000B4A183A5514116801EA1021009B5B1C37
:1062B0000093009BAB4201D00029F4D0116811EA91
:1062C000102F03D00120FF21216038BD0020FAE704
:1062D000242800400021C1700170417081708160EC
:1062E000012202734160704710B54FF40030FEF791
:1062F000FFFE4FF4005000F0BFFB00285CD04FF4CD
:10630000005000F0C7FAFE480078002854D100F091
:10631000EFFFFC48D0F8D000002849D03B2407E02C
:10632000601EF94931F81010F74820F81410641E67
:10633000002CF5DC0020F449BC39A1F8BC0008466B
:10634000B0F8BC0088BB0846B0F8BE0068BB084681
:10635000B0F8C00048BB0020EA49C1F8D000EA49C3
:10636000BC3948640864E749C1F8A400E649BC396F
:1063700081F8480000214FF40070FFF77DFF0021F5
:106380004FF4005000F0BEFB4FF4007000F074FAC0
:1063900000220121DD4801F043FC0021DB4801F02F
:1063A0009FFB00210420FFF78FFE0120D849887051
:1063B000D4484068D749C8604FF4805000F05CFB77
:1063C00000287DD04FF4805000F064FACC4800786B
:1063D000002875D100F0BAFFCA48D0F8D00010B933
:1063E0000120CB498870C748006D012829D1CA48CF
:1063F0000068142825D2C348006AC8490968884241
:1064000017D9C6480068001DC4490860BE485838FE
:10641000C149096850F82100C149C24A128831F8BF
:1064200012100144B8485838BB4A126840F822108C
:1064300007E00020B9490860B7480068401CB64929
:106440000860B4480079B0B1AF48BC38C06D401C9A
:10645000AD49BC39C865AB48D0F8DC0002280AD287
:106460000846816DAE48AF4A128830F812000844E1
:10647000A549BC398865A64880884B2805DD0120E0
:10648000A34908700020888004E0A1488088401C4F
:106490009F4988809E488088022808DD9D48C078F2
:1064A000012804D100209A4988800120087098486A
:1064B00080790E2811DD9748007928B9002000E086
:1064C000B5E19149BC39886597488168C160002071
:1064D000954988608E49887104E08D488079401C18
:1064E0008B4988718A48408946F21801884221DB2D
:1064F0000020874948818448BC38006D401C82498F
:10650000BC39086502219020FDF7BEFAB8B17E487B
:10651000BC3840697B49096A890848434FF4617176
:10652000B0FBF1F07849BC39496B08447649BC3975
:10653000486304E076484089401C754948817448A6
:106540000089962844DB79480088002801DDFDF7A2
:10655000A0FA6F48407D012804D1FDF79FFA002082
:106560006B49487501206A49087508468089401CB6
:10657000888108468089202810DB002088810869EE
:10658000FDF791FA62480069401C614908610846BC
:106590000069B0F5297F01D90020086120240CE0B2
:1065A000601E634951F8200041F82400601E6149D3
:1065B00051F8200041F82400641E002CF0DC00207B
:1065C0005B4908605B49086001205149088104E08B
:1065D0004F480089401C4E4908814A48D0F8DC00E9
:1065E000022813D102F048FF4749BC39C1F8B40072
:1065F0000E2406E0601E504951F8200041F82400A6
:10660000641E002CF6DC00204B4908603D48D0F8A1
:10661000DC00022872D242484249098830F8110051
:106620000A286CDB3748806A012868D13649BC39B2
:1066300081F854003A483B49098830F81100B0F518
:10664000967F0BDD3048BC3890F85400632849D061
:1066500063202D49BC3981F8540043E0304831496A
:10666000098830F81100C7280BDD2748BC3890F89E
:1066700054001E2836D01E202349BC3981F854000E
:1066800030E027482749098830F8110063280BDDDE
:106690001D48BC3890F854000A2823D00A201A4913
:1066A000BC3981F854001DE01D481E49098830F8A6
:1066B000110013280BDD1448BC3890F8540004284E
:1066C00010D004201049BC3981F854000AE00E486B
:1066D000BC3890F85400022804D002200A49BC3982
:1066E00081F854000848BC3890F854000549096AFC
:1066F000B0EBD10F27D90348008C1FE02AE02AE035
:1067000048180020901D0020541F00200008004061
:10671000601D0020841E0020401800204418002026
:10672000D42000203E180020C4200020381800206B
:10673000C423002048240020CC240020C0F3C7003C
:106740003B4981F854003A4890F8540001281DD084
:1067500005F0A2F81AE0364890F85400012806D057
:106760000120334981F8540005F096F80EE03148D5
:10677000D0F8DC00022809D22D48C16C2E482F4ADF
:10678000128830F8120008442949C8642948D0F812
:10679000DC0002283BD229480088401C2749088099
:1067A0002448006A0988B1EB900F11D3204890F873
:1067B0005400012806D11E48C06C1F490988401AA0
:1067C0001B49C86400201C4908801C49088014E04B
:1067D000174890F85400012809D11548C16C164893
:1067E000164A128830F81200081A1149C8640021AC
:1067F0001148124A128820F812100D48C06C104936
:106800000968884203D90A48C06C0D490860012014
:106810000C4948700C48C068042805D90A48C0686B
:10682000001F0949C86002E000200749C86010BD88
:10683000981E0020901D0020D42000203E1800202B
:1068400048240020601D0020841E0020010901EB67
:106850008101490000F00F000844C0B270470021D8
:1068600003E0491CC9B20A38C0B20A28F9D20907A4
:1068700040EA116070470000C0F3100040F0800053
:10688000C1430348026802F080021143016070476F
:106890000C280040000980B240F08000C14303484A
:1068A000026802F080021143016070470C2800402A
:1068B000FEB5002401210807FFF706FC002000F0C8
:1068C0006BF9A0F54851F23900D101240120FFF7FE
:1068D000F3F92CB90120FFF7BFFC0020FFF7BCFC47
:1068E0000120FFF75FFC4920FFF726FC0028FAD0C3
:1068F0004FF48030FFF796FCFF260120FFF78CFC59
:10690000002534B930487F2141608660056000F081
:106910001BF900F075FA00F019FD0121080300F0E1
:10692000F1F801210C022046FFF7A6FC2046FFF7F4
:10693000A3FF64022046FEF7DBFB2046FEF7D8FBF0
:1069400000948DF8045008278DF8057001248DF807
:1069500006406846FEF7DCFB29208DF808008DF81C
:1069600009508DF80A508DF80B4002A8FFF784F803
:1069700026053046FEF7BCFB00968DF804508DF8D6
:1069800005708DF806406846FEF7C2FB03208DF8BF
:1069900008008DF809508DF80A508DF80B4002A8B8
:1069A000FFF76AF8002000F051FA40F6FF7000F09F
:1069B00001FA012000F05EFA0128FAD101218003DA
:1069C00000F0A0F8FEBD0000041D002001210170B0
:1069D000817041700021C1707047000008B500202F
:1069E00000900E490868400615D44FF0FF3008604B
:1069F0004B14086800F04000009A521C0092009A64
:106A00009A4201D00028F4D00868400601D5012040
:106A100008BD002008BD012008BD00000C28004072
:106A20000248016821F08001016070470C28004095
:106A300010B502460C460E4801680E480140080C8D
:106A4000E070C1F30423637001F03F03A370C1F34E
:106A500042312170002A0AD1FFF7F8FEE070607819
:106A6000FFF7F4FE6070A078FFF7F0FEA07010BD95
:106A7000042800403FFFFF0010B500210D4A1268B6
:106A800002F004030B4A383A1268840C20FA04F42A
:106A9000024003EAD4331A43064B343B1B6803EA33
:106AA0001010002A03D00004000C00D00121084679
:106AB00010BD00004028004010B502460C460F48AB
:106AC00001680F480140C1F305402070C1F306235F
:106AD000637001F07F03A37001F48001090CE17081
:106AE000002A0AD1FFF7B2FE20706078FFF7AEFEF1
:106AF0006070A078FFF7AAFEA07010BD00280040CB
:106B00007F7F7F0030B50F4DCA222A6053222A6052
:106B10000C4C0C4B1C3C20F004021C3300F0040015
:106B2000002906D0216811432160196801431960CA
:106B300005E0216891432160196881431960FF20B5
:106B4000286030BD2428004070B504460025114E51
:106B5000CA20306053203060FFF740FFA8B10D48D5
:106B60001C38016821F0400101600168226811436E
:106B700001600848A168143801600168A28841EAF0
:106B800002410160FFF74CFF0125FF2030602846DD
:106B900070BD00002428004008B5034901EB8000C7
:106BA00000900098006808BD5028004070B5054668
:106BB0000E46144600202B49002D06D009684906D0
:106BC00008D52078FFF742FE05E00968490607D49A
:106BD000E07005E0E070A068A8B1207BFFF736FE0A
:106BE000ADB1A0782178E27840EA014061780902ED
:106BF00041EA02410843217B40EA0160A168084361
:106C0000616808431CE0207BFFF720FEE8E720785E
:106C1000FFF725FE05046078FFF721FE45EA002511
:106C2000A078FFF71CFE0543E07845EA0045207B8D
:106C3000FFF715FEA16845EA006008436168084354
:106C40000849CA221C310A6053220A60B6F5807FC7
:106C500004D00A1F1060FF20086070BD014A143282
:106C60001060F8E70828004070B505460C4600267D
:106C7000002D06D16078C10603D520F010000A303F
:106C800060702DB16078FFF7E1FDA078FFF7DEFDC1
:106C900055B1A078E17840EA01456078217800029A
:106CA00040EA413005430FE0E078FFF7D8FD0504E6
:106CB0006078FFF7D4FD45EA0025A078FFF7CFFD07
:106CC0000543207845EA40350E4CCA202060532009
:106CD0002060FFF783FE88B10B4805400948203843
:106CE0000560FFF79DFE07481C380068800604D445
:106CF00000F086F810B1012600E00126FF20206098
:106D0000304670BD242800403FFFFF002DE9F041D0
:106D100005460C4600260020244F002D06D0396879
:106D2000490608D52078FFF791FD05E03968490646
:106D300002D4E07000E0E07055B1A078217840EA1C
:106D400001456078E178000240EA014005430FE028
:106D50002078FFF784FD05046078FFF780FD45EAA1
:106D60000025A078FFF77BFD0543E07845EA004564
:106D70000E4CCA201C34206053202060FFF72EFEEA
:106D800078B10B480540094808380560FFF748FE10
:106D90003868800604D400F033F810B1012600E012
:106DA0000126FF2020603046BDE8F0810828004021
:106DB0007F7F7F000549CA220A6053220A60034A86
:106DC000103A1060FF20086070470000242800403F
:106DD0000021C170017041708170704710B54FF48F
:106DE0008040FFF749FE50B14FF48040FFF752FD5D
:106DF0004FF48010FEF77CF90120FEF7BDFF10BDB7
:106E000018B500200090104BCA201860532018605D
:106E10000D491839086820F0A0000860CC130868F4
:106E200000F02000009A521C0092009AA24201D069
:106E30000028F4D00868800601D5012000E0002079
:106E4000FF21196018BD000024280040084ACA210B
:106E500011605321116006491C390B6823F00703A8
:106E60000B600B6803430B60FF201060704700004D
:106E70002428004018B500210091154BCA21196043
:106E80005321196012491C39002805D0086840F4C4
:106E900080600860012017E0086820F480600860C6
:106EA0000B4A183A5414106800F004000099491C69
:106EB00000910099A14201D00028F4D01068400749
:106EC00001D4002000E00120FF21196018BD00005E
:106ED0002428004008B5034A02EB80000090009887
:106EE000016008BD502800402DE9F041234C0728DF
:106EF00000D020702078214D062605220427204945
:106F0000062838D2DFE800F0030C12171F28686843
:106F100010B12270BDE8F08100F034F82670F9E776
:106F200000F030F8277001206860F3E702206070FD
:106F300003202070EEE76078401E607060780028C3
:106F4000E8D12770E6E7086880B240F010000860DA
:106F500022700A206070DDE76078401E6070607803
:106F60000028D7D1086880B220F010000860267091
:106F700000206860CEE72670CCE700007019002082
:106F8000405C004010B5064C206880B220F0040040
:106F90002060FEF75DFD4FF43F40206010BD000013
:106FA000405C00407047000010B58A07120F0F23A5
:106FB000934021F00304054921448C689C438C6074
:106FC0008B68904003438B6010BD000000000140BF
:106FD00010B5C20F20F000400A4C231D002908D034
:106FE0001AB121680143216010BD1968014319607D
:106FF00010BD1AB121688143216010BD1968814319
:10700000196010BD087C00400649002804D048687B
:1070100040F0010048607047486820F00100486077
:107020007047000000000140024920F0070008609E
:1070300070470000505C0040F0B50E490E7800210A
:107040000D4F48F68F7C48F280050BE0CBB207EB82
:107050008302D2F8004C04EA0C041C432C43C2F80F
:10706000004C491CB142F1D3044940F08000086053
:10707000F0BD000040190020005000404C5C004072
:10708000054A21F00101126892B202EBC000034AE6
:10709000001D42F810107047505C00400060004036
:1070A0000E4A126892B202EBC0000D4A801D02EB3C
:1070B00040023E290AD94809C90601D1401E80B2C2
:1070C0004FF4004141EA8020106070474808C9072A
:1070D00001D0401C80B2800210607047505C0040BC
:1070E0000060004082000A480244D2F8000C4BF6CF
:1070F0008F731840CB0401D580F48050890401D5EA
:1071000080F4005048F280010843C2F8000C704738
:1071100000500040810008480844D0F8001C4BF69D
:107120008F72114081F4805181F4005148F2800245
:107130001143C0F8001C704700500040054A21F080
:107140000101126892B202EBC000034A42F810102B
:1071500070470000505C004000600040044A126824
:1071600092B202EBC000034A801C42F81010704734
:10717000505C00400060004082000A480244D2F89F
:10718000000C48F6BF731840CB0601D580F0100004
:10719000890601D580F0200048F280010843C2F83A
:1071A000000C704700500040810008480844D0F8A7
:1071B000001C48F6BF72114081F0100181F02001DF
:1071C00048F280021143C0F8001C70470050004094
:1071D000820005481044D0F8002C48F68F131A405E
:1071E0000A43C0F8002C7047005000400CB5002244
:1071F000019200922D49086840F4803008604FF4F5
:10720000A043086800F4003000900198401C0190F1
:10721000009810B901989842F3D10868800302D50C
:107220000120009000E00092009801283CD1204805
:10723000026842F004020260026842F00202026048
:10724000026842F00102026018482430026842F0ED
:1072500080520260C214174802604268D206FCD411
:107260001248083002680260026802600268026028
:10727000026822F47D020260026842F41102026098
:107280000A6842F080720A600A689201FCD50168BF
:1072900021F003010160016841F003010160016810
:1072A000C1F381010329FAD10CBD0000003802406E
:1072B000003C02400070004010B501210846FEF776
:1072C0001FFF4FF480242046FDF712FF05490C6094
:1072D0000820487101208871BDE810400846FDF77C
:1072E00017BF0000641800200121C805FEF7ECBE9E
:1072F00038B54FF4007400212046FEF7BDFF114859
:10730000FEF7E8FF6846FFF763FD69460020FFF7D8
:10731000D3FB9DF802000B49401CC0B288703B288B
:1073200001D93C38887008484860064A2146002048
:10733000FFF73CFC2046FFF79FFA01212046FEF7AD
:107340009BFF38BD101D00200080808038B54FF4B1
:10735000807400212046FEF78FFF1148FEF7BAFF28
:107360006846FFF735FD69460020FFF7A5FB9DF84D
:1073700002000B49001DC0B288703B2801D93C387F
:10738000887008484860064A21460020FFF70EFC36
:107390002046FFF771FA01212046FEF76DFF38BD48
:1073A000101D00200080808038B51948006880B228
:1073B000001D41001748095A89B200EB41040094AE
:1073C000154D2868017A092913D021780170617858
:1073D000241D41702088FCF7E2FC29684880A088C1
:1073E000A41DFCF7DCFC29688880A41C009420887C
:1073F000C880286801210172C08828B1FCF71EFFEF
:10740000BDE83840FEF772BCFEF77EFBF8E70000EF
:10741000505C004000600040501800202DE9F04111
:107420003D480068017801F07F01002904D002295D
:1074300008D00220BDE8F081417A01F0DF014172FD
:107440000020F7E7418809B9017909B10220F1E785
:10745000324B417921F08004314E0A0607D506EB04
:107460008402D2F8002CC2F30112120106E006EBEE
:107470008402D2F8002CC2F3013212031D78A54217
:107480000DD962B1807A50B1080612D506EB84009E
:10749000D0F8000CC0F30110012802D024E0022033
:1074A000C8E7E0B2FCF7ECFDE0B23021FFF764FE84
:1074B0001AE006EB8405D5F8000CC0F30130012872
:1074C00012D14BF68F7848F280079CB1E0B2FCF7FE
:1074D000C3FDD5F8000C00EA080080F4805080F469
:1074E00000503843C5F8000C0E48006840698047DA
:1074F00000209FE70C4890F82C100020FFF7D0FDEB
:10750000D6F8000C00EA080080F4805080F40050A7
:107510003843C6F8000CE7E7501800204019002057
:107520000050004058180020F018002010B5074CFB
:10753000002806D0064800680068804720680A30A6
:1075400010BD216801200882002010BD50180020C5
:1075500058180020064A13685A8A002802D0086882
:10756000104470478888801A1882002070470000F5
:107570005018002010B5074C002806D006480068B7
:107580008068804720680C3010BD21680120088287
:10759000002010BD501800205818002010B52A49AE
:1075A000002809680DD02948002202800A78530675
:1075B0000BD002F07F02012A1FD0022A1FD0002028
:1075C00010BD02200882002010BD497A8A0604D529
:1075D000027842F00202027003E0027802F0FD023B
:1075E0000270490604D5017841F00101017025E0DF
:1075F000017801F0FE01017020E0144810BD4A79C5
:1076000002F00F011306124A0CD502EB8101D1F8EA
:10761000001CC1F30111012910D1017841F00101D1
:1076200001700BE002EB8101D1F8001CC1F30131C4
:10763000012903D1017841F001010170054800687A
:1076400000698047014810BD501800204C180020E8
:10765000005000405818002010B50A480A4A006837
:107660005278C178914203D882780AB982880AB1E7
:10767000022010BD817205480068406880470020E4
:1076800010BD00005018002040190020581800209C
:1076900010B506480068417A41F020014172044863
:1076A0000068C0698047002010BD0000501800200D
:1076B0005818002070B520480268517921F08004E4
:1076C0001E4B21F080000D0603EB800005D5D0F89D
:1076D000003CC3F301131B0104E0D0F8003CC3F3EA
:1076E00001331B03164D2D78A54213D954888CB94C
:1076F00083B1927A72B1090648F280020CD5D0F8B3
:10770000001C48F6BF73194081F010011143C0F806
:10771000001C0BE0022070BDD0F8001C4BF68F73EC
:10772000194081F480511143C0F8001C05480068DD
:1077300080698047002070BD501800200050004034
:10774000401900205818002010B50F4C0F4A20682F
:107750001268C17892694079904721688A7A8AB123
:1077600018B9087908B9887808B1022010BD08480E
:107770000068C068804720684179C172C178017390
:10778000002010BD022010BD501800205418002009
:10779000581800207047000002480068401C01494A
:1077A00008607047240A002010B5254B186800F0C7
:1077B0000C001C1F23494FF40042002815D0042858
:1077C0001AD008281BD00C281CD02068C0F34230E7
:1077D000401C82400A6018681A4AC0F303100D3238
:1077E000105C0A68C2400A6010BD2068C0F34230D5
:1077F000401C82400A60EEE713480860EBE713483C
:107800000860E8E7186800F470101A6802F4400293
:107810000C4C241D04EB90400078012404EB9252A0
:107820001C6804F480342CB1084C6043B0FBF2F0C7
:107830000860D0E7044C6043B0FBF2F00860CAE790
:1078400008380240040A00200024F40000127A00E4
:1078500010B51048016841F4807101600D4908318C
:107860000A680D4B1A400A6002680C4B1A4002600D
:10787000026822F480220260086820F47D0008601B
:10788000091D00200860FFF7B1FC064904480860A4
:1078900010BD0000003802400CC0FF88FEFFFEEE65
:1078A0000030000808ED00E010B50121344800F078
:1078B000ABF9002863D00121314800F00EF93148BE
:1078C000007800285BD13048007AD0B12E48407A49
:1078D000B8B92D480068401C2B490860084600686C
:1078E000642803D12021294800F0CBF926480068FC
:1078F000C82806D11021254800F0C3F900202249EC
:1079000008602148007A10B11F48407A10B91E481B
:10791000007A58BB1E48807801282ED11D48007877
:1079200078B119484068502805D9002016494860A8
:1079300004F02CFA23E014484068401C12494860C7
:107940001DE011484068062803D91348D0F8D0003C
:1079500038B10D484068012809D90F48D0F8D00047
:1079600028B100200849486004F010FA07E00648F2
:107970004068401C0449486001E004F007FA10BD6B
:107980000004004048180020781E0020000C014030
:10799000841E002049180020901D002010B50024EE
:1079A00001212F4800F030F9002857D001212C4840
:1079B00000F093F82B48D0F8D00000284ED02A4889
:1079C000B0F834012849C1F84C01092413E02648D5
:1079D000D0F84C1100F59A7030F814000844224990
:1079E000C1F84C01601E01F59A7131F810101F4862
:1079F00020F81410641E002CE9D100201A49A1F8C7
:107A000034011848D0F8D400022802D101201849C6
:107A100088701448D0F8A80000B31348D0F84C017F
:107A20001049D1F8AC1088420BD91248007A10B92D
:107A300000201049487201200E49087204F05EF9D6
:107A40000CE00C48007A012808D104F09FF90020CE
:107A500009498870074908724872086010BD000023
:107A600000080040901D0020981E0020CC1F002020
:107A7000601D0020781E0020841E002010B5022109
:107A8000084800F0C1F860B10221064800F025F86E
:107A900005480068401C0449086008468068401C8E
:107AA000886010BD00080140C4200020002904D0D7
:107AB000018841F0800101807047018821F0800138
:107AC0000180704710B501238B40048C9C430484D3
:107AD000038C8A401343038410BDC943018270475D
:107AE000002904D0018841F001010180704701881C
:107AF00021F001010180704710B5B0F1804F0CD02A
:107B00003949884213D101210220FEF7EBFA002106
:107B1000BDE810400220FEF7E5BA01210846FEF755
:107B2000E1FA0021BDE810400120FEF7DBBA2F4941
:107B3000884209D101210420FEF7D4FA0021BDE8D2
:107B400010400420FEF7CEBA2949884209D101210C
:107B50000820FEF7C7FA0021BDE810400820FEF714
:107B6000C1BA2449884209D101211020FEF7BAFA8E
:107B70000021BDE810401020FEF7B4BA1E4988422B
:107B800009D101212020FEF7ADFA0021BDE8104007
:107B90002020FEF7A7BA1949884209D10121042003
:107BA000FEF7BCFA0021BDE810400420FEF7B6BA8B
:107BB0001349884209D101210820FEF7AFFA0021BC
:107BC000BDE810400820FEF7A9BA0E49884209D145
:107BD00001211020FEF7A2FA0021BDE8104010207C
:107BE000FEF79CBA10BD00000004004000080040F1
:107BF000000C00400010004000140040000801404C
:107C0000000C01400010014002460020138A0B4086
:107C100092890A40002B02D0002A00D00120704730
:107C2000002A03D082890A438281704782898A436D
:107C30008281704710B5028C22F001020284038C0D
:107C4000028B22F0700222F003040A88224323F000
:107C500002040B8923434C881C4349684163028317
:107C6000048410BD028B22F008020A43028370478D
:107C7000002101804180416001817047018582823D
:107C80007047C16270474163704700000288B0F1DD
:107C9000804F08D00F4B984205D00F4B984202D02E
:107CA0000E4B984203D122F070034A881A430C4BC2
:107CB000984206D00B4B984203D022F440730A89B5
:107CC0001A4302804A68C2620988018501218182C3
:107CD000704700000004004000080040000C004015
:107CE00000100040001400404FF0FF3141600021BF
:107CF0000180018141807047002802D00120FFF7F8
:107D000083B90020FFF780B910B54FF48020FDF74C
:107D1000EFF910BD10B5094C07482060022101722F
:107D2000074860600749A160006880476068406854
:107D3000BDE8104000470000082500205018002032
:107D4000F01800204419002038B54FF4A060FDF76A
:107D5000C7FE14208DF8000002208DF801000020DD
:107D60008DF8020001248DF803406846FDF784FE7B
:107D70002A208DF800008DF801408DF803406846F8
:107D8000FDF77AFE38BD00002DE9F04188B00024EF
:107D90004E4D28684E4E70807188DFF83881B8F8F3
:107DA00000000140890505D54FF6FF512960317863
:107DB000491C317071880140080401D5FCF772F844
:107DC0007088B8F800104FF6FF370840400503D51B
:107DD0002F604148406880477188B8F80000014032
:107DE000890402D54DF6FF71296071880140C804ED
:107DF00005D54EF6FF7028600020FFF775F87088F3
:107E0000B8F80010084000050BD53448007810B1D0
:107E1000FFF7C0FC02E00220FFF766F84FF2FF70A8
:107E200028607088B8F800100840C0054AD54FF6A1
:107E3000FF6028602548001D00684FF00003000423
:107E400039D57068401C70607068032834D91F48A9
:107E5000001F016809072FD4016889B2B160204A68
:107E6000694602EB840CDCF800CC1FFA8CFC41F86C
:107E700024C0641C082CF4D3B46844F00104B4603A
:107E8000B468A4B20460B46824F00104B460B468B7
:107E9000A4B2046028684005FCD52F60002051F88A
:107EA000204002EB8005A4B2C5F8004C401C082815
:107EB000F5D3736000E0736008B00720BDE8F041BF
:107EC000FFF712B808B0BDE8F0810000445C004044
:107ED000901800205C180020F01800206C19002079
:107EE0000050004010B5FFF74FFF10BD05490020BE
:107EF000086005494FF43F4008800249091F0860A7
:107F000000207047445C00405C18002010B5002041
:107F100008490871FDF70AFF00214FF40000FEF741
:107F2000D3F803F0C3FDFFF73FFC03484068014965
:107F3000C86010BD841E0020901D002010B503F005
:107F400045FEFFF7B9F9FFF72FFCFFF7CDF903F076
:107F500061FDFFF7F9FEFFF7DDFE0548406840F0E0
:107F600001000349486001200249087110BD00006A
:107F700000000140841E0020002000211E4A1268DB
:107F800052B31E4A92F82000128CC2F30721F62247
:107F90001B4B1A701A4651709070174A1268521E85
:107FA000184B13F82220164BDA70134A1268521E2F
:107FB000144B33F82220120A114B1A710E4A126820
:107FC000521E104B53F82220120C0D4B5A710A4AC4
:107FD0001278521E9A710AE0F622094B1A7000229A
:107FE0005A709A70DA701A715A71FF229A710722C8
:107FF000054B1A607047000040180020901D0020BB
:10800000201D0020FC1E00206C180020F0B5002070
:1080100000210022002300240025154E96F8584028
:10802000B6F85860C6F307230026114FBE65114EFF
:1080300076680A27B6FBF7F6A6F59676F5B20C4EEB
:1080400096F84C20B6F84C60C6F30721084EF66C43
:10805000C6F30740D126084F3E703E467370B47099
:10806000F07031717271B5710726044F3E60F0BD3A
:10807000981E0020781D0020201D00206C18002074
:1080800020B1012819D0022847D12EE0E021284A4A
:10809000117028490978517026495039B1F85010AB
:1080A000090A917023495039096D090CD170214991
:1080B0005039096D090E11712FE0E1211C4A117030
:1080C0001C49091D097851701A495039B1F85410EA
:1080D000090A917017495039496D090CD170154939
:1080E0005039496D090E117117E0E221104A1170E3
:1080F00010491431097851700E495039B1F86410A3
:10810000090A91700B495039496E090CD17009491F
:108110005039496E090E117100BF00BF0021044A99
:108120005171012191710721034A116070470000CC
:10813000201D00205000F81F6C1800200021002096
:108140000A4A92F82000128CC2F30721F522084B4C
:108150001A701A4651709070FF22DA701A715A71B3
:108160009A71DA710722034B1A607047901D002044
:10817000201D00206C18002000210020094A107AE0
:108180001289110AD222084B1A701A465170907047
:108190000022DA701A715A719A710722034B1A6021
:1081A00070470000601D0020201D00206C1800207A
:1081B00070B50024CC48006805287DD1FBF7F4FD9C
:1081C000CA480068002877D000BFC948407D012810
:1081D00004D1FBF763FC0020C54948750020C54960
:1081E000C86563E1402C00D370BDC348005DD4284E
:1081F0001ED00ADCA0F13100092875D2DFE800F0BA
:108200006876828C90B2DDEAFE00E3286DD008DC4F
:10821000D52859D0E02813D0E12816D0E22863D120
:1082200018E0E42877D0E52819D0E628F7D130E027
:10823000B248006D012801D0FFF7E8FE641C1DE183
:108240000020FFF71DFF641C18E10120FFF718FF55
:10825000641C13E10220FFF713FF641C0EE1E5200C
:10826000A7490870A7A000794870A6A04079887037
:10827000A4A00078C870A3A040780871A1A080785D
:108280004871A0A0807A88710720A1490860641C09
:10829000F4E0E6209A4908709EA0007848709DA0FE
:1082A000407888709BA08078C8709AA0C0780871C8
:1082B00098A00079487100E000E100208871072053
:1082C00093490860641CD9E0FFF756FF641CD5E0B1
:1082D000F1229249012003F027FA8D4908600846EF
:1082E000006800B9641CC9E0C6E09BE0F3228C4939
:1082F000022003F019FA864908600846006800B9B0
:10830000641CBBE000208549088085490880FFF790
:1083100015FF641CB2E078E0FFF72EFE641CADE0B0
:10832000002505E000217348643040F825106D1CDD
:10833000132DF7DB00207B4908607B490860012092
:108340006E49086500206B49086481F848000120E7
:1083500081F849007549087041037548FCF769FFC9
:10836000641C8BE0002505E000216248643040F881
:1083700025106D1C132DF7DB00206A4908606A493F
:1083800008605E4908655B49086481F8480001207F
:1083900081F849000020654908705649886502F057
:1083A000CDFF002002F088FFFBF778FB4FF400516F
:1083B0005F48FCF740FF641C60E0E01D4B49096822
:1083C000884204D82046FBF773FBE41D01E04748D0
:1083D000046853E0F7220021032003F0A5F94C497B
:1083E00008600846006818B152480088FF2803DB7F
:1083F000002050490880641C40E0FFE70020474906
:10840000088047490880641C38E0E01D3749096846
:10841000884204D8204603F0DFFEE41D01E0334823
:1084200004682BE0601D31490968884221D8201D6D
:10843000402800D3D8E6304A601C115C5C20FBF772
:108440003CFB2D4AA01C115C6020FBF736FB2A4A3E
:10845000E01C115C6420FBF730FB274A201D115CF7
:108460006820FBF72AFB641DFDF72CF9FDF7CAFA1B
:1084700001E01E48046801E0641C00BF00BF2448FE
:10848000006898B1002600E0761C2B48006801289F
:1084900003D04FF6FF708642F6D31D480068C1B284
:1084A0001748FBF78DFC0020194908600F48006849
:1084B000A0423FF697AE00200C4908604FF40071CF
:1084C0001E48FCF7AFFE68B9002600E0761C1A488B
:1084D0000068012803D04FF6FF708642F6D30020D3
:1084E00003F07CFF00BF7FE6681900208C18002095
:1084F000601D0020981E002024250020901D0020D3
:10850000201D00204D61792032312032303233007D
:108510006C180020342E30322B0000003018002060
:108520003218002040180020441800203418002081
:10853000000802403C1800202818002000040240D7
:1085400000BFFEE710B5521C5208084B03EB410177
:10855000002A09D003784478801C43EA042321F8D8
:10856000043B521E002AF5D110BD000000600040FF
:1085700010B500210F4A2128126802D0202807D008
:108580000FE0107800F07F0021280AD10A4908E0A6
:10859000107800F07F00212800D10849084B2020E6
:1085A000187029B19161002050828847002010BDC9
:1085B000022010BD50180020DD85000859870008F2
:1085C000D41800200149FEF7C5BF0000E8180020BC
:1085D0000149FEF7BFBF0000E0180020002801D0CD
:1085E0000348704703490820096808820020704743
:1085F000D81800205018002005490968C9780429B6
:1086000001D900207047034A02EBC101FEF7A2BF67
:108610005018002020190020002901D002207047A6
:10862000012801D9022070470020704708490968D5
:10863000097801F07F01212903D1022803D02228E3
:1086400003D00220704700207047002070470000D0
:108650005018002010B53348002100688172324A5A
:10866000D2794272C1720020FEF7DEFC4FF4007135
:108670000020FEF7ADFD10210020FEF77DFD40211A
:108680000020FEF7FDFC80210020FEF757FD0020B2
:10869000FBF70AFD254890F82C100020FEF700FD9E
:1086A0000020FEF737FD00210120FEF791FDC021DB
:1086B0000120FEF743FD20210120FEF75DFD002192
:1086C0000120FEF70FFD4FF4C0610220FEF780FD90
:1086D0004FF480710220FEF731FD00210220FEF7E9
:1086E00001FD20210220FEF747FD00210320FEF7B7
:1086F0006FFD4FF488710320FEF7C2FC4021032078
:10870000FEF7CEFC4FF440510320FEF7EBFC0021B6
:108710000320FEF731FD0020FEF78EFC0449012006
:10872000086010BD501800200EC40008F01800208A
:10873000681900200348807A002802D002490520E9
:1087400008607047082500206819002001490420AE
:108750000860704768190020002801D0034870475E
:10876000034908200968088200207047D8180020B3
:108770005018002003480178202901D10021017000
:1087800070470000D41800207047000010B5FCF7B7
:108790008BFD0548002400688472FDF7D7FAFFF7C7
:1087A000A5FB0248046010BD501800206819002085
:1087B0000FB4084B10B504A902AA039800F0E4F81E
:1087C000044602A9002000F076FC204610BC5DF8AB
:1087D00014FB0000B790000802E008C8121F08C18F
:1087E000002AFAD170477047002001E001C1121F32
:1087F000002AFBD170470000014908607047000063
:108800008C1900202DE9FF5F82B00021DDE90430E2
:10881000020DDDF840B0034318D044F61050A2F228
:10882000FF3242431514119801281FD0A5EB0B000D
:10883000401C5FEA000A4FF000064E4FDFF8389107
:10884000B046504615D5CAF1000413E01198012432
:108850004AA3012801D16FEA0B010298119AC0E9DD
:108860000031C0E9024206B0BDE8F09FCBF1000044
:10887000DFE704460021404A491842EB0450CDE9A5
:10888000001012E0E00707D032463B46404649461A
:10889000FAF727FD8046894632463B461046194680
:1088A000FAF71FFD06460F466410002CEAD1DDE9F9
:1088B0000401DDE90023BAF1000F06DAFAF711FD31
:1088C00042464B46FAF70DFD05E0FAF77CFD4246BD
:1088D0004B46FAF778FD04460E460022284BFAF77D
:1088E0003BFE03D84FF0FF30014607E00022254B46
:1088F00020463146FAF749FFFBF73FF8102409E01C
:10890000002C0ADB0A220023FAF77AFE039B30329E
:108910001A55641E50EA0102F2D1641C039AC4F194
:1089200011031444119A012A03D0012208430DD1E6
:108930000AE0084304D000204FF0110B119072E7B9
:10894000A3EB0B056D1E0DE05B4504DD4FF000024F
:1089500005F1010504E003DA4FF00002A5F101057D
:10896000002AECD002981199C0E90231C0E9004513
:1089700079E70000000014400000F03F30000000E4
:108980000000F0430000E03F2DE9FF4F95B09B460B
:108990008946064600250FE2252877D10024274680
:1089A000F84A0121059400E0044316F8013F203BFA
:1089B00001FA03F01042F7D130782A2811D06FF075
:1089C0002F033078A0F13002092A16D8059A44F016
:1089D000020402EB820203EB42021044761C059073
:1089E000EFE759F8042B0592002A03DA504244F4C9
:1089F0000054059044F00204761C30782E2816D1DD
:108A000016F8010F44F004042A280DD06FF02F024D
:108A10003078A0F13003092B09D807EB870302EB6C
:108A20004303C718761CF3E759F8047B761C3078AB
:108A30006C280FD006DC4C2817D068280DD06A2887
:108A400014D104E0742810D07A280FD10DE044F43A
:108A500000140AE044F4801401E044F440147278F5
:108A6000824202D104F58014761C761C3078662888
:108A70000BD013DC582877D009DC002875D04528A6
:108A8000F6D04628F4D047281AD19DE118E0632893
:108A900035D0642879D0652812D195E1702873D03B
:108AA00008DC6728F1D069286FD06E280DD06F28B8
:108AB00006D1B5E073282CD0752875D0782874D0ED
:108AC0005A46179990476D1C75E1C4F3025002286D
:108AD00009D003280DD0D9F8001004280DD00D605E
