:020000040800F2
:1030000000280020093100088D570008D150000821
:10301000895700089B3D0008B982000800000000A5
:103020000000000000000000000000001D6D00080E
:10303000F543000800000000015A0008117500085F
:10304000233100082331000823310008F56A000805
:103050002331000823310008694A00082D4C00087C
:10306000014D0008233100082331000823310008F6
:1030700023310008233100082331000823310008E0
:1030800023310008233100082331000823310008D0
:103090005D7C000823310008FD3D0008BD4D00089F
:1030A00023310008F5770008233100082331000898
:1030B0002331000821760008157700082331000825
:1030C0002331000823310008233100082331000890
:1030D0002331000823310008233100082331000880
:1030E000294B000801600008817A0008233100089C
:1030F00023310008DFF80CD000F058FC00480047EE
:10310000999B000800280020064880470648004791
:10311000FEE7FEE7FEE7FEE7FEE7FEE7FEE7FEE787
:10312000FEE7FEE7C9750008F5300008421E12F8F8
:10313000013F002BFBD111F8013B02F8013B002BB2
:10314000F9D17047421C10F8011B0029FBD1801AED
:103150007047F0B480EA0102D40F4200B2EB410F95
:1031600002D20246084611464A0042D0C30DDDB2E3
:10317000C1F3C752AD1A202D35DAC1F3160141F45F
:10318000000204B15242C5F1200602FA06F12A41BA
:103190001044B3EBD05F23D0C4B1012DA0EBC350DA
:1031A00009DCF0BC4FF0004202EAC352DBB200F58A
:1031B000000000F05FBA400000F1807000EBC350E7
:1031C000A0F1807040EAD170490009E0490841EA65
:1031D000C071A0EBC35000F50000400800EBC350E5
:1031E000F0BC00F03EBA6142012202EB4101001B3B
:1031F000F6E7F0BC704781F00041AAE780F000409C
:10320000A7E780EA010210B502F00043400022D097
:103210004A001FD0010E01EB1261C0F35600C2F349
:10322000560240F4000042F40002A0FB0220000419
:103230007F39140400D0401C50EA124001D44000F1
:10324000491EC2B20C0604EBD010401C4008802A74
:1032500002D003E0002010BD20F00100002900DAB8
:103260000020184310BD30B480EA010202F000458E
:1032700030F0004221F0004013D090B1C30DD40DC6
:10328000C2F31601C0F31600E41A41F4000140F441
:1032900000027D34914201D3641C00E04900002CFF
:1032A00002DA30BC002070474FF400000023914246
:1032B00001D3891A034340084FEA4101F7D151B1C4
:1032C000914202D14FF0004105E002D24FF00101DE
:1032D00001E06FF0010103EBC450284430BC00F062
:1032E000C0B92DE9FE4F81EA030404F0004421F047
:1032F000004100944FF0000B23F0004350EA01041A
:103300005ED052EA03045BD0C3F30A54C1F30A55FA
:103310002C44A4F2F3340194A0FB0254C1F3130132
:1033200041F48011C3F3130343F4801301FB0244FF
:1033300000FB034E840A970A44EA815447EA835704
:10334000A4FB076802958D0A05FB07854FEA932CBD
:1033500004FB0C542705029D4FEA065847EA16372E
:10336000B5EB08056EEB070C870E920E47EA811746
:1033700042EA8312A7FB0201B6EB0B0164EB0004E7
:103380002B0D43EA0C335E1844EB1C50DA465146D1
:10339000E7FB0201C5F313044FEA0B3343EA14536E
:1033A0004FEA0432019C43EA0603A4F10C040294A0
:1033B000009CCDE900B400F09AF903B0BDE8F08FAD
:1033C00000200146F9E72DE9F04D81EA030404F0FD
:1033D000004B21F0004514464FF0000A23F0004155
:1033E00050EA050220D054EA01021DD0C5F30A5765
:1033F0000246C5F31303C1F31300C1F30A5640F4A8
:10340000801543F48013A7EB0608101BD64608F27C
:10341000FD3873EB050002D308F1010801E09218B2
:103420005B41B8F1000F03DA00200146BDE8F08DE2
:1034300000204FF48011064684460EE0171B73EB04
:10344000050705D3121B63EB050306434CEA010C89
:1034500049084FEA300092185B4150EA0107EDD16C
:1034600052EA030012D082EA040083EA050108430D
:1034700005D0101BAB4106D20122002306E000223A
:103480004FF0004302E06FF0010253101AEB060008
:103490004CEB085110EB0A0041EB0B01BDE8F04D7D
:1034A00000F016B9C10F80EAE0700844CA079623FD
:1034B000002100F0DFB896230022114600F0DAB8B0
:1034C0000EB540F2334102910021CDE900110A46C8
:1034D0000B4600F00CF903B000BD20F00040C10D18
:1034E000C0F3160040F400007F2901DA0020704785
:1034F000962903DCC1F19601C8407047963988408F
:10350000704700F0004230F000400AD0C10D01F5D4
:103510006071C0F3160042EA0151C208400711432E
:10352000704700200146704730B5041E71F1000459
:1035300004DB4FF00044404264EB0101141E73F1C0
:10354000000405DB1C464FF00043524263EB0403CA
:103550008B4208BF824230BD30B5041E71F10004B9
:1035600004DB4FF00044404264EB0101141E73F190
:10357000000405DB1C464FF00043524263EB04039A
:10358000994208BF904230BD01F0004330B421F0B1
:10359000004150EA010206D00A0DA2F56072C1F3A3
:1035A0001301002A02DC30BC00207047440F44EABB
:1035B000C104C100E01830BC00EBC25000F051B8AB
:1035C000002801DBC0F10040002901DBC1F100410E
:1035D0008142704730B50B4601460020202201246D
:1035E00009E021FA02F59D4205D303FA02F5491BD1
:1035F00004FA02F52844151EA2F10102F1DC30BDE7
:103600002DE9F05F0546002092469B468846064617
:10361000814640241BE0284641464746224600F0AA
:10362000E6F953465A46C01A914110D3114618463E
:10363000224600F0CDF92D1A67EB01084F462246CD
:103640000120002100F0C4F917EB00094E41201EB3
:10365000A4F10104DFDC484631462A464346BDE872
:10366000F09F0029A8BF7047401C490008BF20F008
:103670000100704710B4B0FA80FC00FA0CF050EA78
:10368000010404BF10BC704749B1CCF1200421FAF9
:1036900004F411FA0CF118BF012121430843A3EBF4
:1036A0000C01CB1D4FEA00614FEA102042BF002001
:1036B00010BC704700EBC35010440029A4BF10BCDD
:1036C0007047401C490008BF20F0010010BC704743
:1036D00010B5141E73F1000408DA401C41F100011A
:1036E00092185B411A4301D120F0010010BD2DE971
:1036F000F04D92469B4611B1B1FA81F202E0B0FA68
:1037000080F22032904600F063F904460F4640EA0A
:103710000A0041EA0B0153465A46084313D01146AA
:1037200053EA010019D0C8F14002504600F05FF999
:1037300005460E4650465946424600F049F90843B0
:1037400005D0012004E020463946BDE8F08D002078
:10375000054346EAE0762C4337430A986305E40ABA
:10376000A0EB08000022FD0A44EA47540A3002D5C3
:1037700000200146E9E7010510196941DDE9084526
:1037800000196941BDE8F04DA2E72DE9FE4F8046E2
:1037900081EA0300C00F0C46009021F0004123F0A5
:1037A0000045B8EB0200A94105D2404621469046AB
:1037B0001C460B46024623F00040104347D0270D1D
:1037C000C7F30A00C3F30A510290401A019040283F
:1037D0006BDAC3F3130040F4801B0098924620B1CB
:1037E0000023D2EB030A63EB0B0B01985946C0F19F
:1037F0004002504600F0ECF806460D465046594649
:10380000019A00F004F910EB08006141002487EAF6
:10381000115284EAE7731A4340D0009A62B3019AC6
:10382000012A4FEA075215DC001B61EB02014FF041
:10383000004202EA0752CDE90042001C41F5801126
:1038400032462B46FFF753FF03B0BDE8F08F4046EA
:103850002146F9E7001B61EB0201001C41F58013D2
:1038600000185B412018A2F5001747EB030140EA5E
:10387000D570B6196D4111E06D084FEA360645EA7C
:10388000C0754FEA0752001B61EB0201001C41F5B5
:10389000801149084FEA30000019514132462B4649
:1038A00003B0BDE8F04FFFF713BF009801224000BE
:1038B0000023D0EB020263EBE073009821464FEA4D
:1038C000E074B8EB000061EB0401E9E783F000432A
:1038D0005BE781F0004158E72DE9F04D00231A46DF
:1038E0001B1A8A4103DB00200146BDE8F08DC1F3BD
:1038F0000A52C1F3130141F480154FF0000BD107B8
:1039000002D100186D41521E0027044640F2FF11FB
:10391000384601EB620A3E468046024600204FF4DC
:10392000801100F064F8C2197141BB1846EB010028
:10393000B4EB030C75EB000C04D3E41A65EB000543
:1039400017460E46241908F101006D4180463428BF
:10395000E3DDF91946EB0600091BA84103D24FF03D
:10396000FF32134601E0002213461BEB070046EB33
:103970000A51BDE8F04DFFF7ABBEC1F30A52C1F3E7
:10398000130140F2FF3341F480119A4202DA002021
:103990000146704740F233439A42A2F2334202DCBE
:1039A000524200F024B800F013B80000064C074D56
:1039B00006E0E06840F0010394E8070098471034FF
:1039C000AC42F6D3FFF79AFBDCC100080CC200083A
:1039D000202A04DB203A00FA02F1002070479140CF
:1039E000C2F1200320FA03F3194390407047202AC4
:1039F00004DB203A21FA02F00021704721FA02F399
:103A0000D040C2F120029140084319467047202A55
:103A100006DBCB17203A41FA02F043EAE07306E0F6
:103A200041FA02F3D040C2F1200291400843194606
:103A3000704770B58C1810F8015B15F0070301D1C1
:103A400010F8013B2A1106D110F8012B03E010F801
:103A5000016B01F8016B5B1EF9D12B0705D4002324
:103A6000521E0DD401F8013BFAE710F8013BCB1AC6
:103A7000921C03E013F8015B01F8015B521EF9D5BB
:103A8000A142D8D3002070BD40F2BD7CC2F2000C30
:103A9000604740F2213CC2F2000C604740F60D1C2A
:103AA000C2F2000C604740F6610CC2F2000C6047A5
:103AB00040F24D4CC2F2000C604740F2456CC2F23D
:103AC000000C604740F2AD5CC2F2000C604740F26F
:103AD000DD6CC2F2000C604740F2A16CC2F2000C37
:103AE000604740F27D5CC2F2000C604740F2511C1E
:103AF000C2F2000C604740F2811CC2F2000C604729
:103B000040F28D0CC2F2000C604740F2151CC2F26C
:103B1000000C604740F2611CC2F2000C604740F2AA
:103B2000711CC2F2000C604740F25D2CC2F2000C26
:103B3000604740F2A91CC2F2000C604740F23D2CE5
:103B4000C2F2000C6047002904D0816841F00401F2
:103B500081607047816821F0040181607047000036
:103B60002DE9FC47082001F023FF0028FAD0684621
:103B700001F05DFA4FF40078CDF8008003208DF855
:103B8000040000268DF80760DFF87090694648460B
:103B900001F0F9F91A4D2E6000241A4F384600F052
:103BA000EBF80221384600F044F80028F9D03846F6
:103BB00000F03CF8296808442860641C0A2CEDD306
:103BC00028680A21B0FBF1F02860684601F02FFA5E
:103BD000CDF8008001208DF804008DF806008DF8E6
:103BE00005608DF807606946484601F0CCF90099F8
:103BF000484689B201F019FABDE8FC87000402408A
:103C0000141C002000240140002904D0816841F0E8
:103C1000010181607047816821F001018160704776
:103C2000826822F0F0020A4382607047806D80B2A1
:103C300070470246002012680A4200D001207047F7
:103C400030B542680F4B1A400C790B6842EA0422E7
:103C50001343436083680C4A1340D1E90342224373
:103C60004D798C6844EA450422431A438260026B12
:103C700022F0F872097D491EC9B242EA015101637E
:103C800030BD0000FFFEFFFCFDF7FFC0002A03D09F
:103C900042680A434260704742688A434260704704
:103CA00070B507251D290AD9C66DA1F11E0404EBC4
:103CB0004404A540AE43A3401E43C66521E013293A
:103CC0000AD9C668A1F1140404EB4404A540AE432C
:103CD000A3401E43C66014E009290AD90669A1F170
:103CE0000A0404EB4404A540AE43A3401E4306610E
:103CF00007E0466901EB4104A540AE43A3401E43E3
:103D000046611F23072A09D2046C521E02EB82026D
:103D100093409C4391400C43046470BD0D2A09D22A
:103D2000C46BD21F02EB820293409C4391400C4330
:103D3000C46370BD132A09D2846B0D3A02EB820270
:103D400093409C4391400C43846370BD192A09D26F
:103D5000446B133A02EB820293409C4391400C4324
:103D6000446370BD046B193A02EB820293409C439A
:103D700091400C43046370BD816841F080418160D3
:103D80007047002101600171417181604FF0407204
:103D9000C260016101210175704700BFFEE7C1B239
:103DA000000A40EA0120704710B50449002008606D
:103DB000032003F06BF8012010BD00000415002063
:103DC00010B50C46402C0FD2084A00211160224643
:103DD000C02104F073FA2146012003F07BF8012092
:103DE00003F09EF8012010BD002010BD001500203A
:103DF0000149002008607047007C004010B5002495
:103E00004FF4800001F074F8002834D04FF48000A3
:103E100001F068F81848006868B3002001F038FE27
:103E20001648006884B214480068022803D9102C90
:103E30000ADD641008E04FF6FF7000EA4404B4F5B0
:103E4000F05F01DD4FF400540B480068192800D9D9
:103E5000102400200849086000BF002002F096FEF0
:103E60000128FAD1204602F031FE00BF012002F005
:103E70008DFE0128FAD110BD601F002014280040DB
:103E800010B5064B1968064A1140D0E90024806835
:103E90002243084302431A6010BD0000007C00402A
:103EA000FFEF03FF2DE9F84F002000904BF6BF779E
:103EB00048F28008614E624D40F68F7ADFF88491B7
:103EC00048F60F7B604C2CE0088800F00F0089F862
:103ED000000078B304EB8001D1F8002C0092BDF80B
:103EE000002012040AD5D1F8002C02EA0A02C1F817
:103EF000002C5649401E51F820008047BDF80000B4
:103F000000060ED599F8000004EB8001D1F8002CD2
:103F100002EA0B02C1F8002C4D49401E51F8200066
:103F200080474648443000684A4908800004CBD4A2
:103F3000BDE8F88FFFE730682880288800F030005F
:103F40006880288800F4405028803068384080F429
:103F5000005080F0200040EA080030600888C00669
:103F600020D4306800EA0B00306001F0D5F83068EA
:103F700038402988C90401D580F4805029888904F3
:103F800001D580F400506988C90601D580F0100081
:103F90006988890601D580F0200080B240EA0800D7
:103FA0003060C5E730680090BDF80000000520D5FE
:103FB000306800EA0A00306003F0B2F83068384038
:103FC0002988C90401D580F480502988890401D545
:103FD00080F400506988C90601D580F01000698816
:103FE000890601D580F0200080B240EA08003060E8
:103FF0009EE7BDF80000000493D5306800EA0A008F
:10400000306001F07DFC306838402988C90401D552
:1040100080F480502988890401D580F40050698893
:10402000C90601D580F010006988890601D580F0A5
:10403000200080B240EA0800306079E7005C004070
:104040005A1800204A18002000500040B4180020E0
:10405000981800208E180020810008480844D0F8E5
:10406000001C490409D5D0F8001C48F68F72114095
:104070004CF280021143C0F8001C70470050004011
:10408000810008480844D0F8001C490609D5D0F83A
:10409000001C48F68F72114048F2C0021143C0F86C
:1040A000001C704700500040810006480844D0F8CA
:1040B000001C48F68F62114048F280021143C0F89C
:1040C000001C704700500040054A002903D0516889
:1040D000014351607047516881435160704700004F
:1040E000002004E02DE9F047DFF89880D8F80010B0
:1040F00001F1100528880E7A234F4FF0300900286F
:1041000001D1042E04D0AC88A04215D8042614E0B6
:104110001E480178012903D00726102038802BE0A3
:104120001B4A002112681B4B92B2921C43F81210DA
:10413000A7F8009001701FE00226844200D90446CF
:10414000A968A0B288478246002000F099FF014686
:10415000A2B2504604F0B2F8A1B2002002F0BAFEBA
:104160002888001B2880688820446880A7F8009071
:1041700009494FF440500880D8F800000672BDE8A5
:10418000F08700004C1800205C1800204618002022
:10419000505C0040006000405A1800202DE9F041BA
:1041A000214E346810342088A168002915D0A0B1B0
:1041B000A588854200D90546A8B2884707462088C9
:1041C000401B2080608828446080002000F038FF79
:1041D0000146AAB2384601F0B9FB2088134F3025BA
:1041E00038B11349280208800021084602F072FE07
:1041F0003D802088A188884204D33168032008725A
:10420000BDE8F08118B1316805200872F8E731681F
:1042100006200872074800210068074A80B2801C07
:1042200042F810103D80EBE74C1800205C1800208D
:104230005A180020505C0040006000402DE9F8430F
:10424000634E306842780024624D062A296801D006
:104250008AB117E00278520669D18078012804D02B
:10426000022804D0032804D061E0CC695FE00C6A26
:104270005DE04C6A5BE0438823B9C388022B01D11F
:10428000037923B1082A39D00A2A3CD04FE00278BA
:10429000530601D1838833B102F07F02012A04D092
:1042A000022A0CD043E04C4C41E08A69407900215D
:1042B000904710BB3068807AF8B1474C37E04179BD
:1042C00001F00F0001F070020B06444907D501EB25
:1042D0008001D1F8001CC1F30111090106E001EBD6
:1042E0008001D1F8001CC1F3013109033C4B1B785C
:1042F00083421CD90AB901B1374C18E00078400656
:1043000015D1384C13E0027802F07F02012A0ED159
:10431000827A62B1428852B9027942B9C288012ACE
:1043200005D18A6940790021904700B92E4C0927B0
:104330004FF000083CB13068A0F812808461002082
:10434000A047002006E0296830680969407888475E
:10435000032816D031680A8AA2F57F43FF3B0DD0AF
:10436000022811D082B1087800062AD5C8880090AA
:10437000009882420CD9009808821AE00F72BDE8BA
:10438000F88330680772FAE74FF008000872F6E722
:104390000FD22868154B90F82C00824202D283F885
:1043A000008006E0B2FBF0F400FB142008B9012005
:1043B0001870286890F82C008882BDE8F843FFF751
:1043C00091BE032008720A4900030880D7E7000065
:1043D0004C180020501800201573000800500040B1
:1043E0003C190020A5720008ED7200084618002054
:1043F0005A180020704700002DE9F84FDDF828908A
:10440000074688469B46002508F106007E1C4400AE
:104410004FF47A7AB9F1000F22D189A1894804F0CA
:1044200083F8E0B2394601F029F987A1854804F004
:104430007BF8F1B2E0B201F021F98448834505D25E
:104440005A4683A17F4804F06FF805E0BBFBFAF2FF
:1044500080A17C4804F068F83946404601F026F90E
:10446000B9F1010F40D17D48D0F8D00050B3584683
:10447000FFF721F883467948D0F8D800FFF71BF8FA
:1044800001465846FEF7EFFE834675A16D4804F0DD
:104490004BF8E0B2394601F0F1F872A1694804F036
:1044A00043F8F1B2E0B201F0E9F86F4883450EDC61
:1044B0005846FFF726F802460B466CA1614804F007
:1044C00033F80DE0584604F099FF8346DDE758467F
:1044D000FFF717F802460B4666A15A4804F024F885
:1044E0003946404601F0E2F8DFF890B1B9F1020F29
:1044F00024D163A1534804F017F8E0B2394601F023
:10450000BDF858A14F4804F00FF8F1B2E0B201F045
:10451000B5F84E48DBF84C20401E824204D84CA12E
:10452000484804F001F805E0B2FBFAF249A1454819
:1045300003F0FAFF3946404601F0B8F8B9F1030F2D
:104540003DD14648D0F8DC00022810D24DA13D48AC
:1045500003F0EAFFE0B2394601F0C6F84AA1394853
:1045600003F0E2FFF1B2E0B201F0BEF80FE045A1C6
:10457000344803F0D9FFE0B2394601F07FF842A198
:10458000304803F0D1FFF1B2E0B201F077F82F48E4
:10459000DBF8B420824208D22DA12A4803F0C4FFE0
:1045A0003946404601F082F809E0B2FBFAF229A14F
:1045B000244803F0B9FF3946404601F077F808F186
:1045C000050000EB4000172202EB800205234FF0AC
:1045D000010AF90003EB80000B46CDF800A000F0C3
:1045E000C3FF0B98012828D1001F00EB07193F01DA
:1045F00008EB0500401E00EB8000400000EB450486
:1046000004F10A0620463B4632463946CDF800A062
:1046100000F0AAFF224620464B463946CDF800A0BE
:1046200000F0A2FF324630464B463946CDF800A096
:1046300000F09AFF6D1C062DDAD3BDE8F88F00005C
:10464000EAE2E000E8190020F1E5EA0040420F004C
:10465000253669002535694B000000002C1C002020
:10466000ECEAC70020F7200000007A4425362E32FD
:104670006600000025362E3066000000341D002044
:10468000ECEAD000F7E0F100F1EC32002DE9FF4F49
:104690008146DDE90E650F4614469846CB460EE08E
:1046A000A24608E00AF0FF010BF0FF00002200F034
:1046B000ADFF0AF1010AC245F4D90BF1010BBB456C
:1046C000EED9A7EB09000290A8EB040A0D990A2085
:1046D00059B1BAFBF0F00190002002994FF0010CA3
:1046E0000CEB5102A0490B6A53E0BAFBF0F00190C9
:1046F00000209D49029A521C0B6A0AE0109961B190
:104700000146DDF804C036F81110614500D9019169
:10471000401C9042F2D3BB461FE0854201D3291AC8
:10472000EFE7411BC1EB9301EBE71098C0B1A7EB9A
:104730000B0036F8100070B1019900FB0AF0B0FBD5
:10474000F1F0A8EB000301200090A7EB0B0002465C
:10475000414600F009FFABF1010BCB45E5D83FE046
:10476000A7EB0B00A84201D8281A04E0411B7E48A1
:10477000006AC1EB900036F81000DCE7109961B1D7
:104780000146DDF804B036F81110594500D9019101
:10479000401C8242F2D8BB4620E0854201D3291A50
:1047A000EFE7411BC1EB9301EBE71098E0B1A7EBFA
:1047B0000B0020F00100305A70B1019900FB0AF0A3
:1047C000B0FBF1F0A8EB000301200090A7EB0B0079
:1047D0000246414600F0C8FEABF1010BCB45E4D8E0
:1047E0001098022818D060E0A7EB0B01B5EB510F31
:1047F00002D3A5EB510205E05B48C5EB5102006A0C
:10480000C2EB900200204B085749096AB3EB910FA5
:10481000D2D236F81200CFE7534E0125BC360095B0
:104820003068E31E421CE11E00F09EFE00953068D9
:10483000A31E421CA11E00F097FE00957068E31EA7
:10484000421CE11E00F090FE00957068A31E421C01
:10485000A11E00F089FE0095B068E31E421CE11E17
:1048600000F082FE0095B068A31E421CA11E00F05D
:104870007BFE0095F068E31E421CE11E00F074FE12
:104880000095F068A31E421CA11E00F06DFE00956D
:104890003069E31E421CE11E00F066FE009530699F
:1048A000A31E421CA11E00F05FFE0125A31E4A4666
:1048B00021464846009500F057FE08F102034A469B
:1048C00041464846009500F04FFEA31E3A46214659
:1048D0003846009500F048FE08F102033A4641468A
:1048E0003846009500F040FE04EB5A05E9B201227B
:1048F0004846039500F08AFEE9B20122384600F0EE
:1049000085FE029D002D2DD0A80711D109EB0506CB
:10491000F0B20122214600F079FE03980122C1B2D3
:10492000F0B200F073FEF0B20122414600F06EFEDC
:10493000680714D1564696B14FF0030B09EB0507F3
:10494000B6FBFBF00BFB106030B9A8EB0600C1B260
:10495000F8B2012200F05AFE761E002EF0D16D1E34
:10496000002DD1D1BDE8FF8F2C1C002078B50B465F
:10497000154611490A6A9108104C94F8544091FB6D
:10498000F4F1B2F5CA7F01D3441801E000EB410411
:10499000A01C98420ED80126AB1EA21CA91E2046C0
:1049A000009600F0E1FDEB1EA21CE91E20460096D9
:1049B00000F0DAFD78BD00002C1C0020341D002022
:1049C00001490120086070470015002010B5084912
:1049D00001200860032000F043FB064908600246FE
:1049E000BDE810404FF48871034800F0AFBF0000ED
:1049F0000415002088180020C023002030B585B0A1
:104A00000121022001F0DEF900258DF80C5001246F
:104A10008DF80F40029402A9124800F0B4FA012167
:104A2000084601F0F9F90021012002F079F900941B
:104A30008DF804500C208DF805008DF8064068466E
:104A400000F060FA06208DF810000F208DF811009C
:104A50008DF812008DF8134004A800F099FE05B0FF
:104A600030BD00000004024010B5012000F040FA03
:104A7000B0B1012000F036FA0A48007880B90A483F
:104A8000C07828B10948008840F002000749088032
:104A900001200749087000200649486004F07AFCAC
:104AA00010BD000044180020201D002036180020F2
:104AB00045180020141D002030B585B001210220CA
:104AC00001F080F900248DF80C408DF80F404FF470
:104AD0008065029502A9134800F055FA01210846A5
:104AE00001F09AF90A21012002F01AF900958DF8D7
:104AF000044008208DF8050001248DF80640684622
:104B000000F000FA28208DF810000F208DF8110019
:104B10008DF812008DF8134004A800F039FE05B09E
:104B200030BD00000004024010B54FF4806000F07A
:104B3000DFF998B34FF4806000F0D4F9184800789A
:104B400060BB1848D0F8DC00022810D2164817497C
:104B5000098830F81100401C1349144A128821F8C2
:104B6000120013480068401C1149086004E0114815
:104B70000068401C0F4908600A48C06970B10E48BF
:104B8000007A10B10C48407A40B10C48C07828B186
:104B90000448D0F8D00008B906F03EFF10BD000070
:104BA000441800202C1C0020701F00203A18002000
:104BB0006022002068230020141D0020201D0020FA
:104BC00070B586B00121022001F0FCF800268DF8B6
:104BD000106001248DF813400225039503A91248A3
:104BE00000F0D1F90121084601F016F9012108462B
:104BF00002F096F801958DF808600C208DF80900F8
:104C00008DF80A4001A800F07DF907208DF8140006
:104C10000F208DF815008DF816008DF8174005A8A7
:104C200000F0B6FD06B070BD0004024010B50220D1
:104C300000F05EF910B312480078E0B91148007A2C
:104C400040B11048407A28B901200E49487206F058
:104C50002BFF08E00C48C07828B10C48008840F0D1
:104C600001000A490880012009490870002005490F
:104C7000486004F08FFB022000F034F910BD000002
:104C800044180020141D0020201D0020361800208C
:104C90004518002070B586B00121022001F092F87D
:104CA00000268DF8106001248DF81340042503952B
:104CB00003A9124800F067F90121084601F0ACF899
:104CC0000221012002F02CF801958DF808600C20DB
:104CD0008DF809008DF80A4001A800F013F90820AA
:104CE0008DF814000F208DF815008DF816008DF842
:104CF000174005A800F04CFD06B070BD000402404E
:104D000010B5042000F0F4F8B0B10C48007880B978
:104D10000B48C07828B10B48008840F004000949CE
:104D2000088001200849087000200849486004F004
:104D300031FB042000F0D6F810BD0000441800201C
:104D4000201D00203618002045180020141D0020CA
:104D500030B585B00121022001F034F800248DF82F
:104D60000C408DF80F402025029502A9124800F052
:104D70000AF90121084601F04FF80521012001F050
:104D8000CFFF00958DF8044008208DF80500012420
:104D90008DF80640684600F0B5F817208DF8100031
:104DA0000F208DF811008DF812008DF8134004A823
:104DB00000F0EEFC05B030BD0004024010B520202C
:104DC00000F096F890B3202000F08CF8214800788D
:104DD00060BB2148D0F8DC00022810D21F482049CF
:104DE000098830F81100401C1C491D4A128821F81E
:104DF00012001C480068401C1A49086004E01A4868
:104E00000068401C184908601348C06970B1174811
:104E1000007A10B11548407A40B11548C07828B1E1
:104E20000D48D0F8D00008B906F0F6FD4FF4007038
:104E300000F05EF860B14FF4007000F053F80548E0
:104E4000007828B906F0E8FD034840680849C860C2
:104E500010BD0000441800202C1C0020701F0020F2
:104E60003A1800206022002068230020141D002032
:104E7000201D002030B585B00121084600F0A2FFBA
:104E800000248DF80C408DF80F404FF4007502950A
:104E900002A9134800F077F80121084600F0BCFF92
:104EA0000921002001F03CFF00958DF80440082006
:104EB0008DF8050001248DF80640684600F022F8C0
:104EC00017208DF810000F208DF811008DF81200BA
:104ED0008DF8134004A800F05BFC05B030BD000065
:104EE00000000240014908607047000014040140BE
:104EF00001460020024A12680A4200D00120704791
:104F00001404014030B51B4A83790168002B2AD074
:104F100013688B431360111D0B680468A3430B6077
:104F2000017911440B68046823430B60114C083469
:104F30002168036899432160231D19680568A94306
:104F400019604179102905D011440A6800680243AC
:104F50000A6030BD21680268114321601968006849
:104F60000143196030BD0079104402688A43026031
:104F700030BD0000000401400021016001710C22DD
:104F80004271817170472DE9F041002201274FF0F5
:104F9000030C07FA02F50B682B40AB4227D10668D9
:104FA00053000CFA03F4A64391F8048008FA03F8BE
:104FB00048EA0608C0F800800E79012E01D0022EC2
:104FC0000FD18668A64391F8058008FA03F848EAED
:104FD0000608C0F808808688AE438D799540354331
:104FE0008580C568A543CC799C402C43C460521C85
:104FF000102ACED3BDE8F08110B54B07DB0E9A40E6
:10500000C90800EB8100016A0F249C40A1430162A2
:10501000016A1143016210BD02460020128A0A4251
:1050200000D00120704741837047018370474FF6DD
:10503000FF7101600021017141718171C17170477F
:105040000549096889B201EBC0000449001D31F827
:10505000100080B270470000505C004000600040CB
:105060000549096889B201EBC0000449801D31F887
:105070001000C0F309007047505C00400060004021
:105080000449096889B201EBC000034931F81000F6
:1050900080B27047505C00400060004010B50A4884
:1050A000016D446D406E084400280BD0082207496A
:1050B00000F062F8054920460422BDE81040103196
:1050C00000F05AB810BD00000000F81F6E18002054
:1050D00000BFFEE702494CF6CC4008607047000074
:1050E0000030004002494AF6AA20086070470000DC
:1050F0000030004001494860704700000030004027
:105100000149886070470000003000400149086094
:10511000704700000030004010B5144C2068017A40
:1051200002290AD0042908D006290BD008202168BA
:105130000872BDE8104000F065BCFEF7D3FF2068A0
:10514000007AF4E74178052909D10178490606D1AA
:10515000C07801F02DFE06480068006A80470548C7
:105160000068806880470820E1E700004C180020B4
:105170005418002050180020F0B500230A253026CE
:105180003727002412E0B5EB107F04D906EB107C22
:1051900001F813C003E007EB107C01F813C0000115
:1051A00001EB430C8CF801405B1CDBB29342EAD369
:1051B000F0BD2DE9F8470646DDF824900C46174669
:1051C00098460025B9F1640F01D94FF064094FF0FA
:1051D000010A43463A4641463046CDF800A000F069
:1051E000C3F943463A4621463846CDF800A000F0C0
:1051F000BBF94346324621463046CDF800A000F0C8
:10520000B3F923463A4621463046CDF800A000F0D7
:10521000ABF9631EFA1F611EF01DCDF800A000F06F
:10522000A3F9A31EFA1FA11EF01DCDF800A000F0E7
:105230009BF9A8EB0404601E00FB09F06421B0FB9D
:10524000F1F90AE0A8EB05014B1E491E7A1E701CFD
:10525000CDF800A000F088F96D1C4D45F2D3641E16
:10526000002509E0A8EB04014B1E491E7A1E701CA4
:10527000009500F079F9641E4C45F3D8BDE8F88735
:10528000F0B50021154B164C00EB80027F2810DD95
:1052900003F5F27650183044A0F5805090F8407C29
:1052A0001868451C1D602754491CC9B20529F1D353
:1052B0000DE00A4E361D5018304410F8A07C1868D6
:1052C000451C1D602754491CC9B20529F3D3186831
:1052D0000022411C19602254F0BD00000815002076
:1052E000FC190020F0B500222D4FDFF8B8C000EB0C
:1052F00080067F2807DD2C4BB1181944A1F5805199
:1053000091F8401C05E0274BB1181B1D194411F8FA
:10531000A01C01F0010303EB430401F0020303EBC3
:10532000430344EA430401F0040303EB430344EA68
:10533000830401F0080303EB430344EAC3030909B0
:1053400001F0010404EB440501F0020404EB440401
:1053500045EA440501F0040404EB440445EA8404EE
:1053600001F0080101EB410144EAC101DCF8004011
:105370003B553D196B7085F8601085F86110A41CD1
:10538000CCF80040521CD2B2052AB2D3DCF800108F
:105390000022481C7A54411CCCF800103A54F0BD4D
:1053A000FC19002008150020EC160020F0B50021A3
:1053B000164B174C00EB80027F2811DD03F5F275C8
:1053C00050182844A0F5805090F8400CC643186847
:1053D000471C1F602654491CC9B20529F0D30EE0B2
:1053E0000A4F3F1D5018384410F8A00CC5431868E8
:1053F000461C1E602554491CC9B20529F2D3186801
:10540000FF22411C19602254F0BD00000815002045
:10541000FC1900200020054A00214FF400731154AC
:10542000401C9842FBDB00F07DB90000FC19002015
:105430000020044A00214FF400731154401C98428C
:10544000FBDB7047FC190020491E01EB41014901BB
:10545000401E00EB400001EB40000149086070472E
:105460000815002070B53F4C102020830825658367
:105470000A2003F0DFFF25830A2003F0DBFF64200E
:1054800003F0D8FF002006F063FB0121202000F08C
:10549000DFF80121002000F0DBF80121B02000F04E
:1054A000D7F80121C82000F0D3F80121002000F036
:1054B000CFF80121102000F0CBF80121402000F0AE
:1054C000C7F80121812000F0C3F80121FF2000F07E
:1054D000BFF80121A12000F0BBF80121A62000F0B7
:1054E000B7F80121A82000F0B3F801211F2000F037
:1054F000AFF80121A42000F0ABF80121D32000F087
:10550000A7F80121002000F0A3F80121D52000F028
:105510009FF80121F02000F09BF80121D92000F034
:1055200097F80121222000F093F80121DA2000F001
:105530008FF80121022000F08BF80121DB2000F020
:1055400087F80121202000F083F801218D2000F050
:105550007FF80121142000F07BF8BDE870400120A5
:1055600006F0F6BA000002402DE9F04F04460D4661
:1055700093461E46802C33DCBBF1800F30DC202D9F
:105580002EDC202E2CDC711BABEB04004FF0FF391E
:10559000002902DA4942CA4601E04FF0010A002818
:1055A00001DA404201E04FF001094F004FEA4008A4
:1055B000E9B2E0B2099A00F029F8B84512DDA7EB8C
:1055C00068060BE0002E02DB5544A6EB08064C44AF
:1055D0003E44E9B2E0B2099A00F018F85C45F1D116
:1055E000BDE8F08FA8EB670B0CE0BBF1000F02DB0E
:1055F0004C44ABEB070B5544C344E9B2E0B2099A03
:1056000000F004F8B542F0D1EAE7000070B5802858
:105610001BD8202919D8CB0803EB430300EB431414
:105620000A4D285D21F007060123891B8B4022B11A
:10563000012A04D0022A05D006E0984304E003437F
:10564000D8B201E04340D8B2285570BDFC19002003
:1056500070B51025084C0426012906D065832683E1
:1056600001F056FB2583668370BD6583668301F078
:105670004FFB258370BD00000000024030B50024C0
:10568000112810D808290ED8FFF7DEFE064D285D38
:1056900008B1FFF7F5FD641CE4B2112CF7D3BDE8A7
:1056A000304003F09FBE30BDE819002070B50246BF
:1056B0000024112A14D8082912D81046FFF7C4FE76
:1056C000084DC2F1110605E0285D08B1FFF70AFE9A
:1056D000641CE4B2A642F7DCBDE8704003F082BE71
:1056E00070BD0000E819002070B502460024112AA0
:1056F00014D8082912D81046FFF7A6FE084DC2F1AB
:10570000110605E0285D08B1FFF750FE641CE4B205
:10571000A642F7DCBDE8704003F064BE70BD000037
:10572000E819002070B500250E4E05F1B000C0B29A
:105730000121FFF78DFF01210020FFF789FF0121E3
:105740001020FFF785FF7F2404EBC5100221305C99
:10575000FFF77EFF641E002CF6DA6D1C042DE4DBDF
:1057600070BD0000FC1900200548817A0548002919
:1057700002D00521016070470121016070470000DF
:10578000A42300206419002000BFFEE77047704783
:1057900030B50F23C27801250178002A1FD0154AA1
:1057A000126802F4E062C2F5E062C2F30722C2F1BD
:1057B0000404D3404278A24084781C401443220160
:1057C00001F1E02181F80024007800F01F018D40F4
:1057D0004009800000F1E020C0F8005130BD01F028
:1057E0001F0085404809800000F1E020C0F880518A
:1057F00030BD00000CED00E002490843024908609A
:10580000704700000000FA050CED00E0024A11406C
:10581000014302480160704780FFFF1F08ED00E070
:1058200070B50220314D29684C780A78530606D0AD
:1058300002F07F0101292ED0022931D03AE0092C53
:1058400006D0052C07D0032C12D0012C18D031E043
:1058500001F0BEFD2EE0C8787F2805D8887818B9F9
:10586000888808B9887A08B108203CE0002021E047
:10587000CA78012A1ED18988E1B901F0C5FD19E075
:10588000CA78012A16D18A88A2B9497A890611D51F
:1058900001F080FC0EE00B2C0CD101F011FE09E0B0
:1058A000012C02D0032C03D004E001F073FC01E0D2
:1058B00001F0BCFD30B10E49E0B209684969884782
:1058C000032802D018B108200DE009200BE00620C3
:1058D000084900220968084B89B2891C43F8112045
:1058E000064A302111802968087270BD4C180020CA
:1058F00050180020505C0040006000405C18002000
:1059000010B5104C2068007A02280ED004280CD064
:1059100003280CD005280AD007280DD008202168BC
:105920000872BDE8104000F06DB80820F7E7FEF7F8
:1059300035FC2068007AF2E703480068C0688047B9
:105940000820ECE74C18002050180020521C520888
:10595000064B03EB4101002A06D031F8043B20F846
:10596000023B521E002AF8D1704700000060004040
:105970000A4B1A6822F0030202431A6008480268C0
:1059800042F004020260012905D020BF016821F025
:1059900004010160704730BFF8E70000007000406C
:1059A00010ED00E0014988627047000000000E42DF
:1059B00001460020024A52680A4200D00120704786
:1059C00000700040014908617047000000000E426D
:1059D000014908627047000000000E420149486218
:1059E0007047000000000E42044A116821F4C051C3
:1059F000014321F00C00106070470000007000406F
:105A00007047000010B50B4890F82C10002001F0F2
:105A100003FA09480068007A082805D1074A4102BC
:105A20001180074A10211180092801D0002010BDE3
:105A3000012010BDEC1800204C1800205A1800203E
:105A40005C18002010B5064C01202060211D0020AC
:105A5000086002F00DF803202060002010BD000057
:105A6000405C004010B5012002F002F80121064818
:105A70000160064A00210160031D19604FF4E051E6
:105A800011800160002010BD405C004058180020CB
:105A900010B50446012C1BD11949087100F034F8E7
:105AA0001848008840F001001649088001220021B2
:105AB0001448143801F0C2FE0122022111481438A2
:105AC00001F06AFF02210F48143801F0C2FE16E00F
:105AD00000200B490871002202210A48143801F005
:105AE0005BFF002211460748143801F0A7FE02218F
:105AF0000448143801F0ADFE022000F005F810BD96
:105B0000601F00201408014010B586B0044624B17F
:105B1000012C4CD0022C79D16BE00121084600F019
:105B20007BF90121C80700F05BF90121102001F089
:105B30000BF94FF4402002904FF4600003904FF4B3
:105B40008050019000BF0820FFF732FF0128FAD1F2
:105B500001A8FEF795F900BF2E48006800F4E01098
:105B60000028F9D004A8FFF707FA4FF4800004904A
:105B700000208DF814000C208DF8150001208DF800
:105B8000160004A8FFF7BEF916208DF800000020CB
:105B90008DF802008DF8010001208DF803006846A1
:105BA000FFF7F6FD4FF48000FFF79CF92FE001218D
:105BB000C80700F015F94FF4402002904FF4600040
:105BC00003904FF48050019000BF0820FFF7F0FED3
:105BD0000128FAD101A8FEF753F900BF0D4800686B
:105BE00000F4E0100028F9D04FF48000FFF77AF9B4
:105BF0000DE0FEF7FDF800214FF0004000F0F0F856
:105C00004FF48000FFF76EF901E0FFE700BF00BF2F
:105C100006B010BD007C004070B500BF002501F04B
:105C20007FFC2748406A0F2802D90820244948628F
:105C300024484068B0F52F6F05D32248406841F2F0
:105C40006801884202D941F2680501E01D484568B3
:105C50004FF400711C48FFF7DFF948B11848406A5B
:105C600041F26801484341F23011B0FBF1F406E023
:105C70001348406A41F268014843B0FBF5F4134809
:105C800000681349B0FBF1F0401E86B20022314695
:105C9000104801F0AFFE21460E4801F0B0FE002092
:105CA00000F060FF202000F011FF00BF012000F095
:105CB0006DFF0128FAD10121800300F0AFFD70BD16
:105CC0002C1C0020141C002000000240040A0020AC
:105CD00000093D000008014000B587B00121042003
:105CE00000F09AF801A801F07FFE04A801F0B8FEC8
:105CF0006020ADF804000120ADF806002D48406A90
:105D000002900020ADF80C002B4800682B49B0FB36
:105D1000F1F0401E80B2ADF810000020ADF8180080
:105D20004FF40C7005900020ADF81200244801F0EB
:105D30009FFD0821224801F051FE0121204801F079
:105D400071FD04A91E4801F05DFE01A91C4801F087
:105D50002DFE08211A4801F041FE0121184801F0EA
:105D600061FD19208DF8000000208DF801008DF8EC
:105D7000020001208DF803006846FFF709FD0122AB
:105D800002210F4801F008FE0D481430008840F051
:105D900001000B491431088000221146084801F027
:105DA0004DFD0020FFF7B0FE0121054801F054FD34
:105DB00007B000BD2C1C0020040A002000093D0093
:105DC00000080140054A002903D011680143116011
:105DD0007047116881431160704700001C38024011
:105DE000054A002903D0116801431160704711680A
:105DF000814311607047000024380240054A0029A1
:105E000003D011680143116070471168814311602C
:105E10007047000018380240054A002903D0116875
:105E200001431160704711688143116070470000A1
:105E300020380240054A002903D01168014311604F
:105E400070471168814311607047000014380240A8
:105E5000024600205109012909D00749096802F0CA
:105E60001F02012393400B4200D0012070470249DA
:105E700034390968F3E7000034380240024800680A
:105E800000F00C007047000008380240034A116817
:105E900021F0F00101431160704700000838024012
:105EA000024900220A700870704700000238024060
:105EB0000149086070470000000047420249002283
:105EC0000A700870704700003538024001490862C6
:105ED0007047000000004742034A116821F4604106
:105EE000014311607047000004380240034A116802
:105EF00021F4E0610143116070470000083802405E
:105F0000034A116821F4605141EAC00010607047F3
:105F10000838024001490866704700000000474207
:105F20001143014301480170704700000A380240E4
:105F30000149086070470000D8064742C0F301419C
:105F4000032907D1094B196821F0C04100F0C04274
:105F50000A431A60054934310A6822F440320A6063
:105F60000A6800F4403002430A607047003802407B
:105F70000149086070470000DC064742034A116887
:105F800021F003010143116070470000083802400E
:105F900038B500220092144CCA222260532222609B
:105FA000114A1C3A002904D01168014311600120F4
:105FB00015E01168814311600B4A183A55141168B5
:105FC00001EA1021009B5B1C0093009BAB4201D0B7
:105FD0000029F4D0116811EA102F03D00120FF210D
:105FE000216038BD0020FAE7242800400021C1705C
:105FF00001704170817081600122027341607047BD
:1060000010B54FF40030FEF76DFF4FF4005000F074
:10601000BFFB00285CD04FF4005000F0C7FAFE48E8
:106020000078002854D101F01FF8FC48D0F8D000C7
:10603000002849D03B2407E0601EF94931F81010D0
:10604000F74820F81410641E002CF5DC0020F449F9
:10605000BC39A1F8BC000846B0F8BC0088BB0846B3
:10606000B0F8BE0068BB0846B0F8C00048BB0020CE
:10607000EA49C1F8D000EA49BC3948640864E749F4
:10608000C1F8A400E649BC3981F8480000214FF46A
:106090000070FFF77DFF00214FF4005000F0BEFBC1
:1060A0004FF4007000F074FA00220121DD4801F085
:1060B00073FC0021DB4801F0CFFB00210420FFF737
:1060C0008FFE0120D8498870D4484068D749C860FD
:1060D0004FF4805000F05CFB00287DD04FF48050DE
:1060E00000F064FACC480078002875D100F0EAFF8F
:1060F000CA48D0F8D00010B90120CB498870C748F1
:10610000006D012829D1CA480068142825D2C34847
:10611000006AC8490968884217D9C6480068001D46
:10612000C4490860BE485838C149096850F8210080
:10613000C149C24A128831F812100144B84858388F
:10614000BB4A126840F8221007E00020B9490860F5
:10615000B7480068401CB6490860B4480079B0B13F
:10616000AF48BC38C06D401CAD49BC39C865AB48B0
:10617000D0F8DC0002280AD20846816DAE48AF4A4A
:10618000128830F812000844A549BC398865A64831
:1061900080884B2805DD0120A349087000208880F5
:1061A00004E0A1488088401C9F4988809E488088E0
:1061B000022808DD9D48C078012804D100209A49B2
:1061C000888001200870984880790E2811DD974852
:1061D000007928B9002000E0B5E19149BC39886513
:1061E00097488168C1600020954988608E49887110
:1061F00004E08D488079401C8B4988718A48408929
:1062000046F21801884221DB0020874948818448F2
:10621000BC38006D401C8249BC39086502219020C1
:10622000FDF732FCB8B17E48BC3840697B49096A49
:10623000890848434FF46171B0FBF1F07849BC39EB
:10624000496B08447649BC39486304E07648408984
:10625000401C7549488174480089962844DB794878
:106260000088002801DDFDF714FC6F48407D0128FF
:1062700004D1FDF713FC00206B49487501206A49E1
:10628000087508468089401C888108468089202836
:1062900010DB002088810869FDF705FC6248006971
:1062A000401C6149086108460069B0F5297F01D9A1
:1062B0000020086120240CE0601E634951F8200092
:1062C00041F82400601E614951F8200041F8240083
:1062D000641E002CF0DC00205B4908605B4908600C
:1062E00001205149088104E04F480089401C4E4973
:1062F00008814A48D0F8DC00022813D102F078FF68
:106300004749BC39C1F8B4000E2406E0601E50496C
:1063100051F8200041F82400641E002CF6DC002017
:106320004B4908603D48D0F8DC00022872D2424850
:106330004249098830F811000A286CDB3748806A26
:10634000012868D13649BC3981F854003A483B49A4
:10635000098830F81100B0F5967F0BDD3048BC3865
:1063600090F85400632849D063202D49BC3981F846
:10637000540043E030483149098830F81100C728FB
:106380000BDD2748BC3890F854001E2836D01E205C
:106390002349BC3981F8540030E02748274909884F
:1063A00030F8110063280BDD1D48BC3890F854000C
:1063B0000A2823D00A201A49BC3981F854001DE06C
:1063C0001D481E49098830F8110013280BDD1448B8
:1063D000BC3890F85400042810D004201049BC396F
:1063E00081F854000AE00E48BC3890F854000228A6
:1063F00004D002200A49BC3981F854000848BC384E
:1064000090F854000549096AB0EBD10F27D9034829
:10641000008C1FE02AE02AE0441800202C1C0020F9
:10642000F01D002000080040FC1B0020201D002063
:106430003C18002040180020701F00203A1800204F
:10644000601F00203418002060220020E422002079
:1064500068230020C0F3C7003B4981F854003A4844
:1064600090F8540001281DD005F0A4F81AE0364831
:1064700090F85400012806D00120334981F85400D7
:1064800005F098F80EE03148D0F8DC00022809D277
:106490002D48C16C2E482F4A128830F8120008444B
:1064A0002949C8642948D0F8DC0002283BD2294891
:1064B0000088401C274908802448006A0988B1EBFD
:1064C000900F11D3204890F85400012806D11E489F
:1064D000C06C1F490988401A1B49C86400201C4928
:1064E00008801C49088014E0174890F854000128DF
:1064F00009D11548C16C1648164A128830F81200A6
:10650000081A1149C86400211148124A128820F85B
:1065100012100D48C06C10490968884203D90A4816
:10652000C06C0D49086001200C4948700C48C068D7
:10653000042805D90A48C068001F0949C86002E05C
:1065400000200749C86010BD341D00202C1C00200D
:10655000701F00203A180020E4220020FC1B0020BD
:10656000201D0020010901EB8101490000F00F000E
:106570000844C0B27047002103E0491CC9B20A3880
:10658000C0B20A28F9D2090740EA1160704700003A
:10659000C0F3100040F08000C1430348026802F0DD
:1065A00080021143016070470C280040000980B24E
:1065B00040F08000C1430348026802F080021143AA
:1065C000016070470C280040FEB500240121080737
:1065D000FFF706FC002000F06BF9A0F54851F239F6
:1065E00000D101240120FFF7F3F92CB90120FFF7B6
:1065F000BFFC0020FFF7BCFC0120FFF75FFC492037
:10660000FFF726FC0028FAD04FF48030FFF796FC05
:10661000FF260120FFF78CFC002534B930487F218C
:1066200041608660056000F01BF900F075FA00F02B
:1066300049FD0121080300F0F1F801210C02204678
:10664000FFF7A6FC2046FFF7A3FF64022046FEF7F3
:1066500049FC2046FEF746FC00948DF804500827BC
:106660008DF8057001248DF806406846FEF74AFC57
:1066700029208DF808008DF809508DF80A508DF802
:106680000B4002A8FFF784F826053046FEF72AFCE7
:1066900000968DF804508DF805708DF80640684618
:1066A000FEF730FC03208DF808008DF809508DF8B6
:1066B0000A508DF80B4002A8FFF76AF8002000F09E
:1066C00051FA40F6FF7000F001FA012000F05EFA86
:1066D0000128FAD10121800300F0A0F8FEBD0000DE
:1066E0008C19002001210170817041700021C1705E
:1066F0007047000008B5002000900E490868400669
:1067000015D44FF0FF3008604B14086800F04000CB
:10671000009A521C0092009A9A4201D00028F4D0AC
:106720000868400601D5012008BD002008BD0120F1
:1067300008BD00000C2800400248016821F08001DB
:10674000016070470C28004010B502460C460E4808
:1067500001680E480140080CE070C1F30423637027
:1067600001F03F03A370C1F342312170002A0AD126
:10677000FFF7F8FEE0706078FFF7F4FE6070A07835
:10678000FFF7F0FEA07010BD042800403FFFFF009F
:1067900010B500210D4A126802F004030B4A383A82
:1067A0001268840C20FA04F4024003EAD4331A433A
:1067B000064B343B1B6803EA1010002A03D0000488
:1067C000000C00D00121084610BD00004028004008
:1067D00010B502460C460F4801680F480140C1F34E
:1067E00005402070C1F30623637001F07F03A3709E
:1067F00001F48001090CE170002A0AD1FFF7B2FE12
:1068000020706078FFF7AEFE6070A078FFF7AAFEF8
:10681000A07010BD002800407F7F7F0030B50F4D75
:10682000CA222A6053222A600C4C0C4B1C3C20F0DC
:1068300004021C3300F00400002906D02168114333
:10684000216019680143196005E0216891432160C6
:10685000196881431960FF20286030BD242800405A
:1068600070B504460025114ECA20306053203060B8
:10687000FFF740FFA8B10D481C38016821F0400126
:10688000016001682268114301600848A16814385A
:1068900001600168A28841EA02410160FFF74CFFF4
:1068A0000125FF203060284670BD000024280040EC
:1068B00008B5034901EB800000900098006808BD0E
:1068C0005028004070B505460E46144600202B495E
:1068D000002D06D00968490608D52078FFF742FE4A
:1068E00005E00968490607D4E07005E0E070A0689B
:1068F000A8B1207BFFF736FEADB1A0782178E27811
:1069000040EA01406178090241EA02410843217BE3
:1069100040EA0160A1680843616808431CE0207BED
:10692000FFF720FEE8E72078FFF725FE05046078F2
:10693000FFF721FE45EA0025A078FFF71CFE05437E
:10694000E07845EA0045207BFFF715FEA16845EA9F
:1069500000600843616808430849CA221C310A6084
:1069600053220A60B6F5807F04D00A1F1060FF2012
:10697000086070BD014A14321060F8E70828004032
:1069800070B505460C460026002D06D16078C1067C
:1069900003D520F010000A3060702DB16078FFF749
:1069A000E1FDA078FFF7DEFD55B1A078E17840EA7F
:1069B000014560782178000240EA413005430FE04C
:1069C000E078FFF7D8FD05046078FFF7D4FD45EACD
:1069D0000025A078FFF7CFFD0543207845EA403534
:1069E0000E4CCA20206053202060FFF783FE88B140
:1069F0000B480540094820380560FFF79DFE074811
:106A00001C380068800604D400F086F810B1012616
:106A100000E00126FF202060304670BD24280040A1
:106A20003FFFFF002DE9F04105460C4600260020FF
:106A3000244F002D06D03968490608D52078FFF785
:106A400091FD05E03968490602D4E07000E0E0708D
:106A500055B1A078217840EA01456078E1780002DC
:106A600040EA014005430FE02078FFF784FD05046C
:106A70006078FFF780FD45EA0025A078FFF77BFDF1
:106A80000543E07845EA00450E4CCA201C342060DE
:106A900053202060FFF72EFE78B10B4805400948CF
:106AA00008380560FFF748FE3868800604D400F017
:106AB00033F810B1012600E00126FF2020603046A7
:106AC000BDE8F081082800407F7F7F000549CA2289
:106AD0000A6053220A60034A103A1060FF200860DF
:106AE00070470000242800400021C17001704170EF
:106AF0008170704710B54FF48040FFF749FE50B1E8
:106B00004FF48040FFF752FD4FF48010FEF7EAF992
:106B10000120FEF7BDFF10BD18B500200090104BFE
:106B2000CA201860532018600D491839086820F0F1
:106B3000A0000860CC13086800F02000009A521CE6
:106B40000092009AA24201D00028F4D00868800682
:106B500001D5012000E00020FF21196018BD0000D0
:106B600024280040084ACA211160532111600649B7
:106B70001C390B6823F007030B600B6803430B60A1
:106B8000FF201060704700002428004018B5002145
:106B90000091154BCA2119605321196012491C3903
:106BA000002805D0086840F480600860012017E0E4
:106BB000086820F4806008600B4A183A5414106882
:106BC00000F004000099491C00910099A14201D0F5
:106BD0000028F4D01068400701D4002000E0012014
:106BE000FF21196018BD00002428004008B5034AA1
:106BF00002EB800000900098016008BD5028004022
:106C00002DE9F041234C072800D020702078214D39
:106C10000626052204272049062838D2DFE800F09E
:106C2000030C12171F28686810B12270BDE8F081AC
:106C300000F034F82670F9E700F030F827700120F2
:106C40006860F3E70220607003202070EEE7607850
:106C5000401E607060780028E8D12770E6E7086879
:106C600080B240F01000086022700A206070DDE7FA
:106C70006078401E607060780028D7D1086880B2C4
:106C800020F010000860267000206860CEE72670B3
:106C9000CCE700006C190020405C004010B5064CA9
:106CA000206880B220F004002060FEF75DFD4FF404
:106CB0003F40206010BD0000405C0040002904D02F
:106CC000018841F0400101807047018821F04001B6
:106CD000018070478181704730B5028802F44153CA
:106CE0000A884C88CD8822438C882C4322430C8907
:106CF00022434C8922438C892243CC8922431A4364
:106D00000280828B22F400628283098A018230BD74
:106D100001460148FFF7DEBF003001407047000028
:106D200010B58A07120F0F23934021F00304054981
:106D300021448C689C438C608B68904003438B603B
:106D400010BD00000000014010B5C20F20F000404F
:106D50000A4C231D002908D01AB121680143216083
:106D600010BD19680143196010BD1AB12168814333
:106D7000216010BD19688143196010BD087C004076
:106D80000649002804D0486840F001004860704778
:106D9000486820F001004860704700000000014092
:106DA000024920F00700086070470000505C004076
:106DB000F0B50E490E7800210D4F48F68F7C48F251
:106DC00080050BE0CBB207EB8302D2F8004C04EA5B
:106DD0000C041C432C43C2F8004C491CB142F1D3B3
:106DE000044940F080000860F0BD00003C1900201C
:106DF000005000404C5C0040054A21F0010112683F
:106E000092B202EBC000034A001D42F81010704716
:106E1000505C0040006000400E4A126892B202EBE3
:106E2000C0000D4A801D02EB40023E290AD94809E4
:106E3000C90601D1401E80B24FF4004141EA8020D2
:106E4000106070474808C90701D0401C80B280021A
:106E500010607047505C00400060004082000A48AB
:106E60000244D2F8000C4BF68F731840CB0401D5C6
:106E700080F48050890401D580F4005048F28001EC
:106E80000843C2F8000C70470050004081000848D9
:106E90000844D0F8001C4BF68F72114081F48051E9
:106EA00081F4005148F280021143C0F8001C704781
:106EB00000500040054A21F00101126892B202EB35
:106EC000C000034A42F8101070470000505C0040B8
:106ED00000600040044A126892B202EBC000034A0C
:106EE000801C42F810107047505C00400060004069
:106EF00082000A480244D2F8000C48F6BF731840DA
:106F0000CB0601D580F01000890601D580F0200065
:106F100048F280010843C2F8000C7047005000405E
:106F2000810008480844D0F8001C48F6BF721140A0
:106F300081F0100181F0200148F280021143C0F875
:106F4000001C704700500040820005481044D0F8F3
:106F5000002C48F68F131A400A43C0F8002C7047E3
:106F6000005000400CB50022019200922D490868A3
:106F700040F4803008604FF4A043086800F400300B
:106F800000900198401C0190009810B90198984217
:106F9000F3D10868800302D50120009000E0009240
:106FA000009801283CD12048026842F004020260A7
:106FB000026842F002020260026842F001020260CE
:106FC00018482430026842F080520260C214174808
:106FD00002604268D206FCD412480830026802609F
:106FE0000268026002680260026822F47D020260A8
:106FF000026842F4110202600A6842F080720A607C
:107000000A689201FCD5016821F003010160016862
:1070100041F0030101600168C1F381010329FAD144
:107020000CBD000000380240003C024000700040EF
:1070300010B501210846FEF7EFFE4FF480242046EC
:10704000FDF750FF05490C60082048710120887148
:10705000BDE810400846FDF755BF0000601800204D
:107060000121C805FEF7BCBE38B54FF400740021FD
:107070002046FEF78DFF1148FEF7B8FF6846FFF780
:1070800033FD69460020FFF7A3FB9DF802000B4982
:10709000401CC0B288703B2801D93C388870084831
:1070A0004860064A21460020FFF70CFC2046FFF707
:1070B0006FFA01212046FEF76BFF38BD98190020BA
:1070C0000080808038B54FF4807400212046FEF7A0
:1070D0005FFF1148FEF78AFF6846FFF705FD694626
:1070E0000020FFF775FB9DF802000B49001DC0B2A0
:1070F00088703B2801D93C38887008484860064AA7
:1071000021460020FFF7DEFB2046FFF741FA012170
:107110002046FEF73DFF38BD981900200080808092
:1071200038B51948006880B2001D41001748095A57
:1071300089B200EB41040094154D2868017A0929B1
:1071400013D0217801706178241D41702088FCF7EC
:1071500026FE29684880A088A41DFCF720FE296827
:107160008880A41C00942088C880286801210172AE
:10717000C08828B1FDF762F8BDE83840FEF742BC90
:10718000FEF74EFBF8E70000505C00400060004056
:107190004C1800202DE9F0413D480068017801F0CD
:1071A0007F01002904D0022908D00220BDE8F08127
:1071B000417A01F0DF0141720020F7E7418809B907
:1071C000017909B10220F1E7324B417921F08004C5
:1071D000314E0A0607D506EB8402D2F8002CC2F322
:1071E0000112120106E006EB8402D2F8002CC2F371
:1071F000013212031D78A5420DD962B1807A50B1D7
:10720000080612D506EB8400D0F8000CC0F301107C
:10721000012802D024E00220C8E7E0B2FCF730FFEA
:10722000E0B23021FFF764FE1AE006EB8405D5F8E2
:10723000000CC0F30130012812D14BF68F7848F2D0
:1072400080079CB1E0B2FCF707FFD5F8000C00EA1C
:10725000080080F4805080F400503843C5F8000CDA
:107260000E4800684069804700209FE70C4890F86E
:107270002C100020FFF7D0FDD6F8000C00EA080023
:1072800080F4805080F400503843C6F8000CE7E7E3
:107290004C1800203C1900200050004054180020D9
:1072A000EC18002010B5074C002806D006480068EE
:1072B0000068804720680A3010BD216801200882DC
:1072C000002010BD4C18002054180020064A1368F6
:1072D0005A8A002802D00868104470478888801AAB
:1072E00018820020704700004C18002010B5074C91
:1072F000002806D0064800688068804720680C3067
:1073000010BD216801200882002010BD4C1800200B
:107310005418002010B52A49002809680DD02948C2
:10732000002202800A7853060BD002F07F02012A65
:107330001FD0022A1FD0002010BD0220088200208A
:1073400010BD497A8A0604D5027842F00202027022
:1073500003E0027802F0FD020270490604D50178CC
:1073600041F00101017025E0017801F0FE0101709A
:1073700020E0144810BD4A7902F00F011306124AAA
:107380000CD502EB8101D1F8001CC1F301110129D8
:1073900010D1017841F0010101700BE002EB810195
:1073A000D1F8001CC1F30131012903D1017841F06A
:1073B000010101700548006800698047014810BD5F
:1073C0004C1800204818002000500040541800209D
:1073D00010B50A480A4A00685278C178914203D829
:1073E00082780AB982880AB1022010BD81720548EC
:1073F000006840688047002010BD00004C18002045
:107400003C1900205418002010B506480068417A45
:1074100041F02001417204480068C06980470020A3
:1074200010BD00004C1800205418002070B52048F2
:107430000268517921F080041E4B21F080000D0676
:1074400003EB800005D5D0F8003CC3F301131B010A
:1074500004E0D0F8003CC3F301331B03164D2D7834
:10746000A54213D954888CB983B1927A72B10906B6
:1074700048F280020CD5D0F8001C48F6BF731940C2
:1074800081F010011143C0F8001C0BE0022070BD18
:10749000D0F8001C4BF68F73194081F480511143D2
:1074A000C0F8001C0548006880698047002070BD56
:1074B0004C180020005000403C19002054180020B7
:1074C00010B50F4C0F4A20681268C1789269407954
:1074D000904721688A7A8AB118B9087908B98878FA
:1074E00008B1022010BD08480068C06880472068C5
:1074F0004179C172C1780173002010BD022010BD16
:107500004C1800205018002054180020704700002C
:1075100002480068401C014908607047240A0020A6
:1075200010B5254B186800F00C001C1F23494FF4C0
:107530000042002815D004281AD008281BD00C2897
:107540001CD02068C0F34230401C82400A6018689A
:107550001A4AC0F303100D32105C0A68C2400A6078
:1075600010BD2068C0F34230401C82400A60EEE744
:1075700013480860EBE713480860E8E7186800F470
:1075800070101A6802F440020C4C241D04EB904069
:107590000078012404EB92521C6804F480342CB16E
:1075A000084C6043B0FBF2F00860D0E7044C604345
:1075B000B0FBF2F00860CAE708380240040A002075
:1075C0000024F40000127A0010B51048016841F45C
:1075D000807101600D4908310A680D4B1A400A603C
:1075E00002680C4B1A400260026822F4802202609A
:1075F000086820F47D000860091D00200860FFF77E
:10760000B1FC06490448086010BD00000038024083
:107610000CC0FF88FEFFFEEE0030000808ED00E021
:1076200010B50121344800F0ABF9002863D00121E6
:10763000314800F00EF93148007800285BD130481D
:10764000007AD0B12E48407AB8B92D480068401C65
:107650002B49086008460068642803D12021294886
:1076600000F0CBF926480068C82806D1102125482B
:1076700000F0C3F90020224908602148007A10B1C7
:107680001F48407A10B91E48007A58BB1E488078BF
:1076900001282ED11D48007878B11948406850283B
:1076A00005D900201649486004F0FEF923E014488B
:1076B0004068401C124948601DE011484068062897
:1076C00003D91348D0F8D00038B10D4840680128DC
:1076D00009D90F48D0F8D00028B1002008494860E7
:1076E00004F0E2F907E006484068401C044948609D
:1076F00001E004F0D9F910BD000400404418002056
:10770000141D0020000C0140201D00204518002001
:107710002C1C002010B5002401212F4800F030F966
:10772000002857D001212C4800F093F82B48D0F8BE
:10773000D00000284ED02A48B0F834012849C1F8BA
:107740004C01092413E02648D0F84C1100F59A703A
:1077500030F8140008442249C1F84C01601E01F5BC
:107760009A7131F810101F4820F81410641E002C74
:10777000E9D100201A49A1F834011848D0F8D40002
:10778000022802D10120184988701448D0F8A800B6
:1077900000B31348D0F84C011049D1F8AC1088421E
:1077A0000BD91248007A10B9002010494872012004
:1077B0000E49087204F030F90CE00C48007A0128F8
:1077C00008D104F071F9002009498870074908724E
:1077D0004872086010BD0000000800402C1C00200A
:1077E000341D0020681E0020FC1B0020141D0020FA
:1077F000201D002010B50221084800F0C1F860B13A
:107800000221064800F025F805480068401C04499C
:10781000086008468068401C886010BD0008014070
:10782000601F0020002904D0018841F08001018000
:107830007047018821F080010180704710B5012355
:107840008B40048C9C430484038C8A401343038440
:1078500010BDC94301827047002904D0018841F05E
:10786000010101807047018821F00101018070470A
:1078700010B5B0F1804F0CD03949884213D10121A5
:107880000220FEF7BBFA0021BDE810400220FEF7FF
:10789000B5BA01210846FEF7B1FA0021BDE8104053
:1078A0000120FEF7ABBA2F49884209D101210420FB
:1078B000FEF7A4FA0021BDE810400420FEF79EBAAE
:1078C0002949884209D101210820FEF797FA0021B1
:1078D000BDE810400820FEF791BA2449884209D13A
:1078E00001211020FEF78AFA0021BDE81040102087
:1078F000FEF784BA1E49884209D101212020FEF7F3
:107900007DFA0021BDE810402020FEF777BA194922
:10791000884209D101210420FEF78CFA0021BDE83C
:1079200010400420FEF786BA1349884209D101218C
:107930000820FEF77FFA0021BDE810400820FEF77E
:1079400079BA0E49884209D101211020FEF772FA56
:107950000021BDE810401020FEF76CBA10BD0000F9
:107960000004004000080040000C004000100040EF
:107970000014004000080140000C014000100140CC
:1079800002460020138A0B4092890A40002B02D045
:10799000002A00D001207047002A03D082890A43C0
:1079A0008281704782898A438281704710B5028C38
:1079B00022F001020284038C028B22F0700222F07A
:1079C00003040A88224323F002040B8923434C88D2
:1079D0001C43496841630283048410BD028B22F07A
:1079E00008020A4302837047002101804180416000
:1079F00001817047018582827047C162704741638F
:107A0000704700000288B0F1804F08D00F4B9842B9
:107A100005D00F4B984202D00E4B984203D122F072
:107A200070034A881A430C4B984206D00B4B98427D
:107A300003D022F440730A891A4302804A68C26262
:107A400009880185012181827047000000040040FF
:107A500000080040000C00400010004000140040EE
:107A60004FF0FF314160002101800181418070476A
:107A7000002802D00120FFF783B90020FFF780B96A
:107A800010B54FF48020FDF72DFA10BD10B5094C4C
:107A90000748206002210172074860600749A16021
:107AA0000068804760684068BDE8104000470000FB
:107AB000A42300204C180020EC18002040190020BE
:107AC00038B54FF4A060FDF797FE14208DF8000044
:107AD00002208DF8010000208DF8020001248DF8AD
:107AE00003406846FDF754FE2A208DF800008DF80B
:107AF00001408DF803406846FDF74AFE38BD00009E
:107B00002DE9F04188B000244E4D28684E4E70801B
:107B10007188DFF83881B8F800000140890505D583
:107B20004FF6FF5129603178491C3170718801404E
:107B3000080401D5FCF7B6F97088B8F800104FF6C4
:107B4000FF370840400503D52F6041484068804713
:107B50007188B8F800000140890402D54DF6FF7124
:107B6000296071880140C80405D54EF6FF70286071
:107B70000020FFF745F87088B8F8001008400005AD
:107B80000BD53448007810B1FFF7C0FC02E00220AA
:107B9000FFF736F84FF2FF7028607088B8F80010D1
:107BA0000840C0054AD54FF6FF6028602548001DF3
:107BB00000684FF00003000439D57068401C706005
:107BC0007068032834D91F48001F016809072FD4A3
:107BD000016889B2B160204A694602EB840CDCF886
:107BE00000CC1FFA8CFC41F824C0641C082CF4D390
:107BF000B46844F00104B460B468A4B20460B4682A
:107C000024F00104B460B468A4B20460286840059C
:107C1000FCD52F60002051F8204002EB8005A4B273
:107C2000C5F8004C401C0828F5D3736000E0736071
:107C300008B00720BDE8F041FEF7E2BF08B0BDE89C
:107C4000F0810000445C00408C180020581800208F
:107C5000EC180020681900200050004010B5FFF714
:107C60004FFF10BD05490020086005494FF43F4013
:107C700008800249091F086000207047445C0040EA
:107C80005818002010B5002008490871FDF7DAFEE9
:107C900000214FF40000FEF7A3F803F095FDFFF775
:107CA0003FFC034840680149C86010BD201D00200A
:107CB0002C1C002010B503F017FEFFF7B9F9FFF7F1
:107CC0002FFCFFF7CDF903F033FDFFF7F9FEFFF7C7
:107CD000DDFE0548406840F001000349486001208E
:107CE0000249087110BD000000000140201D002065
:107CF000002000211E4A126852B31E4A92F820004A
:107D0000128CC2F30721F6221B4B1A701A465170CF
:107D10009070174A1268521E184B13F82220164B07
:107D2000DA70134A1268521E144B33F82220120ADA
:107D3000114B1A710E4A1268521E104B53F8222032
:107D4000120C0D4B5A710A4A1278521E9A710AE0AF
:107D5000F622094B1A7000225A709A70DA701A7162
:107D60005A71FF229A710722054B1A607047000072
:107D70003C1800202C1C0020A8190020981D002071
:107D800068180020F0B50020002100220023002404
:107D90000025154E96F85840B6F85860C6F30723EC
:107DA0000026114FBE65114E76680A27B6FBF7F61E
:107DB000A6F59676F5B20C4E96F84C20B6F84C60C7
:107DC000C6F30721084EF66CC6F30740D126084FCC
:107DD0003E703E467370B470F07031717271B5715F
:107DE0000726044F3E60F0BD341D0020141C002007
:107DF000A81900206818002020B1012819D00228F5
:107E000047D12EE0E021284A1170284909785170A5
:107E100026495039B1F85010090A91702349503958
:107E2000096D090CD17021495039096D090E117184
:107E30002FE0E1211C4A11701C49091D097851707D
:107E40001A495039B1F85410090A9170174950393C
:107E5000496D090CD17015495039496D090E1171E0
:107E600017E0E221104A117010491431097851705D
:107E70000E495039B1F86410090A91700B49503914
:107E8000496E090CD17009495039496E090E1171BA
:107E900000BF00BF0021044A5171012191710721E7
:107EA000034A116070470000A81900205000F81F15
:107EB00068180020002100200A4A92F82000128C45
:107EC000C2F30721F522084B1A701A4651709070C0
:107ED000FF22DA701A715A719A71DA710722034B14
:107EE0001A6070472C1C0020A81900206818002078
:107EF00000210020094A107A1289110AD222084B67
:107F00001A701A46517090700022DA701A715A7104
:107F10009A710722034B1A6070470000FC1B002077
:107F2000A81900206818002070B50024CC4800680B
:107F300005287DD1FBF738FFCA480068002877D0B4
:107F400000BFC948407D012804D1FBF7A7FD0020F0
:107F5000C54948750020C549C86563E1402C00D378
:107F600070BDC348005DD4281ED00ADCA0F13100EA
:107F7000092875D2DFE800F06876828C90B2DDEADD
:107F8000FE00E3286DD008DCD52859D0E02813D0B6
:107F9000E12816D0E22863D118E0E42877D0E5285C
:107FA00019D0E628F7D130E0B248006D012801D0A1
:107FB000FFF7E8FE641C1DE10020FFF71DFF641CB5
:107FC00018E10120FFF718FF641C13E10220FFF7FE
:107FD00013FF641C0EE1E520A7490870A7A00079F3
:107FE0004870A6A040798870A4A00078C870A3A0AB
:107FF00040780871A1A080784871A0A0807A88712B
:108000000720A1490860641CF4E0E6209A49087042
:108010009EA0007848709DA0407888709BA08078D2
:10802000C8709AA0C078087198A00079487100E0E3
:1080300000E100208871072093490860641CD9E0A2
:10804000FFF756FF641CD5E0F1229249012003F0AE
:10805000F9F98D4908600846006800B9641CC9E058
:10806000C6E09BE0F3228C49022003F0EBF986493D
:1080700008600846006800B9641CBBE00020854920
:10808000088085490880FFF715FF641CB2E078E09E
:10809000FFF72EFE641CADE0002505E000217348CB
:1080A000643040F825106D1C132DF7DB00207B4950
:1080B00008607B49086001206E49086500206B4913
:1080C000086481F84800012081F84900754908706A
:1080D00041037548FCF7A7FF641C8BE0002505E011
:1080E00000216248643040F825106D1C132DF7DB29
:1080F00000206A4908606A4908605E4908655B4972
:10810000086481F84800012081F849000020654991
:1081100008705649886502F09FFF002002F05AFF60
:10812000FBF7BCFC4FF400515F48FCF77EFF641C7A
:1081300060E0E01D4B490968884204D82046FBF7FF
:10814000B7FCE41D01E04748046853E0F722002132
:10815000032003F077F94C4908600846006818B11D
:1081600052480088FF2803DB002050490880641C27
:1081700040E0FFE700204749088047490880641C29
:1081800038E0E01D37490968884204D8204603F0EA
:10819000B9FEE41D01E0334804682BE0601D31495D
:1081A0000968884221D8201D402800D3D8E6304AEB
:1081B000601C115C5C20FBF780FC2D4AA01C115C4C
:1081C0006020FBF77AFC2A4AE01C115C6420FBF774
:1081D00074FC274A201D115C6820FBF76EFC641DAF
:1081E000FDF726F9FDF79EFA01E01E48046801E05C
:1081F000641C00BF00BF2448006898B1002600E05E
:10820000761C2B480068012803D04FF6FF70864289
:10821000F6D31D480068C1B21748FBF7D1FD002016
:10822000194908600F480068A0423FF697AE002049
:108230000C4908604FF400711E48FCF7EDFE68B968
:10824000002600E0761C1A480068012803D04FF68B
:10825000FF708642F6D3002003F056FF00BF7FE692
:108260006419002088180020FC1B0020341D002009
:10827000C02300202C1C0020A81900204A756C2067
:10828000203520323032330068180020342E30324E
:108290002B0000002C1800202E1800203C18002075
:1082A0004018002030180020000802403818002034
:1082B000001500200004024000BFFEE710B5521C6C
:1082C0005208084B03EB4101002A09D00378447897
:1082D000801C43EA042321F8043B521E002AF5D1F6
:1082E00010BD00000060004010B500210F4A212899
:1082F000126802D0202807D00FE0107800F07F002D
:1083000021280AD10A4908E0107800F07F002128CE
:1083100000D10849084B2020187029B19161002034
:1083200050828847002010BD022010BD4C1800204C
:1083300055830008D1840008D01800200149FEF7B9
:10834000C5BF0000E41800200149FEF7BFBF0000D0
:10835000DC180020002801D003487047034908209A
:108360000968088200207047D41800204C180020AB
:1083700005490968C978042901D900207047034AD2
:1083800002EBC101FEF7A2BF4C1800201C1900200F
:10839000002901D002207047012801D9022070472E
:1083A0000020704708490968097801F07F012129F8
:1083B00003D1022803D0222803D0022070470020D6
:1083C00070470020704700004C18002010B533485B
:1083D000002100688172324AD2794272C172002053
:1083E000FEF7DEFC4FF400710020FEF7ADFD10211A
:1083F0000020FEF77DFD40210020FEF7FDFC8021DE
:108400000020FEF757FD0020FBF74EFE254890F8B0
:108410002C100020FEF700FD0020FEF737FD0021A4
:108420000120FEF791FDC0210120FEF743FD202130
:108430000120FEF75DFD00210120FEF70FFD4FF446
:10844000C0610220FEF780FD4FF480710220FEF72C
:1084500031FD00210220FEF701FD20210220FEF760
:1084600047FD00210320FEF76FFD4FF488710320C4
:10847000FEF7C2FC40210320FEF7CEFC4FF4405132
:108480000320FEF7EBFC00210320FEF731FD002066
:10849000FEF78EFC04490120086010BD4C18002036
:1084A0003AC10008EC180020641900200348807AC3
:1084B000002802D00249052008607047A42300204C
:1084C00064190020014904200860704764190020E5
:1084D000002801D003487047034908200968088232
:1084E00000207047D41800204C1800200348017861
:1084F000202901D10021017070470000D018002010
:108500007047000010B5FCF7C9FD0548002400685D
:108510008472FDF7A7FAFFF7A5FB0248046010BDBF
:108520004C180020641900200FB4084B10B504A9A2
:1085300002AA039800F0E4F8044602A9002000F023
:1085400076FC204610BC5DF814FB00002F8E00085E
:1085500002E008C8121F08C1002AFAD1704770470C
:10856000002001E001C1121F002AFBD1704700006A
:108570000149086070470000881900202DE9FF5F5D
:1085800082B00021DDE90430020DDDF840B0034384
:1085900018D044F61050A2F2FF324243151411983D
:1085A00001281FD0A5EB0B00401C5FEA000A4FF02A
:1085B00000064E4FDFF83891B046504615D5CAF147
:1085C000000413E0119801244AA3012801D16FEAA5
:1085D0000B010298119AC0E90031C0E9024206B0CD
:1085E000BDE8F09FCBF10000DFE704460021404AE0
:1085F000491842EB0450CDE9001012E0E00707D023
:1086000032463B4640464946FAF76BFE804689466D
:1086100032463B4610461946FAF763FE06460F46B9
:108620006410002CEAD1DDE90401DDE90023BAF190
:10863000000F06DAFAF755FE42464B46FAF751FEAE
:1086400005E0FAF7C0FE42464B46FAF7BCFE044688
:108650000E460022284BFAF77FFF03D84FF0FF3079
:10866000014607E00022254B20463146FBF78DF8F6
:10867000FBF783F9102409E0002C0ADB0A2200230F
:10868000FAF7BEFF039B30321A55641E50EA01020E
:10869000F2D1641C039AC4F111031444119A012A03
:1086A00003D0012208430DD10AE0084304D0002082
:1086B0004FF0110B119072E7A3EB0B056D1E0DE04F
:1086C0005B4504DD4FF0000205F1010504E003DA2B
:1086D0004FF00002A5F10105002AECD00298119993
:1086E000C0E90231C0E9004579E70000000014400C
:1086F0000000F03F300000000000F0430000E03FC9
:108700002DE9FF4F95B09B468946064600250FE2AE
:10871000252877D100242746F84A0121059400E056
:10872000044316F8013F203B01FA03F01042F7D151
:1087300030782A2811D06FF02F033078A0F1300262
:10874000092A16D8059A44F0020402EB820203EBD0
:1087500042021044761C0590EFE759F8042B05926D
:10876000002A03DA504244F40054059044F0020415
:10877000761C30782E2816D116F8010F44F0040428
:108780002A280DD06FF02F023078A0F13003092B8A
:1087900009D807EB870302EB4303C718761CF3E7FE
:1087A00059F8047B761C30786C280FD006DC4C28F6
:1087B00017D068280DD06A2814D104E0742810D08E
:1087C0007A280FD10DE044F400140AE044F4801438
:1087D00001E044F440147278824202D104F580141E
:1087E000761C761C307866280BD013DC582877D09E
:1087F00009DC002875D04528F6D04628F4D0472853
:108800001AD19DE118E0632835D0642879D0652815
:1088100012D195E1702873D008DC6728F1D069285F
:108820006FD06E280DD06F2806D1B5E073282CD0FC
:10883000752875D0782874D05A46179990476D1CC2
:1088400075E1C4F30250022809D003280DD0D9F8ED
:10885000001004280DD00D6009F1040967E1D9F872
:108860000010EA17C1E90052F6E7D9F800100D80B0
:10887000F2E70D70F0E719F8041B8DF800100020E6
:108880008DF80100EA46012003E059F804AB4FF0EF
:10889000FF3061074FF0000102D40DE008F1010143
:1088A0008846B9420FDA8045F8DB1AF8081000292B
:1088B000F4D108E008F1010188468142FADB1AF898
:1088C00008100029F6D105985B46A0EB0807214661
:1088D0003846179A00F094FA284400EB080507E0A0
:1088E0004DE029E10DE01AF8010B5A46179990471F
:1088F000B8F10108F7D25B4621463846179A13E1D2
:1089000042E00A220092C4F302524FF0000A022A07
:1089100008D059F804CB032A4FEAEC710AD00DE0D5
:1089200029E02AE009F1070121F00702F2E802C17B
:10893000914609E00FFA8CFC4FEAEC71042A03D14E
:108940004FFA8CFC4FEAEC71002907DA0A46002145
:10895000DCF1000C61EB02012D2202E0220504D5BE
:108960002B228DF80420012203E0E20701D020220F
:10897000F7E7904659E00A2102E010220DE01021AD
:108980004FF0000A00910BE010224FF0000A44F073
:1089900004040827009203E008224FF0000A009226
:1089A000C4F30252022A05D059F804CB0021032A4D
:1089B00008D009E009F1070121F00702F2E802C13D
:1089C000914605E01FFA8CFC042A01D10CF0FF0C43
:1089D0004FF00008220728D5702806D0009B83F0AE
:1089E000100353EA0A0305D00EE040228DF804205C
:1089F000012208E05CEA010206D030228DF8042052
:108A00008DF8050002229046009B83F0080353EA8C
:108A10000A030AD15CEA010201D1620705D53022BE
:108A20008DF804204FF001087F1E582804D034A090
:108A300003900EA802900DE036A0F9E75346604679
:108A4000009AFAF7DDFD84460398825C0298401E86
:108A5000029002705CEA0100F0D1029806A9081A9F
:108A600000F1200A600702D524F4803400E00127D9
:108A7000574502DDA7EB0A0000E0002000EB0A01E9
:108A8000009005984144401A0590E00306D45B46E7
:108A90002146179A059800F0B3F90544002706E02F
:108AA00001A85A46C05D179990476D1C7F1C474529
:108AB000F6DBE0030CD55B462146179A059800F0DB
:108AC0009FF9054404E030205A46179990476D1CE1
:108AD0000099481E00900029F5DC08E002980299F0
